{
  "_format": "hh-sol-artifact-1",
  "contractName": "MyToken",
  "sourceName": "contracts/optional/GovernanceTokenWrapper.sol",
  "abi": [
    {
      "inputs": [
        {
          "internalType": "contract IERC20",
          "name": "wrappedToken",
          "type": "address"
        }
      ],
      "stateMutability": "nonpayable",
      "type": "constructor"
    },
    {
      "anonymous": false,
      "inputs": [
        {
          "indexed": true,
          "internalType": "address",
          "name": "owner",
          "type": "address"
        },
        {
          "indexed": true,
          "internalType": "address",
          "name": "spender",
          "type": "address"
        },
        {
          "indexed": false,
          "internalType": "uint256",
          "name": "value",
          "type": "uint256"
        }
      ],
      "name": "Approval",
      "type": "event"
    },
    {
      "anonymous": false,
      "inputs": [
        {
          "indexed": true,
          "internalType": "address",
          "name": "delegator",
          "type": "address"
        },
        {
          "indexed": true,
          "internalType": "address",
          "name": "fromDelegate",
          "type": "address"
        },
        {
          "indexed": true,
          "internalType": "address",
          "name": "toDelegate",
          "type": "address"
        }
      ],
      "name": "DelegateChanged",
      "type": "event"
    },
    {
      "anonymous": false,
      "inputs": [
        {
          "indexed": true,
          "internalType": "address",
          "name": "delegate",
          "type": "address"
        },
        {
          "indexed": false,
          "internalType": "uint256",
          "name": "previousBalance",
          "type": "uint256"
        },
        {
          "indexed": false,
          "internalType": "uint256",
          "name": "newBalance",
          "type": "uint256"
        }
      ],
      "name": "DelegateVotesChanged",
      "type": "event"
    },
    {
      "anonymous": false,
      "inputs": [
        {
          "indexed": true,
          "internalType": "address",
          "name": "from",
          "type": "address"
        },
        {
          "indexed": true,
          "internalType": "address",
          "name": "to",
          "type": "address"
        },
        {
          "indexed": false,
          "internalType": "uint256",
          "name": "value",
          "type": "uint256"
        }
      ],
      "name": "Transfer",
      "type": "event"
    },
    {
      "inputs": [],
      "name": "DOMAIN_SEPARATOR",
      "outputs": [
        {
          "internalType": "bytes32",
          "name": "",
          "type": "bytes32"
        }
      ],
      "stateMutability": "view",
      "type": "function"
    },
    {
      "inputs": [
        {
          "internalType": "address",
          "name": "owner",
          "type": "address"
        },
        {
          "internalType": "address",
          "name": "spender",
          "type": "address"
        }
      ],
      "name": "allowance",
      "outputs": [
        {
          "internalType": "uint256",
          "name": "",
          "type": "uint256"
        }
      ],
      "stateMutability": "view",
      "type": "function"
    },
    {
      "inputs": [
        {
          "internalType": "address",
          "name": "spender",
          "type": "address"
        },
        {
          "internalType": "uint256",
          "name": "amount",
          "type": "uint256"
        }
      ],
      "name": "approve",
      "outputs": [
        {
          "internalType": "bool",
          "name": "",
          "type": "bool"
        }
      ],
      "stateMutability": "nonpayable",
      "type": "function"
    },
    {
      "inputs": [
        {
          "internalType": "address",
          "name": "account",
          "type": "address"
        }
      ],
      "name": "balanceOf",
      "outputs": [
        {
          "internalType": "uint256",
          "name": "",
          "type": "uint256"
        }
      ],
      "stateMutability": "view",
      "type": "function"
    },
    {
      "inputs": [
        {
          "internalType": "address",
          "name": "account",
          "type": "address"
        },
        {
          "internalType": "uint32",
          "name": "pos",
          "type": "uint32"
        }
      ],
      "name": "checkpoints",
      "outputs": [
        {
          "components": [
            {
              "internalType": "uint32",
              "name": "fromBlock",
              "type": "uint32"
            },
            {
              "internalType": "uint224",
              "name": "votes",
              "type": "uint224"
            }
          ],
          "internalType": "struct ERC20Votes.Checkpoint",
          "name": "",
          "type": "tuple"
        }
      ],
      "stateMutability": "view",
      "type": "function"
    },
    {
      "inputs": [],
      "name": "decimals",
      "outputs": [
        {
          "internalType": "uint8",
          "name": "",
          "type": "uint8"
        }
      ],
      "stateMutability": "view",
      "type": "function"
    },
    {
      "inputs": [
        {
          "internalType": "address",
          "name": "spender",
          "type": "address"
        },
        {
          "internalType": "uint256",
          "name": "subtractedValue",
          "type": "uint256"
        }
      ],
      "name": "decreaseAllowance",
      "outputs": [
        {
          "internalType": "bool",
          "name": "",
          "type": "bool"
        }
      ],
      "stateMutability": "nonpayable",
      "type": "function"
    },
    {
      "inputs": [
        {
          "internalType": "address",
          "name": "delegatee",
          "type": "address"
        }
      ],
      "name": "delegate",
      "outputs": [],
      "stateMutability": "nonpayable",
      "type": "function"
    },
    {
      "inputs": [
        {
          "internalType": "address",
          "name": "delegatee",
          "type": "address"
        },
        {
          "internalType": "uint256",
          "name": "nonce",
          "type": "uint256"
        },
        {
          "internalType": "uint256",
          "name": "expiry",
          "type": "uint256"
        },
        {
          "internalType": "uint8",
          "name": "v",
          "type": "uint8"
        },
        {
          "internalType": "bytes32",
          "name": "r",
          "type": "bytes32"
        },
        {
          "internalType": "bytes32",
          "name": "s",
          "type": "bytes32"
        }
      ],
      "name": "delegateBySig",
      "outputs": [],
      "stateMutability": "nonpayable",
      "type": "function"
    },
    {
      "inputs": [
        {
          "internalType": "address",
          "name": "account",
          "type": "address"
        }
      ],
      "name": "delegates",
      "outputs": [
        {
          "internalType": "address",
          "name": "",
          "type": "address"
        }
      ],
      "stateMutability": "view",
      "type": "function"
    },
    {
      "inputs": [
        {
          "internalType": "address",
          "name": "account",
          "type": "address"
        },
        {
          "internalType": "uint256",
          "name": "amount",
          "type": "uint256"
        }
      ],
      "name": "depositFor",
      "outputs": [
        {
          "internalType": "bool",
          "name": "",
          "type": "bool"
        }
      ],
      "stateMutability": "nonpayable",
      "type": "function"
    },
    {
      "inputs": [
        {
          "internalType": "uint256",
          "name": "blockNumber",
          "type": "uint256"
        }
      ],
      "name": "getPastTotalSupply",
      "outputs": [
        {
          "internalType": "uint256",
          "name": "",
          "type": "uint256"
        }
      ],
      "stateMutability": "view",
      "type": "function"
    },
    {
      "inputs": [
        {
          "internalType": "address",
          "name": "account",
          "type": "address"
        },
        {
          "internalType": "uint256",
          "name": "blockNumber",
          "type": "uint256"
        }
      ],
      "name": "getPastVotes",
      "outputs": [
        {
          "internalType": "uint256",
          "name": "",
          "type": "uint256"
        }
      ],
      "stateMutability": "view",
      "type": "function"
    },
    {
      "inputs": [
        {
          "internalType": "address",
          "name": "account",
          "type": "address"
        }
      ],
      "name": "getVotes",
      "outputs": [
        {
          "internalType": "uint256",
          "name": "",
          "type": "uint256"
        }
      ],
      "stateMutability": "view",
      "type": "function"
    },
    {
      "inputs": [
        {
          "internalType": "address",
          "name": "spender",
          "type": "address"
        },
        {
          "internalType": "uint256",
          "name": "addedValue",
          "type": "uint256"
        }
      ],
      "name": "increaseAllowance",
      "outputs": [
        {
          "internalType": "bool",
          "name": "",
          "type": "bool"
        }
      ],
      "stateMutability": "nonpayable",
      "type": "function"
    },
    {
      "inputs": [],
      "name": "name",
      "outputs": [
        {
          "internalType": "string",
          "name": "",
          "type": "string"
        }
      ],
      "stateMutability": "view",
      "type": "function"
    },
    {
      "inputs": [
        {
          "internalType": "address",
          "name": "owner",
          "type": "address"
        }
      ],
      "name": "nonces",
      "outputs": [
        {
          "internalType": "uint256",
          "name": "",
          "type": "uint256"
        }
      ],
      "stateMutability": "view",
      "type": "function"
    },
    {
      "inputs": [
        {
          "internalType": "address",
          "name": "account",
          "type": "address"
        }
      ],
      "name": "numCheckpoints",
      "outputs": [
        {
          "internalType": "uint32",
          "name": "",
          "type": "uint32"
        }
      ],
      "stateMutability": "view",
      "type": "function"
    },
    {
      "inputs": [
        {
          "internalType": "address",
          "name": "owner",
          "type": "address"
        },
        {
          "internalType": "address",
          "name": "spender",
          "type": "address"
        },
        {
          "internalType": "uint256",
          "name": "value",
          "type": "uint256"
        },
        {
          "internalType": "uint256",
          "name": "deadline",
          "type": "uint256"
        },
        {
          "internalType": "uint8",
          "name": "v",
          "type": "uint8"
        },
        {
          "internalType": "bytes32",
          "name": "r",
          "type": "bytes32"
        },
        {
          "internalType": "bytes32",
          "name": "s",
          "type": "bytes32"
        }
      ],
      "name": "permit",
      "outputs": [],
      "stateMutability": "nonpayable",
      "type": "function"
    },
    {
      "inputs": [],
      "name": "symbol",
      "outputs": [
        {
          "internalType": "string",
          "name": "",
          "type": "string"
        }
      ],
      "stateMutability": "view",
      "type": "function"
    },
    {
      "inputs": [],
      "name": "totalSupply",
      "outputs": [
        {
          "internalType": "uint256",
          "name": "",
          "type": "uint256"
        }
      ],
      "stateMutability": "view",
      "type": "function"
    },
    {
      "inputs": [
        {
          "internalType": "address",
          "name": "to",
          "type": "address"
        },
        {
          "internalType": "uint256",
          "name": "amount",
          "type": "uint256"
        }
      ],
      "name": "transfer",
      "outputs": [
        {
          "internalType": "bool",
          "name": "",
          "type": "bool"
        }
      ],
      "stateMutability": "nonpayable",
      "type": "function"
    },
    {
      "inputs": [
        {
          "internalType": "address",
          "name": "from",
          "type": "address"
        },
        {
          "internalType": "address",
          "name": "to",
          "type": "address"
        },
        {
          "internalType": "uint256",
          "name": "amount",
          "type": "uint256"
        }
      ],
      "name": "transferFrom",
      "outputs": [
        {
          "internalType": "bool",
          "name": "",
          "type": "bool"
        }
      ],
      "stateMutability": "nonpayable",
      "type": "function"
    },
    {
      "inputs": [],
      "name": "underlying",
      "outputs": [
        {
          "internalType": "contract IERC20",
          "name": "",
          "type": "address"
        }
      ],
      "stateMutability": "view",
      "type": "function"
    },
    {
      "inputs": [
        {
          "internalType": "address",
          "name": "account",
          "type": "address"
        },
        {
          "internalType": "uint256",
          "name": "amount",
          "type": "uint256"
        }
      ],
      "name": "withdrawTo",
      "outputs": [
        {
          "internalType": "bool",
          "name": "",
          "type": "bool"
        }
      ],
      "stateMutability": "nonpayable",
      "type": "function"
    }
  ],
  "bytecode": "0x6101806040527f6e71edae12b1b97f4d1f60370fef10105fa2faae0126114a169c64845d6126c9610140908152503480156200003a57600080fd5b50604051620048c4380380620048c4833981810160405281019062000060919062000367565b806040518060400160405280600781526020017f4d79546f6b656e00000000000000000000000000000000000000000000000000815250806040518060400160405280600181526020017f31000000000000000000000000000000000000000000000000000000000000008152506040518060400160405280600781526020017f4d79546f6b656e000000000000000000000000000000000000000000000000008152506040518060400160405280600381526020017f4d544b0000000000000000000000000000000000000000000000000000000000815250816003908051906020019062000152929190620002a0565b5080600490805190602001906200016b929190620002a0565b50505060008280519060200120905060008280519060200120905060007f8b73c3c69bb8fe3d512ecc4cf759cc79239f7b179b0ffacaa9a75d522b39400f90508260e081815250508161010081815250504660a08181525050620001d78184846200026460201b60201c565b608081815250503073ffffffffffffffffffffffffffffffffffffffff1660c08173ffffffffffffffffffffffffffffffffffffffff1660601b815250508061012081815250505050505050508073ffffffffffffffffffffffffffffffffffffffff166101608173ffffffffffffffffffffffffffffffffffffffff1660601b81525050505062000509565b6000838383463060405160200162000281959493929190620003cc565b6040516020818303038152906040528051906020012090509392505050565b828054620002ae9062000485565b90600052602060002090601f016020900481019282620002d257600085556200031e565b82601f10620002ed57805160ff19168380011785556200031e565b828001600101855582156200031e579182015b828111156200031d57825182559160200191906001019062000300565b5b5090506200032d919062000331565b5090565b5b808211156200034c57600081600090555060010162000332565b5090565b6000815190506200036181620004ef565b92915050565b60006020828403121562000380576200037f620004ea565b5b6000620003908482850162000350565b91505092915050565b620003a48162000429565b82525050565b620003b5816200043d565b82525050565b620003c6816200047b565b82525050565b600060a082019050620003e36000830188620003aa565b620003f26020830187620003aa565b620004016040830186620003aa565b620004106060830185620003bb565b6200041f608083018462000399565b9695505050505050565b600062000436826200045b565b9050919050565b6000819050919050565b6000620004548262000429565b9050919050565b600073ffffffffffffffffffffffffffffffffffffffff82169050919050565b6000819050919050565b600060028204905060018216806200049e57607f821691505b60208210811415620004b557620004b4620004bb565b5b50919050565b7f4e487b7100000000000000000000000000000000000000000000000000000000600052602260045260246000fd5b600080fd5b620004fa8162000447565b81146200050657600080fd5b50565b60805160a05160c05160601c60e0516101005161012051610140516101605160601c6143416200058360003960008181610657015281816106bd01526108d401526000610e330152600061177e015260006117c00152600061179f015260006116d40152600061172a0152600061175301526143416000f3fe608060405234801561001057600080fd5b50600436106101735760003560e01c80636f307dc3116100de5780639ab24eb011610097578063c3cda52011610071578063c3cda520146104e8578063d505accf14610504578063dd62ed3e14610520578063f1127ed81461055057610173565b80639ab24eb014610458578063a457c2d714610488578063a9059cbb146104b857610173565b80636f307dc31461035c5780636fcfff451461037a57806370a08231146103aa5780637ecebe00146103da5780638e539e8c1461040a57806395d89b411461043a57610173565b8063313ce56711610130578063313ce567146102745780633644e5151461029257806339509351146102b05780633a46b1a8146102e0578063587cde1e146103105780635c19a95c1461034057610173565b806306fdde0314610178578063095ea7b31461019657806318160ddd146101c6578063205c2878146101e457806323b872dd146102145780632f4f21e214610244575b600080fd5b610180610580565b60405161018d9190613511565b60405180910390f35b6101b060048036038101906101ab9190612c8d565b610612565b6040516101bd9190613382565b60405180910390f35b6101ce610635565b6040516101db919061386e565b60405180910390f35b6101fe60048036038101906101f99190612c8d565b61063f565b60405161020b9190613382565b60405180910390f35b61022e60048036038101906102299190612b98565b610687565b60405161023b9190613382565b60405180910390f35b61025e60048036038101906102599190612c8d565b6106b6565b60405161026b9190613382565b60405180910390f35b61027c6106ff565b60405161028991906138cd565b60405180910390f35b61029a610708565b6040516102a7919061339d565b60405180910390f35b6102ca60048036038101906102c59190612c8d565b610717565b6040516102d79190613382565b60405180910390f35b6102fa60048036038101906102f59190612c8d565b6107c1565b604051610307919061386e565b60405180910390f35b61032a60048036038101906103259190612b2b565b610855565b6040516103379190613307565b60405180910390f35b61035a60048036038101906103559190612b2b565b6108be565b005b6103646108d2565b60405161037191906134f6565b60405180910390f35b610394600480360381019061038f9190612b2b565b6108f6565b6040516103a191906138b2565b60405180910390f35b6103c460048036038101906103bf9190612b2b565b61094a565b6040516103d1919061386e565b60405180910390f35b6103f460048036038101906103ef9190612b2b565b610992565b604051610401919061386e565b60405180910390f35b610424600480360381019061041f9190612dc7565b6109e2565b604051610431919061386e565b60405180910390f35b610442610a38565b60405161044f9190613511565b60405180910390f35b610472600480360381019061046d9190612b2b565b610aca565b60405161047f919061386e565b60405180910390f35b6104a2600480360381019061049d9190612c8d565b610bdb565b6040516104af9190613382565b60405180910390f35b6104d260048036038101906104cd9190612c8d565b610cc5565b6040516104df9190613382565b60405180910390f35b61050260048036038101906104fd9190612ccd565b610ce8565b005b61051e60048036038101906105199190612beb565b610dec565b005b61053a60048036038101906105359190612b58565b610f2e565b604051610547919061386e565b60405180910390f35b61056a60048036038101906105659190612d5a565b610fb5565b6040516105779190613853565b60405180910390f35b60606003805461058f90613ae0565b80601f01602080910402602001604051908101604052809291908181526020018280546105bb90613ae0565b80156106085780601f106105dd57610100808354040283529160200191610608565b820191906000526020600020905b8154815290600101906020018083116105eb57829003601f168201915b5050505050905090565b60008061061d6110c5565b905061062a8185856110cd565b600191505092915050565b6000600254905090565b600061065261064c6110c5565b83611298565b61067d7f000000000000000000000000000000000000000000000000000000000000000084846112a6565b6001905092915050565b6000806106926110c5565b905061069f85828561132c565b6106aa8585856113b8565b60019150509392505050565b60006106eb7f00000000000000000000000000000000000000000000000000000000000000006106e46110c5565b3085611639565b6106f583836116c2565b6001905092915050565b60006012905090565b60006107126116d0565b905090565b6000806107226110c5565b90506107b6818585600160008673ffffffffffffffffffffffffffffffffffffffff1673ffffffffffffffffffffffffffffffffffffffff16815260200190815260200160002060008973ffffffffffffffffffffffffffffffffffffffff1673ffffffffffffffffffffffffffffffffffffffff168152602001908152602001600020546107b19190613925565b6110cd565b600191505092915050565b6000438210610805576040517f08c379a00000000000000000000000000000000000000000000000000000000081526004016107fc90613573565b60405180910390fd5b61084d600760008573ffffffffffffffffffffffffffffffffffffffff1673ffffffffffffffffffffffffffffffffffffffff168152602001908152602001600020836117ea565b905092915050565b6000600660008373ffffffffffffffffffffffffffffffffffffffff1673ffffffffffffffffffffffffffffffffffffffff16815260200190815260200160002060009054906101000a900473ffffffffffffffffffffffffffffffffffffffff169050919050565b6108cf6108c96110c5565b826118f6565b50565b7f000000000000000000000000000000000000000000000000000000000000000081565b6000610943600760008473ffffffffffffffffffffffffffffffffffffffff1673ffffffffffffffffffffffffffffffffffffffff16815260200190815260200160002080549050611a10565b9050919050565b60008060008373ffffffffffffffffffffffffffffffffffffffff1673ffffffffffffffffffffffffffffffffffffffff168152602001908152602001600020549050919050565b60006109db600560008473ffffffffffffffffffffffffffffffffffffffff1673ffffffffffffffffffffffffffffffffffffffff168152602001908152602001600020611a63565b9050919050565b6000438210610a26576040517f08c379a0000000000000000000000000000000000000000000000000000000008152600401610a1d90613573565b60405180910390fd5b610a316008836117ea565b9050919050565b606060048054610a4790613ae0565b80601f0160208091040260200160405190810160405280929190818152602001828054610a7390613ae0565b8015610ac05780601f10610a9557610100808354040283529160200191610ac0565b820191906000526020600020905b815481529060010190602001808311610aa357829003601f168201915b5050505050905090565b600080600760008473ffffffffffffffffffffffffffffffffffffffff1673ffffffffffffffffffffffffffffffffffffffff16815260200190815260200160002080549050905060008114610bb257600760008473ffffffffffffffffffffffffffffffffffffffff1673ffffffffffffffffffffffffffffffffffffffff168152602001908152602001600020600182610b6691906139ac565b81548110610b7757610b76613bd8565b5b9060005260206000200160000160049054906101000a90047bffffffffffffffffffffffffffffffffffffffffffffffffffffffff16610bb5565b60005b7bffffffffffffffffffffffffffffffffffffffffffffffffffffffff16915050919050565b600080610be66110c5565b90506000600160008373ffffffffffffffffffffffffffffffffffffffff1673ffffffffffffffffffffffffffffffffffffffff16815260200190815260200160002060008673ffffffffffffffffffffffffffffffffffffffff1673ffffffffffffffffffffffffffffffffffffffff16815260200190815260200160002054905083811015610cac576040517f08c379a0000000000000000000000000000000000000000000000000000000008152600401610ca390613813565b60405180910390fd5b610cb982868684036110cd565b60019250505092915050565b600080610cd06110c5565b9050610cdd8185856113b8565b600191505092915050565b83421115610d2b576040517f08c379a0000000000000000000000000000000000000000000000000000000008152600401610d2290613593565b60405180910390fd5b6000610d8d610d857fe48329057bfd03d55e49b547132e39cffd9c1820ad7b9d4c5307691425d15adf898989604051602001610d6a9493929190613419565b60405160208183030381529060405280519060200120611a71565b858585611a8b565b9050610d9881611ab6565b8614610dd9576040517f08c379a0000000000000000000000000000000000000000000000000000000008152600401610dd0906135f3565b60405180910390fd5b610de381886118f6565b50505050505050565b83421115610e2f576040517f08c379a0000000000000000000000000000000000000000000000000000000008152600401610e2690613653565b60405180910390fd5b60007f0000000000000000000000000000000000000000000000000000000000000000888888610e5e8c611ab6565b89604051602001610e74969594939291906133b8565b6040516020818303038152906040528051906020012090506000610e9782611a71565b90506000610ea782878787611a8b565b90508973ffffffffffffffffffffffffffffffffffffffff168173ffffffffffffffffffffffffffffffffffffffff1614610f17576040517f08c379a0000000000000000000000000000000000000000000000000000000008152600401610f0e906136f3565b60405180910390fd5b610f228a8a8a6110cd565b50505050505050505050565b6000600160008473ffffffffffffffffffffffffffffffffffffffff1673ffffffffffffffffffffffffffffffffffffffff16815260200190815260200160002060008373ffffffffffffffffffffffffffffffffffffffff1673ffffffffffffffffffffffffffffffffffffffff16815260200190815260200160002054905092915050565b610fbd612a6f565b600760008473ffffffffffffffffffffffffffffffffffffffff1673ffffffffffffffffffffffffffffffffffffffff1681526020019081526020016000208263ffffffff168154811061101457611013613bd8565b5b906000526020600020016040518060400160405290816000820160009054906101000a900463ffffffff1663ffffffff1663ffffffff1681526020016000820160049054906101000a90047bffffffffffffffffffffffffffffffffffffffffffffffffffffffff167bffffffffffffffffffffffffffffffffffffffffffffffffffffffff167bffffffffffffffffffffffffffffffffffffffffffffffffffffffff1681525050905092915050565b600033905090565b600073ffffffffffffffffffffffffffffffffffffffff168373ffffffffffffffffffffffffffffffffffffffff16141561113d576040517f08c379a0000000000000000000000000000000000000000000000000000000008152600401611134906137b3565b60405180910390fd5b600073ffffffffffffffffffffffffffffffffffffffff168273ffffffffffffffffffffffffffffffffffffffff1614156111ad576040517f08c379a00000000000000000000000000000000000000000000000000000000081526004016111a490613613565b60405180910390fd5b80600160008573ffffffffffffffffffffffffffffffffffffffff1673ffffffffffffffffffffffffffffffffffffffff16815260200190815260200160002060008473ffffffffffffffffffffffffffffffffffffffff1673ffffffffffffffffffffffffffffffffffffffff168152602001908152602001600020819055508173ffffffffffffffffffffffffffffffffffffffff168373ffffffffffffffffffffffffffffffffffffffff167f8c5be1e5ebec7d5bd14f71427d1e84f3dd0314c0f7b2291e5b200ac8c7c3b9258360405161128b919061386e565b60405180910390a3505050565b6112a28282611b14565b5050565b6113278363a9059cbb60e01b84846040516024016112c5929190613359565b604051602081830303815290604052907bffffffffffffffffffffffffffffffffffffffffffffffffffffffff19166020820180517bffffffffffffffffffffffffffffffffffffffffffffffffffffffff8381831617835250505050611b32565b505050565b60006113388484610f2e565b90507fffffffffffffffffffffffffffffffffffffffffffffffffffffffffffffffff81146113b257818110156113a4576040517f08c379a000000000000000000000000000000000000000000000000000000000815260040161139b90613633565b60405180910390fd5b6113b184848484036110cd565b5b50505050565b600073ffffffffffffffffffffffffffffffffffffffff168373ffffffffffffffffffffffffffffffffffffffff161415611428576040517f08c379a000000000000000000000000000000000000000000000000000000000815260040161141f90613773565b60405180910390fd5b600073ffffffffffffffffffffffffffffffffffffffff168273ffffffffffffffffffffffffffffffffffffffff161415611498576040517f08c379a000000000000000000000000000000000000000000000000000000000815260040161148f90613553565b60405180910390fd5b6114a3838383611bf9565b60008060008573ffffffffffffffffffffffffffffffffffffffff1673ffffffffffffffffffffffffffffffffffffffff16815260200190815260200160002054905081811015611529576040517f08c379a000000000000000000000000000000000000000000000000000000000815260040161152090613673565b60405180910390fd5b8181036000808673ffffffffffffffffffffffffffffffffffffffff1673ffffffffffffffffffffffffffffffffffffffff16815260200190815260200160002081905550816000808573ffffffffffffffffffffffffffffffffffffffff1673ffffffffffffffffffffffffffffffffffffffff16815260200190815260200160002060008282546115bc9190613925565b925050819055508273ffffffffffffffffffffffffffffffffffffffff168473ffffffffffffffffffffffffffffffffffffffff167fddf252ad1be2c89b69c2b068fc378daa952ba7f163c4a11628f55a4df523b3ef84604051611620919061386e565b60405180910390a3611633848484611bfe565b50505050565b6116bc846323b872dd60e01b85858560405160240161165a93929190613322565b604051602081830303815290604052907bffffffffffffffffffffffffffffffffffffffffffffffffffffffff19166020820180517bffffffffffffffffffffffffffffffffffffffffffffffffffffffff8381831617835250505050611b32565b50505050565b6116cc8282611c0e565b5050565b60007f000000000000000000000000000000000000000000000000000000000000000073ffffffffffffffffffffffffffffffffffffffff163073ffffffffffffffffffffffffffffffffffffffff1614801561174c57507f000000000000000000000000000000000000000000000000000000000000000046145b15611779577f000000000000000000000000000000000000000000000000000000000000000090506117e7565b6117e47f00000000000000000000000000000000000000000000000000000000000000007f00000000000000000000000000000000000000000000000000000000000000007f0000000000000000000000000000000000000000000000000000000000000000611c9b565b90505b90565b6000808380549050905060005b8181101561186957600061180b8284611cd5565b90508486828154811061182157611820613bd8565b5b9060005260206000200160000160009054906101000a900463ffffffff1663ffffffff16111561185357809250611863565b6001816118609190613925565b91505b506117f7565b600082146118cb578460018361187f91906139ac565b815481106118905761188f613bd8565b5b9060005260206000200160000160049054906101000a90047bffffffffffffffffffffffffffffffffffffffffffffffffffffffff166118ce565b60005b7bffffffffffffffffffffffffffffffffffffffffffffffffffffffff169250505092915050565b600061190183610855565b9050600061190e8461094a565b905082600660008673ffffffffffffffffffffffffffffffffffffffff1673ffffffffffffffffffffffffffffffffffffffff16815260200190815260200160002060006101000a81548173ffffffffffffffffffffffffffffffffffffffff021916908373ffffffffffffffffffffffffffffffffffffffff1602179055508273ffffffffffffffffffffffffffffffffffffffff168273ffffffffffffffffffffffffffffffffffffffff168573ffffffffffffffffffffffffffffffffffffffff167f3134e8a2e6d97e929a7e54011ea5485d7d196dd5f0ba4d4ef95803e8e3fc257f60405160405180910390a4611a0a828483611cfb565b50505050565b600063ffffffff8016821115611a5b576040517f08c379a0000000000000000000000000000000000000000000000000000000008152600401611a5290613793565b60405180910390fd5b819050919050565b600081600001549050919050565b6000611a84611a7e6116d0565b83611ef4565b9050919050565b6000806000611a9c87878787611f27565b91509150611aa981612034565b8192505050949350505050565b600080600560008473ffffffffffffffffffffffffffffffffffffffff1673ffffffffffffffffffffffffffffffffffffffff1681526020019081526020016000209050611b0381611a63565b9150611b0e81612209565b50919050565b611b1e828261221f565b611b2c60086123f68361240c565b50505050565b6000611b94826040518060400160405280602081526020017f5361666545524332303a206c6f772d6c6576656c2063616c6c206661696c65648152508573ffffffffffffffffffffffffffffffffffffffff166126849092919063ffffffff16565b9050600081511115611bf45780806020019051810190611bb49190612d9a565b611bf3576040517f08c379a0000000000000000000000000000000000000000000000000000000008152600401611bea906137f3565b60405180910390fd5b5b505050565b505050565b611c0983838361269c565b505050565b611c1882826126c7565b611c20612827565b7bffffffffffffffffffffffffffffffffffffffffffffffffffffffff16611c46610635565b1115611c87576040517f08c379a0000000000000000000000000000000000000000000000000000000008152600401611c7e90613713565b60405180910390fd5b611c95600861284b8361240c565b50505050565b60008383834630604051602001611cb695949392919061345e565b6040516020818303038152906040528051906020012090509392505050565b60006002828418611ce6919061397b565b828416611cf39190613925565b905092915050565b8173ffffffffffffffffffffffffffffffffffffffff168373ffffffffffffffffffffffffffffffffffffffff1614158015611d375750600081115b15611eef57600073ffffffffffffffffffffffffffffffffffffffff168373ffffffffffffffffffffffffffffffffffffffff1614611e1557600080611dbe600760008773ffffffffffffffffffffffffffffffffffffffff1673ffffffffffffffffffffffffffffffffffffffff1681526020019081526020016000206123f68561240c565b915091508473ffffffffffffffffffffffffffffffffffffffff167fdec2bacdd2f05b59de34da9b523dff8be42e5e38e818c82fdb0bae774387a7248383604051611e0a929190613889565b60405180910390a250505b600073ffffffffffffffffffffffffffffffffffffffff168273ffffffffffffffffffffffffffffffffffffffff1614611eee57600080611e97600760008673ffffffffffffffffffffffffffffffffffffffff1673ffffffffffffffffffffffffffffffffffffffff16815260200190815260200160002061284b8561240c565b915091508373ffffffffffffffffffffffffffffffffffffffff167fdec2bacdd2f05b59de34da9b523dff8be42e5e38e818c82fdb0bae774387a7248383604051611ee3929190613889565b60405180910390a250505b5b505050565b60008282604051602001611f099291906132d0565b60405160208183030381529060405280519060200120905092915050565b6000807f7fffffffffffffffffffffffffffffff5d576e7357a4501ddfe92f46681b20a08360001c1115611f6257600060039150915061202b565b601b8560ff1614158015611f7a5750601c8560ff1614155b15611f8c57600060049150915061202b565b600060018787878760405160008152602001604052604051611fb194939291906134b1565b6020604051602081039080840390855afa158015611fd3573d6000803e3d6000fd5b505050602060405103519050600073ffffffffffffffffffffffffffffffffffffffff168173ffffffffffffffffffffffffffffffffffffffff1614156120225760006001925092505061202b565b80600092509250505b94509492505050565b6000600481111561204857612047613b7a565b5b81600481111561205b5761205a613b7a565b5b141561206657612206565b6001600481111561207a57612079613b7a565b5b81600481111561208d5761208c613b7a565b5b14156120ce576040517f08c379a00000000000000000000000000000000000000000000000000000000081526004016120c590613533565b60405180910390fd5b600260048111156120e2576120e1613b7a565b5b8160048111156120f5576120f4613b7a565b5b1415612136576040517f08c379a000000000000000000000000000000000000000000000000000000000815260040161212d906135d3565b60405180910390fd5b6003600481111561214a57612149613b7a565b5b81600481111561215d5761215c613b7a565b5b141561219e576040517f08c379a000000000000000000000000000000000000000000000000000000000815260040161219590613693565b60405180910390fd5b6004808111156121b1576121b0613b7a565b5b8160048111156121c4576121c3613b7a565b5b1415612205576040517f08c379a00000000000000000000000000000000000000000000000000000000081526004016121fc906136d3565b60405180910390fd5b5b50565b6001816000016000828254019250508190555050565b600073ffffffffffffffffffffffffffffffffffffffff168273ffffffffffffffffffffffffffffffffffffffff16141561228f576040517f08c379a000000000000000000000000000000000000000000000000000000000815260040161228690613753565b60405180910390fd5b61229b82600083611bf9565b60008060008473ffffffffffffffffffffffffffffffffffffffff1673ffffffffffffffffffffffffffffffffffffffff16815260200190815260200160002054905081811015612321576040517f08c379a0000000000000000000000000000000000000000000000000000000008152600401612318906135b3565b60405180910390fd5b8181036000808573ffffffffffffffffffffffffffffffffffffffff1673ffffffffffffffffffffffffffffffffffffffff16815260200190815260200160002081905550816002600082825461237891906139ac565b92505081905550600073ffffffffffffffffffffffffffffffffffffffff168373ffffffffffffffffffffffffffffffffffffffff167fddf252ad1be2c89b69c2b068fc378daa952ba7f163c4a11628f55a4df523b3ef846040516123dd919061386e565b60405180910390a36123f183600084611bfe565b505050565b6000818361240491906139ac565b905092915050565b6000806000858054905090506000811461247a578560018261242e91906139ac565b8154811061243f5761243e613bd8565b5b9060005260206000200160000160049054906101000a90047bffffffffffffffffffffffffffffffffffffffffffffffffffffffff1661247d565b60005b7bffffffffffffffffffffffffffffffffffffffffffffffffffffffff1692506124ab83858763ffffffff16565b91506000811180156124fe575043866001836124c791906139ac565b815481106124d8576124d7613bd8565b5b9060005260206000200160000160009054906101000a900463ffffffff1663ffffffff16145b1561258b5761250c82612861565b8660018361251a91906139ac565b8154811061252b5761252a613bd8565b5b9060005260206000200160000160046101000a8154817bffffffffffffffffffffffffffffffffffffffffffffffffffffffff02191690837bffffffffffffffffffffffffffffffffffffffffffffffffffffffff16021790555061267b565b8560405180604001604052806125a043611a10565b63ffffffff1681526020016125b485612861565b7bffffffffffffffffffffffffffffffffffffffffffffffffffffffff168152509080600181540180825580915050600190039060005260206000200160009091909190915060008201518160000160006101000a81548163ffffffff021916908363ffffffff16021790555060208201518160000160046101000a8154817bffffffffffffffffffffffffffffffffffffffffffffffffffffffff02191690837bffffffffffffffffffffffffffffffffffffffffffffffffffffffff16021790555050505b50935093915050565b606061269384846000856128cc565b90509392505050565b6126a78383836129e0565b6126c26126b384610855565b6126bc84610855565b83611cfb565b505050565b600073ffffffffffffffffffffffffffffffffffffffff168273ffffffffffffffffffffffffffffffffffffffff161415612737576040517f08c379a000000000000000000000000000000000000000000000000000000000815260040161272e90613833565b60405180910390fd5b61274360008383611bf9565b80600260008282546127559190613925565b92505081905550806000808473ffffffffffffffffffffffffffffffffffffffff1673ffffffffffffffffffffffffffffffffffffffff16815260200190815260200160002060008282546127aa9190613925565b925050819055508173ffffffffffffffffffffffffffffffffffffffff16600073ffffffffffffffffffffffffffffffffffffffff167fddf252ad1be2c89b69c2b068fc378daa952ba7f163c4a11628f55a4df523b3ef8360405161280f919061386e565b60405180910390a361282360008383611bfe565b5050565b60007bffffffffffffffffffffffffffffffffffffffffffffffffffffffff905090565b600081836128599190613925565b905092915050565b60007bffffffffffffffffffffffffffffffffffffffffffffffffffffffff80168211156128c4576040517f08c379a00000000000000000000000000000000000000000000000000000000081526004016128bb90613733565b60405180910390fd5b819050919050565b606082471015612911576040517f08c379a0000000000000000000000000000000000000000000000000000000008152600401612908906136b3565b60405180910390fd5b61291a856129e5565b612959576040517f08c379a0000000000000000000000000000000000000000000000000000000008152600401612950906137d3565b60405180910390fd5b6000808673ffffffffffffffffffffffffffffffffffffffff16858760405161298291906132b9565b60006040518083038185875af1925050503d80600081146129bf576040519150601f19603f3d011682016040523d82523d6000602084013e6129c4565b606091505b50915091506129d4828286612a08565b92505050949350505050565b505050565b6000808273ffffffffffffffffffffffffffffffffffffffff163b119050919050565b60608315612a1857829050612a68565b600083511115612a2b5782518084602001fd5b816040517f08c379a0000000000000000000000000000000000000000000000000000000008152600401612a5f9190613511565b60405180910390fd5b9392505050565b6040518060400160405280600063ffffffff16815260200160007bffffffffffffffffffffffffffffffffffffffffffffffffffffffff1681525090565b600081359050612abc81614281565b92915050565b600081519050612ad181614298565b92915050565b600081359050612ae6816142af565b92915050565b600081359050612afb816142c6565b92915050565b600081359050612b10816142dd565b92915050565b600081359050612b25816142f4565b92915050565b600060208284031215612b4157612b40613c07565b5b6000612b4f84828501612aad565b91505092915050565b60008060408385031215612b6f57612b6e613c07565b5b6000612b7d85828601612aad565b9250506020612b8e85828601612aad565b9150509250929050565b600080600060608486031215612bb157612bb0613c07565b5b6000612bbf86828701612aad565b9350506020612bd086828701612aad565b9250506040612be186828701612aec565b9150509250925092565b600080600080600080600060e0888a031215612c0a57612c09613c07565b5b6000612c188a828b01612aad565b9750506020612c298a828b01612aad565b9650506040612c3a8a828b01612aec565b9550506060612c4b8a828b01612aec565b9450506080612c5c8a828b01612b16565b93505060a0612c6d8a828b01612ad7565b92505060c0612c7e8a828b01612ad7565b91505092959891949750929550565b60008060408385031215612ca457612ca3613c07565b5b6000612cb285828601612aad565b9250506020612cc385828601612aec565b9150509250929050565b60008060008060008060c08789031215612cea57612ce9613c07565b5b6000612cf889828a01612aad565b9650506020612d0989828a01612aec565b9550506040612d1a89828a01612aec565b9450506060612d2b89828a01612b16565b9350506080612d3c89828a01612ad7565b92505060a0612d4d89828a01612ad7565b9150509295509295509295565b60008060408385031215612d7157612d70613c07565b5b6000612d7f85828601612aad565b9250506020612d9085828601612b01565b9150509250929050565b600060208284031215612db057612daf613c07565b5b6000612dbe84828501612ac2565b91505092915050565b600060208284031215612ddd57612ddc613c07565b5b6000612deb84828501612aec565b91505092915050565b612dfd816139e0565b82525050565b612e0c816139f2565b82525050565b612e1b816139fe565b82525050565b612e32612e2d826139fe565b613b12565b82525050565b6000612e43826138e8565b612e4d81856138fe565b9350612e5d818560208601613aad565b80840191505092915050565b612e7281613a77565b82525050565b6000612e83826138f3565b612e8d8185613909565b9350612e9d818560208601613aad565b612ea681613c0c565b840191505092915050565b6000612ebe601883613909565b9150612ec982613c1d565b602082019050919050565b6000612ee1602383613909565b9150612eec82613c46565b604082019050919050565b6000612f04601f83613909565b9150612f0f82613c95565b602082019050919050565b6000612f27601d83613909565b9150612f3282613cbe565b602082019050919050565b6000612f4a602283613909565b9150612f5582613ce7565b604082019050919050565b6000612f6d601f83613909565b9150612f7882613d36565b602082019050919050565b6000612f90601983613909565b9150612f9b82613d5f565b602082019050919050565b6000612fb3602283613909565b9150612fbe82613d88565b604082019050919050565b6000612fd660028361391a565b9150612fe182613dd7565b600282019050919050565b6000612ff9601d83613909565b915061300482613e00565b602082019050919050565b600061301c601d83613909565b915061302782613e29565b602082019050919050565b600061303f602683613909565b915061304a82613e52565b604082019050919050565b6000613062602283613909565b915061306d82613ea1565b604082019050919050565b6000613085602683613909565b915061309082613ef0565b604082019050919050565b60006130a8602283613909565b91506130b382613f3f565b604082019050919050565b60006130cb601e83613909565b91506130d682613f8e565b602082019050919050565b60006130ee603083613909565b91506130f982613fb7565b604082019050919050565b6000613111602783613909565b915061311c82614006565b604082019050919050565b6000613134602183613909565b915061313f82614055565b604082019050919050565b6000613157602583613909565b9150613162826140a4565b604082019050919050565b600061317a602683613909565b9150613185826140f3565b604082019050919050565b600061319d602483613909565b91506131a882614142565b604082019050919050565b60006131c0601d83613909565b91506131cb82614191565b602082019050919050565b60006131e3602a83613909565b91506131ee826141ba565b604082019050919050565b6000613206602583613909565b915061321182614209565b604082019050919050565b6000613229601f83613909565b915061323482614258565b602082019050919050565b604082016000820151613255600085018261328c565b506020820151613268602085018261326e565b50505050565b61327781613a28565b82525050565b61328681613a50565b82525050565b61329581613a5a565b82525050565b6132a481613a5a565b82525050565b6132b381613a6a565b82525050565b60006132c58284612e38565b915081905092915050565b60006132db82612fc9565b91506132e78285612e21565b6020820191506132f78284612e21565b6020820191508190509392505050565b600060208201905061331c6000830184612df4565b92915050565b60006060820190506133376000830186612df4565b6133446020830185612df4565b613351604083018461327d565b949350505050565b600060408201905061336e6000830185612df4565b61337b602083018461327d565b9392505050565b60006020820190506133976000830184612e03565b92915050565b60006020820190506133b26000830184612e12565b92915050565b600060c0820190506133cd6000830189612e12565b6133da6020830188612df4565b6133e76040830187612df4565b6133f4606083018661327d565b613401608083018561327d565b61340e60a083018461327d565b979650505050505050565b600060808201905061342e6000830187612e12565b61343b6020830186612df4565b613448604083018561327d565b613455606083018461327d565b95945050505050565b600060a0820190506134736000830188612e12565b6134806020830187612e12565b61348d6040830186612e12565b61349a606083018561327d565b6134a76080830184612df4565b9695505050505050565b60006080820190506134c66000830187612e12565b6134d360208301866132aa565b6134e06040830185612e12565b6134ed6060830184612e12565b95945050505050565b600060208201905061350b6000830184612e69565b92915050565b6000602082019050818103600083015261352b8184612e78565b905092915050565b6000602082019050818103600083015261354c81612eb1565b9050919050565b6000602082019050818103600083015261356c81612ed4565b9050919050565b6000602082019050818103600083015261358c81612ef7565b9050919050565b600060208201905081810360008301526135ac81612f1a565b9050919050565b600060208201905081810360008301526135cc81612f3d565b9050919050565b600060208201905081810360008301526135ec81612f60565b9050919050565b6000602082019050818103600083015261360c81612f83565b9050919050565b6000602082019050818103600083015261362c81612fa6565b9050919050565b6000602082019050818103600083015261364c81612fec565b9050919050565b6000602082019050818103600083015261366c8161300f565b9050919050565b6000602082019050818103600083015261368c81613032565b9050919050565b600060208201905081810360008301526136ac81613055565b9050919050565b600060208201905081810360008301526136cc81613078565b9050919050565b600060208201905081810360008301526136ec8161309b565b9050919050565b6000602082019050818103600083015261370c816130be565b9050919050565b6000602082019050818103600083015261372c816130e1565b9050919050565b6000602082019050818103600083015261374c81613104565b9050919050565b6000602082019050818103600083015261376c81613127565b9050919050565b6000602082019050818103600083015261378c8161314a565b9050919050565b600060208201905081810360008301526137ac8161316d565b9050919050565b600060208201905081810360008301526137cc81613190565b9050919050565b600060208201905081810360008301526137ec816131b3565b9050919050565b6000602082019050818103600083015261380c816131d6565b9050919050565b6000602082019050818103600083015261382c816131f9565b9050919050565b6000602082019050818103600083015261384c8161321c565b9050919050565b6000604082019050613868600083018461323f565b92915050565b6000602082019050613883600083018461327d565b92915050565b600060408201905061389e600083018561327d565b6138ab602083018461327d565b9392505050565b60006020820190506138c7600083018461329b565b92915050565b60006020820190506138e260008301846132aa565b92915050565b600081519050919050565b600081519050919050565b600081905092915050565b600082825260208201905092915050565b600081905092915050565b600061393082613a50565b915061393b83613a50565b9250827fffffffffffffffffffffffffffffffffffffffffffffffffffffffffffffffff038211156139705761396f613b1c565b5b828201905092915050565b600061398682613a50565b915061399183613a50565b9250826139a1576139a0613b4b565b5b828204905092915050565b60006139b782613a50565b91506139c283613a50565b9250828210156139d5576139d4613b1c565b5b828203905092915050565b60006139eb82613a08565b9050919050565b60008115159050919050565b6000819050919050565b600073ffffffffffffffffffffffffffffffffffffffff82169050919050565b60007bffffffffffffffffffffffffffffffffffffffffffffffffffffffff82169050919050565b6000819050919050565b600063ffffffff82169050919050565b600060ff82169050919050565b6000613a8282613a89565b9050919050565b6000613a9482613a9b565b9050919050565b6000613aa682613a08565b9050919050565b60005b83811015613acb578082015181840152602081019050613ab0565b83811115613ada576000848401525b50505050565b60006002820490506001821680613af857607f821691505b60208210811415613b0c57613b0b613ba9565b5b50919050565b6000819050919050565b7f4e487b7100000000000000000000000000000000000000000000000000000000600052601160045260246000fd5b7f4e487b7100000000000000000000000000000000000000000000000000000000600052601260045260246000fd5b7f4e487b7100000000000000000000000000000000000000000000000000000000600052602160045260246000fd5b7f4e487b7100000000000000000000000000000000000000000000000000000000600052602260045260246000fd5b7f4e487b7100000000000000000000000000000000000000000000000000000000600052603260045260246000fd5b600080fd5b6000601f19601f8301169050919050565b7f45434453413a20696e76616c6964207369676e61747572650000000000000000600082015250565b7f45524332303a207472616e7366657220746f20746865207a65726f206164647260008201527f6573730000000000000000000000000000000000000000000000000000000000602082015250565b7f4552433230566f7465733a20626c6f636b206e6f7420796574206d696e656400600082015250565b7f4552433230566f7465733a207369676e61747572652065787069726564000000600082015250565b7f45524332303a206275726e20616d6f756e7420657863656564732062616c616e60008201527f6365000000000000000000000000000000000000000000000000000000000000602082015250565b7f45434453413a20696e76616c6964207369676e6174757265206c656e67746800600082015250565b7f4552433230566f7465733a20696e76616c6964206e6f6e636500000000000000600082015250565b7f45524332303a20617070726f766520746f20746865207a65726f20616464726560008201527f7373000000000000000000000000000000000000000000000000000000000000602082015250565b7f1901000000000000000000000000000000000000000000000000000000000000600082015250565b7f45524332303a20696e73756666696369656e7420616c6c6f77616e6365000000600082015250565b7f45524332305065726d69743a206578706972656420646561646c696e65000000600082015250565b7f45524332303a207472616e7366657220616d6f756e742065786365656473206260008201527f616c616e63650000000000000000000000000000000000000000000000000000602082015250565b7f45434453413a20696e76616c6964207369676e6174757265202773272076616c60008201527f7565000000000000000000000000000000000000000000000000000000000000602082015250565b7f416464726573733a20696e73756666696369656e742062616c616e636520666f60008201527f722063616c6c0000000000000000000000000000000000000000000000000000602082015250565b7f45434453413a20696e76616c6964207369676e6174757265202776272076616c60008201527f7565000000000000000000000000000000000000000000000000000000000000602082015250565b7f45524332305065726d69743a20696e76616c6964207369676e61747572650000600082015250565b7f4552433230566f7465733a20746f74616c20737570706c79207269736b73206f60008201527f766572666c6f77696e6720766f74657300000000000000000000000000000000602082015250565b7f53616665436173743a2076616c756520646f65736e27742066697420696e203260008201527f3234206269747300000000000000000000000000000000000000000000000000602082015250565b7f45524332303a206275726e2066726f6d20746865207a65726f2061646472657360008201527f7300000000000000000000000000000000000000000000000000000000000000602082015250565b7f45524332303a207472616e736665722066726f6d20746865207a65726f20616460008201527f6472657373000000000000000000000000000000000000000000000000000000602082015250565b7f53616665436173743a2076616c756520646f65736e27742066697420696e203360008201527f3220626974730000000000000000000000000000000000000000000000000000602082015250565b7f45524332303a20617070726f76652066726f6d20746865207a65726f2061646460008201527f7265737300000000000000000000000000000000000000000000000000000000602082015250565b7f416464726573733a2063616c6c20746f206e6f6e2d636f6e7472616374000000600082015250565b7f5361666545524332303a204552433230206f7065726174696f6e20646964206e60008201527f6f74207375636365656400000000000000000000000000000000000000000000602082015250565b7f45524332303a2064656372656173656420616c6c6f77616e63652062656c6f7760008201527f207a65726f000000000000000000000000000000000000000000000000000000602082015250565b7f45524332303a206d696e7420746f20746865207a65726f206164647265737300600082015250565b61428a816139e0565b811461429557600080fd5b50565b6142a1816139f2565b81146142ac57600080fd5b50565b6142b8816139fe565b81146142c357600080fd5b50565b6142cf81613a50565b81146142da57600080fd5b50565b6142e681613a5a565b81146142f157600080fd5b50565b6142fd81613a6a565b811461430857600080fd5b5056fea2646970667358221220d20bdaebe1d7c822fc8bddd8272fe628d82ba65080f4ca9b1359f374e28231b064736f6c63430008070033",
  "linkReferences": {},
  "deployedLinkReferences": {}
}