{
  "_format": "hh-sol-artifact-1",
  "contractName": "GovernorContract",
  "sourceName": "contracts/governance_standard/GovernorContract.sol",
  "abi": [
    {
      "inputs": [
        {
          "internalType": "contract IVotes",
          "name": "_token",
          "type": "address"
        },
        {
          "internalType": "contract TimelockController",
          "name": "_timelock",
          "type": "address"
        },
        {
          "internalType": "uint256",
          "name": "_quorumPercentage",
          "type": "uint256"
        },
        {
          "internalType": "uint256",
          "name": "_votingPeriod",
          "type": "uint256"
        },
        {
          "internalType": "uint256",
          "name": "_votingDelay",
          "type": "uint256"
        }
      ],
      "stateMutability": "nonpayable",
      "type": "constructor"
    },
    {
      "anonymous": false,
      "inputs": [
        {
          "indexed": false,
          "internalType": "uint256",
          "name": "proposalId",
          "type": "uint256"
        }
      ],
      "name": "ProposalCanceled",
      "type": "event"
    },
    {
      "anonymous": false,
      "inputs": [
        {
          "indexed": false,
          "internalType": "uint256",
          "name": "proposalId",
          "type": "uint256"
        },
        {
          "indexed": false,
          "internalType": "address",
          "name": "proposer",
          "type": "address"
        },
        {
          "indexed": false,
          "internalType": "address[]",
          "name": "targets",
          "type": "address[]"
        },
        {
          "indexed": false,
          "internalType": "uint256[]",
          "name": "values",
          "type": "uint256[]"
        },
        {
          "indexed": false,
          "internalType": "string[]",
          "name": "signatures",
          "type": "string[]"
        },
        {
          "indexed": false,
          "internalType": "bytes[]",
          "name": "calldatas",
          "type": "bytes[]"
        },
        {
          "indexed": false,
          "internalType": "uint256",
          "name": "startBlock",
          "type": "uint256"
        },
        {
          "indexed": false,
          "internalType": "uint256",
          "name": "endBlock",
          "type": "uint256"
        },
        {
          "indexed": false,
          "internalType": "string",
          "name": "description",
          "type": "string"
        }
      ],
      "name": "ProposalCreated",
      "type": "event"
    },
    {
      "anonymous": false,
      "inputs": [
        {
          "indexed": false,
          "internalType": "uint256",
          "name": "proposalId",
          "type": "uint256"
        }
      ],
      "name": "ProposalExecuted",
      "type": "event"
    },
    {
      "anonymous": false,
      "inputs": [
        {
          "indexed": false,
          "internalType": "uint256",
          "name": "proposalId",
          "type": "uint256"
        },
        {
          "indexed": false,
          "internalType": "uint256",
          "name": "eta",
          "type": "uint256"
        }
      ],
      "name": "ProposalQueued",
      "type": "event"
    },
    {
      "anonymous": false,
      "inputs": [
        {
          "indexed": false,
          "internalType": "uint256",
          "name": "oldQuorumNumerator",
          "type": "uint256"
        },
        {
          "indexed": false,
          "internalType": "uint256",
          "name": "newQuorumNumerator",
          "type": "uint256"
        }
      ],
      "name": "QuorumNumeratorUpdated",
      "type": "event"
    },
    {
      "anonymous": false,
      "inputs": [
        {
          "indexed": false,
          "internalType": "address",
          "name": "oldTimelock",
          "type": "address"
        },
        {
          "indexed": false,
          "internalType": "address",
          "name": "newTimelock",
          "type": "address"
        }
      ],
      "name": "TimelockChange",
      "type": "event"
    },
    {
      "anonymous": false,
      "inputs": [
        {
          "indexed": true,
          "internalType": "address",
          "name": "voter",
          "type": "address"
        },
        {
          "indexed": false,
          "internalType": "uint256",
          "name": "proposalId",
          "type": "uint256"
        },
        {
          "indexed": false,
          "internalType": "uint8",
          "name": "support",
          "type": "uint8"
        },
        {
          "indexed": false,
          "internalType": "uint256",
          "name": "weight",
          "type": "uint256"
        },
        {
          "indexed": false,
          "internalType": "string",
          "name": "reason",
          "type": "string"
        }
      ],
      "name": "VoteCast",
      "type": "event"
    },
    {
      "inputs": [],
      "name": "BALLOT_TYPEHASH",
      "outputs": [
        {
          "internalType": "bytes32",
          "name": "",
          "type": "bytes32"
        }
      ],
      "stateMutability": "view",
      "type": "function"
    },
    {
      "inputs": [],
      "name": "COUNTING_MODE",
      "outputs": [
        {
          "internalType": "string",
          "name": "",
          "type": "string"
        }
      ],
      "stateMutability": "pure",
      "type": "function"
    },
    {
      "inputs": [
        {
          "internalType": "uint256",
          "name": "proposalId",
          "type": "uint256"
        },
        {
          "internalType": "uint8",
          "name": "support",
          "type": "uint8"
        }
      ],
      "name": "castVote",
      "outputs": [
        {
          "internalType": "uint256",
          "name": "",
          "type": "uint256"
        }
      ],
      "stateMutability": "nonpayable",
      "type": "function"
    },
    {
      "inputs": [
        {
          "internalType": "uint256",
          "name": "proposalId",
          "type": "uint256"
        },
        {
          "internalType": "uint8",
          "name": "support",
          "type": "uint8"
        },
        {
          "internalType": "uint8",
          "name": "v",
          "type": "uint8"
        },
        {
          "internalType": "bytes32",
          "name": "r",
          "type": "bytes32"
        },
        {
          "internalType": "bytes32",
          "name": "s",
          "type": "bytes32"
        }
      ],
      "name": "castVoteBySig",
      "outputs": [
        {
          "internalType": "uint256",
          "name": "",
          "type": "uint256"
        }
      ],
      "stateMutability": "nonpayable",
      "type": "function"
    },
    {
      "inputs": [
        {
          "internalType": "uint256",
          "name": "proposalId",
          "type": "uint256"
        },
        {
          "internalType": "uint8",
          "name": "support",
          "type": "uint8"
        },
        {
          "internalType": "string",
          "name": "reason",
          "type": "string"
        }
      ],
      "name": "castVoteWithReason",
      "outputs": [
        {
          "internalType": "uint256",
          "name": "",
          "type": "uint256"
        }
      ],
      "stateMutability": "nonpayable",
      "type": "function"
    },
    {
      "inputs": [
        {
          "internalType": "address[]",
          "name": "targets",
          "type": "address[]"
        },
        {
          "internalType": "uint256[]",
          "name": "values",
          "type": "uint256[]"
        },
        {
          "internalType": "bytes[]",
          "name": "calldatas",
          "type": "bytes[]"
        },
        {
          "internalType": "bytes32",
          "name": "descriptionHash",
          "type": "bytes32"
        }
      ],
      "name": "execute",
      "outputs": [
        {
          "internalType": "uint256",
          "name": "",
          "type": "uint256"
        }
      ],
      "stateMutability": "payable",
      "type": "function"
    },
    {
      "inputs": [
        {
          "internalType": "address",
          "name": "account",
          "type": "address"
        },
        {
          "internalType": "uint256",
          "name": "blockNumber",
          "type": "uint256"
        }
      ],
      "name": "getVotes",
      "outputs": [
        {
          "internalType": "uint256",
          "name": "",
          "type": "uint256"
        }
      ],
      "stateMutability": "view",
      "type": "function"
    },
    {
      "inputs": [
        {
          "internalType": "uint256",
          "name": "proposalId",
          "type": "uint256"
        },
        {
          "internalType": "address",
          "name": "account",
          "type": "address"
        }
      ],
      "name": "hasVoted",
      "outputs": [
        {
          "internalType": "bool",
          "name": "",
          "type": "bool"
        }
      ],
      "stateMutability": "view",
      "type": "function"
    },
    {
      "inputs": [
        {
          "internalType": "address[]",
          "name": "targets",
          "type": "address[]"
        },
        {
          "internalType": "uint256[]",
          "name": "values",
          "type": "uint256[]"
        },
        {
          "internalType": "bytes[]",
          "name": "calldatas",
          "type": "bytes[]"
        },
        {
          "internalType": "bytes32",
          "name": "descriptionHash",
          "type": "bytes32"
        }
      ],
      "name": "hashProposal",
      "outputs": [
        {
          "internalType": "uint256",
          "name": "",
          "type": "uint256"
        }
      ],
      "stateMutability": "pure",
      "type": "function"
    },
    {
      "inputs": [],
      "name": "name",
      "outputs": [
        {
          "internalType": "string",
          "name": "",
          "type": "string"
        }
      ],
      "stateMutability": "view",
      "type": "function"
    },
    {
      "inputs": [
        {
          "internalType": "uint256",
          "name": "proposalId",
          "type": "uint256"
        }
      ],
      "name": "proposalDeadline",
      "outputs": [
        {
          "internalType": "uint256",
          "name": "",
          "type": "uint256"
        }
      ],
      "stateMutability": "view",
      "type": "function"
    },
    {
      "inputs": [
        {
          "internalType": "uint256",
          "name": "proposalId",
          "type": "uint256"
        }
      ],
      "name": "proposalEta",
      "outputs": [
        {
          "internalType": "uint256",
          "name": "",
          "type": "uint256"
        }
      ],
      "stateMutability": "view",
      "type": "function"
    },
    {
      "inputs": [
        {
          "internalType": "uint256",
          "name": "proposalId",
          "type": "uint256"
        }
      ],
      "name": "proposalSnapshot",
      "outputs": [
        {
          "internalType": "uint256",
          "name": "",
          "type": "uint256"
        }
      ],
      "stateMutability": "view",
      "type": "function"
    },
    {
      "inputs": [],
      "name": "proposalThreshold",
      "outputs": [
        {
          "internalType": "uint256",
          "name": "",
          "type": "uint256"
        }
      ],
      "stateMutability": "view",
      "type": "function"
    },
    {
      "inputs": [
        {
          "internalType": "uint256",
          "name": "proposalId",
          "type": "uint256"
        }
      ],
      "name": "proposalVotes",
      "outputs": [
        {
          "internalType": "uint256",
          "name": "againstVotes",
          "type": "uint256"
        },
        {
          "internalType": "uint256",
          "name": "forVotes",
          "type": "uint256"
        },
        {
          "internalType": "uint256",
          "name": "abstainVotes",
          "type": "uint256"
        }
      ],
      "stateMutability": "view",
      "type": "function"
    },
    {
      "inputs": [
        {
          "internalType": "address[]",
          "name": "targets",
          "type": "address[]"
        },
        {
          "internalType": "uint256[]",
          "name": "values",
          "type": "uint256[]"
        },
        {
          "internalType": "bytes[]",
          "name": "calldatas",
          "type": "bytes[]"
        },
        {
          "internalType": "string",
          "name": "description",
          "type": "string"
        }
      ],
      "name": "propose",
      "outputs": [
        {
          "internalType": "uint256",
          "name": "",
          "type": "uint256"
        }
      ],
      "stateMutability": "nonpayable",
      "type": "function"
    },
    {
      "inputs": [
        {
          "internalType": "address[]",
          "name": "targets",
          "type": "address[]"
        },
        {
          "internalType": "uint256[]",
          "name": "values",
          "type": "uint256[]"
        },
        {
          "internalType": "bytes[]",
          "name": "calldatas",
          "type": "bytes[]"
        },
        {
          "internalType": "bytes32",
          "name": "descriptionHash",
          "type": "bytes32"
        }
      ],
      "name": "queue",
      "outputs": [
        {
          "internalType": "uint256",
          "name": "",
          "type": "uint256"
        }
      ],
      "stateMutability": "nonpayable",
      "type": "function"
    },
    {
      "inputs": [
        {
          "internalType": "uint256",
          "name": "blockNumber",
          "type": "uint256"
        }
      ],
      "name": "quorum",
      "outputs": [
        {
          "internalType": "uint256",
          "name": "",
          "type": "uint256"
        }
      ],
      "stateMutability": "view",
      "type": "function"
    },
    {
      "inputs": [],
      "name": "quorumDenominator",
      "outputs": [
        {
          "internalType": "uint256",
          "name": "",
          "type": "uint256"
        }
      ],
      "stateMutability": "view",
      "type": "function"
    },
    {
      "inputs": [],
      "name": "quorumNumerator",
      "outputs": [
        {
          "internalType": "uint256",
          "name": "",
          "type": "uint256"
        }
      ],
      "stateMutability": "view",
      "type": "function"
    },
    {
      "inputs": [
        {
          "internalType": "address",
          "name": "target",
          "type": "address"
        },
        {
          "internalType": "uint256",
          "name": "value",
          "type": "uint256"
        },
        {
          "internalType": "bytes",
          "name": "data",
          "type": "bytes"
        }
      ],
      "name": "relay",
      "outputs": [],
      "stateMutability": "nonpayable",
      "type": "function"
    },
    {
      "inputs": [],
      "name": "s_votingDelay",
      "outputs": [
        {
          "internalType": "uint256",
          "name": "",
          "type": "uint256"
        }
      ],
      "stateMutability": "view",
      "type": "function"
    },
    {
      "inputs": [],
      "name": "s_votingPeriod",
      "outputs": [
        {
          "internalType": "uint256",
          "name": "",
          "type": "uint256"
        }
      ],
      "stateMutability": "view",
      "type": "function"
    },
    {
      "inputs": [
        {
          "internalType": "uint256",
          "name": "proposalId",
          "type": "uint256"
        }
      ],
      "name": "state",
      "outputs": [
        {
          "internalType": "enum IGovernor.ProposalState",
          "name": "",
          "type": "uint8"
        }
      ],
      "stateMutability": "view",
      "type": "function"
    },
    {
      "inputs": [
        {
          "internalType": "bytes4",
          "name": "interfaceId",
          "type": "bytes4"
        }
      ],
      "name": "supportsInterface",
      "outputs": [
        {
          "internalType": "bool",
          "name": "",
          "type": "bool"
        }
      ],
      "stateMutability": "view",
      "type": "function"
    },
    {
      "inputs": [],
      "name": "timelock",
      "outputs": [
        {
          "internalType": "address",
          "name": "",
          "type": "address"
        }
      ],
      "stateMutability": "view",
      "type": "function"
    },
    {
      "inputs": [],
      "name": "token",
      "outputs": [
        {
          "internalType": "contract IVotes",
          "name": "",
          "type": "address"
        }
      ],
      "stateMutability": "view",
      "type": "function"
    },
    {
      "inputs": [
        {
          "internalType": "uint256",
          "name": "newQuorumNumerator",
          "type": "uint256"
        }
      ],
      "name": "updateQuorumNumerator",
      "outputs": [],
      "stateMutability": "nonpayable",
      "type": "function"
    },
    {
      "inputs": [
        {
          "internalType": "contract TimelockController",
          "name": "newTimelock",
          "type": "address"
        }
      ],
      "name": "updateTimelock",
      "outputs": [],
      "stateMutability": "nonpayable",
      "type": "function"
    },
    {
      "inputs": [],
      "name": "version",
      "outputs": [
        {
          "internalType": "string",
          "name": "",
          "type": "string"
        }
      ],
      "stateMutability": "view",
      "type": "function"
    },
    {
      "inputs": [],
      "name": "votingDelay",
      "outputs": [
        {
          "internalType": "uint256",
          "name": "",
          "type": "uint256"
        }
      ],
      "stateMutability": "view",
      "type": "function"
    },
    {
      "inputs": [],
      "name": "votingPeriod",
      "outputs": [
        {
          "internalType": "uint256",
          "name": "",
          "type": "uint256"
        }
      ],
      "stateMutability": "view",
      "type": "function"
    },
    {
      "stateMutability": "payable",
      "type": "receive"
    }
  ],
  "bytecode": "0x6101606040523480156200001257600080fd5b506040516200561138038062005611833981810160405281019062000038919062000481565b8383866040518060400160405280601081526020017f476f7665726e6f72436f6e7472616374000000000000000000000000000000008152508062000082620001c760201b60201c565b60008280519060200120905060008280519060200120905060007f8b73c3c69bb8fe3d512ecc4cf759cc79239f7b179b0ffacaa9a75d522b39400f90508260e081815250508161010081815250504660a08181525050620000eb8184846200020460201b60201c565b608081815250503073ffffffffffffffffffffffffffffffffffffffff1660c08173ffffffffffffffffffffffffffffffffffffffff1660601b81525050806101208181525050505050505080600090805190602001906200014f9291906200038c565b50508073ffffffffffffffffffffffffffffffffffffffff166101408173ffffffffffffffffffffffffffffffffffffffff1660601b81525050506200019b816200024060201b60201c565b50620001ad81620002e260201b60201c565b5080600681905550816007819055505050505050620007fe565b60606040518060400160405280600181526020017f3100000000000000000000000000000000000000000000000000000000000000815250905090565b600083838346306040516020016200022195949392919062000590565b6040516020818303038152906040528051906020012090509392505050565b620002506200038360201b60201c565b81111562000295576040517f08c379a00000000000000000000000000000000000000000000000000000000081526004016200028c90620005ed565b60405180910390fd5b60006003549050816003819055507f0553476bf02ef2726e8ce5ced78d63e26e602e4a2257b1f559418e24b46339978183604051620002d69291906200060f565b60405180910390a15050565b7f08f74ea46ef7894f65eabfb5e6e695de773a000b47c529ab559178069b226401600460009054906101000a900473ffffffffffffffffffffffffffffffffffffffff16826040516200033792919062000563565b60405180910390a180600460006101000a81548173ffffffffffffffffffffffffffffffffffffffff021916908373ffffffffffffffffffffffffffffffffffffffff16021790555050565b60006064905090565b8280546200039a90620006d1565b90600052602060002090601f016020900481019282620003be57600085556200040a565b82601f10620003d957805160ff19168380011785556200040a565b828001600101855582156200040a579182015b8281111562000409578251825591602001919060010190620003ec565b5b5090506200041991906200041d565b5090565b5b80821115620004385760008160009055506001016200041e565b5090565b6000815190506200044d81620007b0565b92915050565b6000815190506200046481620007ca565b92915050565b6000815190506200047b81620007e4565b92915050565b600080600080600060a08688031215620004a0576200049f62000736565b5b6000620004b0888289016200043c565b9550506020620004c38882890162000453565b9450506040620004d6888289016200046a565b9350506060620004e9888289016200046a565b9250506080620004fc888289016200046a565b9150509295509295909350565b62000514816200064d565b82525050565b620005258162000675565b82525050565b60006200053a6043836200063c565b915062000547826200073b565b606082019050919050565b6200055d81620006c7565b82525050565b60006040820190506200057a600083018562000509565b62000589602083018462000509565b9392505050565b600060a082019050620005a760008301886200051a565b620005b660208301876200051a565b620005c560408301866200051a565b620005d4606083018562000552565b620005e3608083018462000509565b9695505050505050565b6000602082019050818103600083015262000608816200052b565b9050919050565b600060408201905062000626600083018562000552565b62000635602083018462000552565b9392505050565b600082825260208201905092915050565b60006200065a82620006a7565b9050919050565b60006200066e82620006a7565b9050919050565b6000819050919050565b60006200068c826200064d565b9050919050565b6000620006a08262000661565b9050919050565b600073ffffffffffffffffffffffffffffffffffffffff82169050919050565b6000819050919050565b60006002820490506001821680620006ea57607f821691505b6020821081141562000701576200070062000707565b5b50919050565b7f4e487b7100000000000000000000000000000000000000000000000000000000600052602260045260246000fd5b600080fd5b7f476f7665726e6f72566f74657351756f72756d4672616374696f6e3a2071756f60008201527f72756d4e756d657261746f72206f7665722071756f72756d44656e6f6d696e6160208201527f746f720000000000000000000000000000000000000000000000000000000000604082015250565b620007bb816200067f565b8114620007c757600080fd5b50565b620007d58162000693565b8114620007e157600080fd5b50565b620007ef81620006c7565b8114620007fb57600080fd5b50565b60805160a05160c05160601c60e05161010051610120516101405160601c614da46200086d6000396000818161144d01528181611d2f0152611df40152600061207c015260006120be0152600061209d01526000611fd201526000612028015260006120510152614da46000f3fe6080604052600436106101e75760003560e01c80637b3c71d311610102578063c28bc2fa11610095578063deaaa7cc11610064578063deaaa7cc146107d1578063eb9019d4146107fc578063f8ce560a14610839578063fc0c546a146108765761022d565b8063c28bc2fa14610715578063c59057e41461073e578063d33219b41461077b578063dd4e2ba5146107a65761022d565b8063a890c910116100d1578063a890c91014610647578063ab58fb8e14610670578063b58131b0146106ad578063c01f9e37146106d85761022d565b80637b3c71d3146105775780637d5e81e2146105b457806397c3d334146105f1578063a7713a701461061c5761022d565b80633932abb11161017a578063544ffc9c11610149578063544ffc9c146104a557806354fd4d50146104e4578063567813881461050f578063725ae3dc1461054c5761022d565b80633932abb1146103c35780633bccf4fd146103ee5780633e4f49e61461042b57806343859632146104685761022d565b8063102d7f2c116101b6578063102d7f2c146102ee578063160cbed7146103195780632656227d146103565780632d63f693146103865761022d565b806301ffc9a71461023257806302a251a31461026f57806306f3f9e61461029a57806306fdde03146102c35761022d565b3661022d573073ffffffffffffffffffffffffffffffffffffffff1661020b6108a1565b73ffffffffffffffffffffffffffffffffffffffff161461022b57600080fd5b005b600080fd5b34801561023e57600080fd5b506102596004803603810190610254919061314d565b6108b0565b6040516102669190613b92565b60405180910390f35b34801561027b57600080fd5b506102846108c2565b6040516102919190613f2f565b60405180910390f35b3480156102a657600080fd5b506102c160048036038101906102bc91906131a7565b6108cc565b005b3480156102cf57600080fd5b506102d8610954565b6040516102e59190613ccd565b60405180910390f35b3480156102fa57600080fd5b506103036109e6565b6040516103109190613f2f565b60405180910390f35b34801561032557600080fd5b50610340600480360381019061033b9190612f61565b6109ec565b60405161034d9190613f2f565b60405180910390f35b610370600480360381019061036b9190612f61565b610cc4565b60405161037d9190613f2f565b60405180910390f35b34801561039257600080fd5b506103ad60048036038101906103a891906131a7565b610df7565b6040516103ba9190613f2f565b60405180910390f35b3480156103cf57600080fd5b506103d8610e65565b6040516103e59190613f2f565b60405180910390f35b3480156103fa57600080fd5b50610415600480360381019061041091906132f5565b610e6f565b6040516104229190613f2f565b60405180910390f35b34801561043757600080fd5b50610452600480360381019061044d91906131a7565b610ef9565b60405161045f9190613cb2565b60405180910390f35b34801561047457600080fd5b5061048f600480360381019061048a9190613201565b610f0b565b60405161049c9190613b92565b60405180910390f35b3480156104b157600080fd5b506104cc60048036038101906104c791906131a7565b610f76565b6040516104db93929190614023565b60405180910390f35b3480156104f057600080fd5b506104f9610fae565b6040516105069190613ccd565b60405180910390f35b34801561051b57600080fd5b5061053660048036038101906105319190613241565b610feb565b6040516105439190613f2f565b60405180910390f35b34801561055857600080fd5b5061056161101c565b60405161056e9190613f2f565b60405180910390f35b34801561058357600080fd5b5061059e60048036038101906105999190613281565b611022565b6040516105ab9190613f2f565b60405180910390f35b3480156105c057600080fd5b506105db60048036038101906105d6919061301c565b61108a565b6040516105e89190613f2f565b60405180910390f35b3480156105fd57600080fd5b506106066110a2565b6040516106139190613f2f565b60405180910390f35b34801561062857600080fd5b506106316110ab565b60405161063e9190613f2f565b60405180910390f35b34801561065357600080fd5b5061066e6004803603810190610669919061317a565b6110b5565b005b34801561067c57600080fd5b50610697600480360381019061069291906131a7565b61113d565b6040516106a49190613f2f565b60405180910390f35b3480156106b957600080fd5b506106c2611219565b6040516106cf9190613f2f565b60405180910390f35b3480156106e457600080fd5b506106ff60048036038101906106fa91906131a7565b61121e565b60405161070c9190613f2f565b60405180910390f35b34801561072157600080fd5b5061073c60048036038101906107379190612eed565b61128c565b005b34801561074a57600080fd5b5061076560048036038101906107609190612f61565b61135e565b6040516107729190613f2f565b60405180910390f35b34801561078757600080fd5b5061079061139a565b60405161079d91906139ed565b60405180910390f35b3480156107b257600080fd5b506107bb6113c4565b6040516107c89190613ccd565b60405180910390f35b3480156107dd57600080fd5b506107e6611401565b6040516107f39190613bad565b60405180910390f35b34801561080857600080fd5b50610823600480360381019061081e9190612ead565b611425565b6040516108309190613f2f565b60405180910390f35b34801561084557600080fd5b50610860600480360381019061085b91906131a7565b611439565b60405161086d9190613f2f565b60405180910390f35b34801561088257600080fd5b5061088b61144b565b6040516108989190613c97565b60405180910390f35b60006108ab61146f565b905090565b60006108bb82611499565b9050919050565b6000600754905090565b6108d46108a1565b73ffffffffffffffffffffffffffffffffffffffff166108f2611513565b73ffffffffffffffffffffffffffffffffffffffff1614610948576040517f08c379a000000000000000000000000000000000000000000000000000000000815260040161093f90613d0f565b60405180910390fd5b6109518161151b565b50565b606060008054610963906145dd565b80601f016020809104026020016040519081016040528092919081815260200182805461098f906145dd565b80156109dc5780601f106109b1576101008083540402835291602001916109dc565b820191906000526020600020905b8154815290600101906020018083116109bf57829003601f168201915b5050505050905090565b60065481565b6000806109fb8686868661135e565b905060046007811115610a1157610a106146a8565b5b610a1a82610ef9565b6007811115610a2c57610a2b6146a8565b5b14610a6c576040517f08c379a0000000000000000000000000000000000000000000000000000000008152600401610a6390613e8f565b60405180910390fd5b6000600460009054906101000a900473ffffffffffffffffffffffffffffffffffffffff1673ffffffffffffffffffffffffffffffffffffffff1663f27a0c926040518163ffffffff1660e01b815260040160206040518083038186803b158015610ad657600080fd5b505afa158015610aea573d6000803e3d6000fd5b505050506040513d601f19601f82011682018060405250810190610b0e91906131d4565b9050600460009054906101000a900473ffffffffffffffffffffffffffffffffffffffff1673ffffffffffffffffffffffffffffffffffffffff1663b1c5f4278888886000896040518663ffffffff1660e01b8152600401610b74959493929190613ab4565b60206040518083038186803b158015610b8c57600080fd5b505afa158015610ba0573d6000803e3d6000fd5b505050506040513d601f19601f82011682018060405250810190610bc49190613120565b6005600084815260200190815260200160002081905550600460009054906101000a900473ffffffffffffffffffffffffffffffffffffffff1673ffffffffffffffffffffffffffffffffffffffff16638f2a0bb0888888600089876040518763ffffffff1660e01b8152600401610c4196959493929190613b1c565b600060405180830381600087803b158015610c5b57600080fd5b505af1158015610c6f573d6000803e3d6000fd5b505050507f9a2e42fd6722813d69113e7d0079d3d940171428df7373df9c7f7617cfda2892828242610ca191906142f4565b604051610caf929190613ffa565b60405180910390a18192505050949350505050565b600080610cd38686868661135e565b90506000610ce082610ef9565b905060046007811115610cf657610cf56146a8565b5b816007811115610d0957610d086146a8565b5b1480610d39575060056007811115610d2457610d236146a8565b5b816007811115610d3757610d366146a8565b5b145b610d78576040517f08c379a0000000000000000000000000000000000000000000000000000000008152600401610d6f90613e8f565b60405180910390fd5b600180600084815260200190815260200160002060020160006101000a81548160ff0219169083151502179055507f712ae1383f79ac853f8d882153778e0260ef8f03b504e2866e0593e04d2b291f82604051610dd59190613f2f565b60405180910390a1610dea82888888886115b0565b8192505050949350505050565b6000610e54600160008481526020019081526020016000206000016040518060200160405290816000820160009054906101000a900467ffffffffffffffff1667ffffffffffffffff1667ffffffffffffffff16815250506115c4565b67ffffffffffffffff169050919050565b6000600654905090565b600080610ed0610ec87f150214d74d59b7d1e90c73fc22ef3d991dd0a76b046543d4d80ab92d2a50328f8989604051602001610ead93929190613c1b565b604051602081830303815290604052805190602001206115d2565b8686866115ec565b9050610eed87828860405180602001604052806000815250611617565b91505095945050505050565b6000610f048261176b565b9050919050565b60006002600084815260200190815260200160002060030160008373ffffffffffffffffffffffffffffffffffffffff1673ffffffffffffffffffffffffffffffffffffffff16815260200190815260200160002060009054906101000a900460ff16905092915050565b600080600080600260008681526020019081526020016000209050806000015481600101548260020154935093509350509193909250565b60606040518060400160405280600181526020017f3100000000000000000000000000000000000000000000000000000000000000815250905090565b600080610ff6611513565b905061101384828560405180602001604052806000815250611617565b91505092915050565b60075481565b60008061102d611513565b905061107f86828787878080601f016020809104026020016040519081016040528093929190818152602001838380828437600081840152601f19601f82011690508083019250505050505050611617565b915050949350505050565b60006110988585858561195d565b9050949350505050565b60006064905090565b6000600354905090565b6110bd6108a1565b73ffffffffffffffffffffffffffffffffffffffff166110db611513565b73ffffffffffffffffffffffffffffffffffffffff1614611131576040517f08c379a000000000000000000000000000000000000000000000000000000000815260040161112890613d0f565b60405180910390fd5b61113a81611c5d565b50565b600080600460009054906101000a900473ffffffffffffffffffffffffffffffffffffffff1673ffffffffffffffffffffffffffffffffffffffff1663d45c443560056000868152602001908152602001600020546040518263ffffffff1660e01b81526004016111ae9190613bad565b60206040518083038186803b1580156111c657600080fd5b505afa1580156111da573d6000803e3d6000fd5b505050506040513d601f19601f820116820180604052508101906111fe91906131d4565b90506001811461120e5780611211565b60005b915050919050565b600090565b600061127b600160008481526020019081526020016000206001016040518060200160405290816000820160009054906101000a900467ffffffffffffffff1667ffffffffffffffff1667ffffffffffffffff16815250506115c4565b67ffffffffffffffff169050919050565b6112946108a1565b73ffffffffffffffffffffffffffffffffffffffff166112b2611513565b73ffffffffffffffffffffffffffffffffffffffff1614611308576040517f08c379a00000000000000000000000000000000000000000000000000000000081526004016112ff90613d0f565b60405180910390fd5b6113578483838080601f016020809104026020016040519081016040528093929190818152602001838380828437600081840152601f19601f8201169050808301925050505050505085611cfc565b5050505050565b6000848484846040516020016113779493929190613a5a565b6040516020818303038152906040528051906020012060001c9050949350505050565b6000600460009054906101000a900473ffffffffffffffffffffffffffffffffffffffff16905090565b60606040518060400160405280602081526020017f737570706f72743d627261766f2671756f72756d3d666f722c6162737461696e815250905090565b7f150214d74d59b7d1e90c73fc22ef3d991dd0a76b046543d4d80ab92d2a50328f81565b60006114318383611d2b565b905092915050565b600061144482611de0565b9050919050565b7f000000000000000000000000000000000000000000000000000000000000000081565b6000600460009054906101000a900473ffffffffffffffffffffffffffffffffffffffff16905090565b60007f6e665ced000000000000000000000000000000000000000000000000000000007bffffffffffffffffffffffffffffffffffffffffffffffffffffffff1916827bffffffffffffffffffffffffffffffffffffffffffffffffffffffff1916148061150c575061150b82611eb6565b5b9050919050565b600033905090565b6115236110a2565b811115611565576040517f08c379a000000000000000000000000000000000000000000000000000000000815260040161155c90613d2f565b60405180910390fd5b60006003549050816003819055507f0553476bf02ef2726e8ce5ced78d63e26e602e4a2257b1f559418e24b463399781836040516115a4929190613ffa565b60405180910390a15050565b6115bd8585858585611f30565b5050505050565b600081600001519050919050565b60006115e56115df611fce565b836120e8565b9050919050565b60008060006115fd8787878761211b565b9150915061160a81612228565b8192505050949350505050565b60008060016000878152602001908152602001600020905060016007811115611643576116426146a8565b5b61164c87610ef9565b600781111561165e5761165d6146a8565b5b1461169e576040517f08c379a000000000000000000000000000000000000000000000000000000000815260040161169590613e0f565b60405180910390fd5b60006116fc866116ed846000016040518060200160405290816000820160009054906101000a900467ffffffffffffffff1667ffffffffffffffff1667ffffffffffffffff16815250506115c4565b67ffffffffffffffff16611425565b905061170a878787846123fd565b8573ffffffffffffffffffffffffffffffffffffffff167fb8e138887d0aa13bab447e82de9d5c1777041ecd21ca36ba824ff1e6c07ddda488878488604051611756949392919061405a565b60405180910390a28092505050949350505050565b60008061177783612603565b90506004600781111561178d5761178c6146a8565b5b8160078111156117a05761179f6146a8565b5b146117ae5780915050611958565b6000600560008581526020019081526020016000205490506000801b8114156117db578192505050611958565b600460009054906101000a900473ffffffffffffffffffffffffffffffffffffffff1673ffffffffffffffffffffffffffffffffffffffff16632ab0f529826040518263ffffffff1660e01b81526004016118369190613bad565b60206040518083038186803b15801561184e57600080fd5b505afa158015611862573d6000803e3d6000fd5b505050506040513d601f19601f8201168201806040525081019061188691906130f3565b1561189657600792505050611958565b600460009054906101000a900473ffffffffffffffffffffffffffffffffffffffff1673ffffffffffffffffffffffffffffffffffffffff1663584b153e826040518263ffffffff1660e01b81526004016118f19190613bad565b60206040518083038186803b15801561190957600080fd5b505afa15801561191d573d6000803e3d6000fd5b505050506040513d601f19601f8201168201806040525081019061194191906130f3565b1561195157600592505050611958565b6002925050505b919050565b6000611967611219565b61197d336001436119789190614413565b611425565b10156119be576040517f08c379a00000000000000000000000000000000000000000000000000000000081526004016119b590613d4f565b60405180910390fd5b60006119d3868686868051906020012061135e565b90508451865114611a19576040517f08c379a0000000000000000000000000000000000000000000000000000000008152600401611a1090613d8f565b60405180910390fd5b8351865114611a5d576040517f08c379a0000000000000000000000000000000000000000000000000000000008152600401611a5490613d8f565b60405180910390fd5b6000865111611aa1576040517f08c379a0000000000000000000000000000000000000000000000000000000008152600401611a9890613e2f565b60405180910390fd5b6000600160008381526020019081526020016000209050611b01816000016040518060200160405290816000820160009054906101000a900467ffffffffffffffff1667ffffffffffffffff1667ffffffffffffffff1681525050612718565b611b40576040517f08c379a0000000000000000000000000000000000000000000000000000000008152600401611b3790613eef565b60405180910390fd5b6000611b52611b4d610e65565b612732565b611b5b43612732565b611b65919061434a565b90506000611b79611b746108c2565b612732565b82611b84919061434a565b9050611b9c828460000161278990919063ffffffff16565b611bb2818460010161278990919063ffffffff16565b7f7d84a6263ae0d98d3329bd7b46bb4e8d6f98cd35a7adb45c274c8b7fd5ebd5e084611bdc611513565b8b8b8d5167ffffffffffffffff811115611bf957611bf8614706565b5b604051908082528060200260200182016040528015611c2c57816020015b6060815260200190600190039081611c175790505b508c88888e604051611c4699989796959493929190613f4a565b60405180910390a183945050505050949350505050565b7f08f74ea46ef7894f65eabfb5e6e695de773a000b47c529ab559178069b226401600460009054906101000a900473ffffffffffffffffffffffffffffffffffffffff1682604051611cb0929190613a08565b60405180910390a180600460006101000a81548173ffffffffffffffffffffffffffffffffffffffff021916908373ffffffffffffffffffffffffffffffffffffffff16021790555050565b6060611d22848484604051806060016040528060298152602001614d46602991396127b8565b90509392505050565b60007f000000000000000000000000000000000000000000000000000000000000000073ffffffffffffffffffffffffffffffffffffffff16633a46b1a884846040518363ffffffff1660e01b8152600401611d88929190613a31565b60206040518083038186803b158015611da057600080fd5b505afa158015611db4573d6000803e3d6000fd5b505050506040513d601f19601f82011682018060405250810190611dd891906131d4565b905092915050565b6000611dea6110a2565b611df26110ab565b7f000000000000000000000000000000000000000000000000000000000000000073ffffffffffffffffffffffffffffffffffffffff16638e539e8c856040518263ffffffff1660e01b8152600401611e4b9190613f2f565b60206040518083038186803b158015611e6357600080fd5b505afa158015611e77573d6000803e3d6000fd5b505050506040513d601f19601f82011682018060405250810190611e9b91906131d4565b611ea591906143b9565b611eaf9190614388565b9050919050565b60007fbf26d897000000000000000000000000000000000000000000000000000000007bffffffffffffffffffffffffffffffffffffffffffffffffffffffff1916827bffffffffffffffffffffffffffffffffffffffffffffffffffffffff19161480611f295750611f28826128cc565b5b9050919050565b600460009054906101000a900473ffffffffffffffffffffffffffffffffffffffff1673ffffffffffffffffffffffffffffffffffffffff1663e38335e5348686866000876040518763ffffffff1660e01b8152600401611f95959493929190613ab4565b6000604051808303818588803b158015611fae57600080fd5b505af1158015611fc2573d6000803e3d6000fd5b50505050505050505050565b60007f000000000000000000000000000000000000000000000000000000000000000073ffffffffffffffffffffffffffffffffffffffff163073ffffffffffffffffffffffffffffffffffffffff1614801561204a57507f000000000000000000000000000000000000000000000000000000000000000046145b15612077577f000000000000000000000000000000000000000000000000000000000000000090506120e5565b6120e27f00000000000000000000000000000000000000000000000000000000000000007f00000000000000000000000000000000000000000000000000000000000000007f0000000000000000000000000000000000000000000000000000000000000000612936565b90505b90565b600082826040516020016120fd9291906139b6565b60405160208183030381529060405280519060200120905092915050565b6000807f7fffffffffffffffffffffffffffffff5d576e7357a4501ddfe92f46681b20a08360001c111561215657600060039150915061221f565b601b8560ff161415801561216e5750601c8560ff1614155b1561218057600060049150915061221f565b6000600187878787604051600081526020016040526040516121a59493929190613c52565b6020604051602081039080840390855afa1580156121c7573d6000803e3d6000fd5b505050602060405103519050600073ffffffffffffffffffffffffffffffffffffffff168173ffffffffffffffffffffffffffffffffffffffff1614156122165760006001925092505061221f565b80600092509250505b94509492505050565b6000600481111561223c5761223b6146a8565b5b81600481111561224f5761224e6146a8565b5b141561225a576123fa565b6001600481111561226e5761226d6146a8565b5b816004811115612281576122806146a8565b5b14156122c2576040517f08c379a00000000000000000000000000000000000000000000000000000000081526004016122b990613cef565b60405180910390fd5b600260048111156122d6576122d56146a8565b5b8160048111156122e9576122e86146a8565b5b141561232a576040517f08c379a000000000000000000000000000000000000000000000000000000000815260040161232190613d6f565b60405180910390fd5b6003600481111561233e5761233d6146a8565b5b816004811115612351576123506146a8565b5b1415612392576040517f08c379a000000000000000000000000000000000000000000000000000000000815260040161238990613daf565b60405180910390fd5b6004808111156123a5576123a46146a8565b5b8160048111156123b8576123b76146a8565b5b14156123f9576040517f08c379a00000000000000000000000000000000000000000000000000000000081526004016123f090613e4f565b60405180910390fd5b5b50565b60006002600086815260200190815260200160002090508060030160008573ffffffffffffffffffffffffffffffffffffffff1673ffffffffffffffffffffffffffffffffffffffff16815260200190815260200160002060009054906101000a900460ff16156124a3576040517f08c379a000000000000000000000000000000000000000000000000000000000815260040161249a90613dcf565b60405180910390fd5b60018160030160008673ffffffffffffffffffffffffffffffffffffffff1673ffffffffffffffffffffffffffffffffffffffff16815260200190815260200160002060006101000a81548160ff02191690831515021790555060006002811115612511576125106146a8565b5b60ff168360ff16141561253e578181600001600082825461253291906142f4565b925050819055506125fc565b60016002811115612552576125516146a8565b5b60ff168360ff16141561257f578181600101600082825461257391906142f4565b925050819055506125fb565b600280811115612592576125916146a8565b5b60ff168360ff1614156125bf57818160020160008282546125b391906142f4565b925050819055506125fa565b6040517f08c379a00000000000000000000000000000000000000000000000000000000081526004016125f190613ecf565b60405180910390fd5b5b5b5050505050565b6000806001600084815260200190815260200160002090508060020160009054906101000a900460ff161561263c576007915050612713565b8060020160019054906101000a900460ff161561265d576002915050612713565b600061266884610df7565b905060008114156126ae576040517f08c379a00000000000000000000000000000000000000000000000000000000081526004016126a590613eaf565b60405180910390fd5b4381106126c057600092505050612713565b60006126cb8561121e565b90504381106126e05760019350505050612713565b6126e985612970565b80156126fa57506126f9856129b7565b5b1561270b5760049350505050612713565b600393505050505b919050565b600080826000015167ffffffffffffffff16149050919050565b600067ffffffffffffffff8016821115612781576040517f08c379a000000000000000000000000000000000000000000000000000000000815260040161277890613e6f565b60405180910390fd5b819050919050565b808260000160006101000a81548167ffffffffffffffff021916908367ffffffffffffffff1602179055505050565b6060824710156127fd576040517f08c379a00000000000000000000000000000000000000000000000000000000081526004016127f490613def565b60405180910390fd5b612806856129e2565b612845576040517f08c379a000000000000000000000000000000000000000000000000000000000815260040161283c90613f0f565b60405180910390fd5b6000808673ffffffffffffffffffffffffffffffffffffffff16858760405161286e919061399f565b60006040518083038185875af1925050503d80600081146128ab576040519150601f19603f3d011682016040523d82523d6000602084013e6128b0565b606091505b50915091506128c0828286612a05565b92505050949350505050565b60007f01ffc9a7000000000000000000000000000000000000000000000000000000007bffffffffffffffffffffffffffffffffffffffffffffffffffffffff1916827bffffffffffffffffffffffffffffffffffffffffffffffffffffffff1916149050919050565b60008383834630604051602001612951959493929190613bc8565b6040516020818303038152906040528051906020012090509392505050565b6000806002600084815260200190815260200160002090508060020154816001015461299c91906142f4565b6129ad6129a885610df7565b611439565b1115915050919050565b6000806002600084815260200190815260200160002090508060000154816001015411915050919050565b6000808273ffffffffffffffffffffffffffffffffffffffff163b119050919050565b60608315612a1557829050612a65565b600083511115612a285782518084602001fd5b816040517f08c379a0000000000000000000000000000000000000000000000000000000008152600401612a5c9190613ccd565b60405180910390fd5b9392505050565b6000612a7f612a7a846140cb565b6140a6565b90508083825260208201905082856020860282011115612aa257612aa161473f565b5b60005b85811015612ad25781612ab88882612c5e565b845260208401935060208301925050600181019050612aa5565b5050509392505050565b6000612aef612aea846140f7565b6140a6565b90508083825260208201905082856020860282011115612b1257612b1161473f565b5b60005b85811015612b6057813567ffffffffffffffff811115612b3857612b3761473a565b5b808601612b458982612da7565b85526020850194506020840193505050600181019050612b15565b5050509392505050565b6000612b7d612b7884614123565b6140a6565b90508083825260208201905082856020860282011115612ba057612b9f61473f565b5b60005b85811015612bd05781612bb68882612e6e565b845260208401935060208301925050600181019050612ba3565b5050509392505050565b6000612bed612be88461414f565b6140a6565b905082815260208101848484011115612c0957612c08614744565b5b612c1484828561459b565b509392505050565b6000612c2f612c2a84614180565b6140a6565b905082815260208101848484011115612c4b57612c4a614744565b5b612c5684828561459b565b509392505050565b600081359050612c6d81614ca4565b92915050565b600082601f830112612c8857612c8761473a565b5b8135612c98848260208601612a6c565b91505092915050565b600082601f830112612cb657612cb561473a565b5b8135612cc6848260208601612adc565b91505092915050565b600082601f830112612ce457612ce361473a565b5b8135612cf4848260208601612b6a565b91505092915050565b600081519050612d0c81614cbb565b92915050565b600081359050612d2181614cd2565b92915050565b600081519050612d3681614cd2565b92915050565b600081359050612d4b81614ce9565b92915050565b60008083601f840112612d6757612d6661473a565b5b8235905067ffffffffffffffff811115612d8457612d83614735565b5b602083019150836001820283011115612da057612d9f61473f565b5b9250929050565b600082601f830112612dbc57612dbb61473a565b5b8135612dcc848260208601612bda565b91505092915050565b600081359050612de481614d00565b92915050565b60008083601f840112612e0057612dff61473a565b5b8235905067ffffffffffffffff811115612e1d57612e1c614735565b5b602083019150836001820283011115612e3957612e3861473f565b5b9250929050565b600082601f830112612e5557612e5461473a565b5b8135612e65848260208601612c1c565b91505092915050565b600081359050612e7d81614d17565b92915050565b600081519050612e9281614d17565b92915050565b600081359050612ea781614d2e565b92915050565b60008060408385031215612ec457612ec361474e565b5b6000612ed285828601612c5e565b9250506020612ee385828601612e6e565b9150509250929050565b60008060008060608587031215612f0757612f0661474e565b5b6000612f1587828801612c5e565b9450506020612f2687828801612e6e565b935050604085013567ffffffffffffffff811115612f4757612f46614749565b5b612f5387828801612d51565b925092505092959194509250565b60008060008060808587031215612f7b57612f7a61474e565b5b600085013567ffffffffffffffff811115612f9957612f98614749565b5b612fa587828801612c73565b945050602085013567ffffffffffffffff811115612fc657612fc5614749565b5b612fd287828801612ccf565b935050604085013567ffffffffffffffff811115612ff357612ff2614749565b5b612fff87828801612ca1565b925050606061301087828801612d12565b91505092959194509250565b600080600080608085870312156130365761303561474e565b5b600085013567ffffffffffffffff81111561305457613053614749565b5b61306087828801612c73565b945050602085013567ffffffffffffffff81111561308157613080614749565b5b61308d87828801612ccf565b935050604085013567ffffffffffffffff8111156130ae576130ad614749565b5b6130ba87828801612ca1565b925050606085013567ffffffffffffffff8111156130db576130da614749565b5b6130e787828801612e40565b91505092959194509250565b6000602082840312156131095761310861474e565b5b600061311784828501612cfd565b91505092915050565b6000602082840312156131365761313561474e565b5b600061314484828501612d27565b91505092915050565b6000602082840312156131635761316261474e565b5b600061317184828501612d3c565b91505092915050565b6000602082840312156131905761318f61474e565b5b600061319e84828501612dd5565b91505092915050565b6000602082840312156131bd576131bc61474e565b5b60006131cb84828501612e6e565b91505092915050565b6000602082840312156131ea576131e961474e565b5b60006131f884828501612e83565b91505092915050565b600080604083850312156132185761321761474e565b5b600061322685828601612e6e565b925050602061323785828601612c5e565b9150509250929050565b600080604083850312156132585761325761474e565b5b600061326685828601612e6e565b925050602061327785828601612e98565b9150509250929050565b6000806000806060858703121561329b5761329a61474e565b5b60006132a987828801612e6e565b94505060206132ba87828801612e98565b935050604085013567ffffffffffffffff8111156132db576132da614749565b5b6132e787828801612dea565b925092505092959194509250565b600080600080600060a086880312156133115761331061474e565b5b600061331f88828901612e6e565b955050602061333088828901612e98565b945050604061334188828901612e98565b935050606061335288828901612d12565b925050608061336388828901612d12565b9150509295509295909350565b600061337c83836133c8565b60208301905092915050565b600061339483836135c1565b905092915050565b60006133a88383613658565b905092915050565b60006133bc8383613963565b60208301905092915050565b6133d181614447565b82525050565b6133e081614447565b82525050565b60006133f1826141f1565b6133fb8185614267565b9350613406836141b1565b8060005b8381101561343757815161341e8882613370565b975061342983614233565b92505060018101905061340a565b5085935050505092915050565b600061344f826141fc565b6134598185614278565b93508360208202850161346b856141c1565b8060005b858110156134a757848403895281516134888582613388565b945061349383614240565b925060208a0199505060018101905061346f565b50829750879550505050505092915050565b60006134c482614207565b6134ce8185614289565b9350836020820285016134e0856141d1565b8060005b8581101561351c57848403895281516134fd858261339c565b94506135088361424d565b925060208a019950506001810190506134e4565b50829750879550505050505092915050565b600061353982614212565b613543818561429a565b935061354e836141e1565b8060005b8381101561357f57815161356688826133b0565b97506135718361425a565b925050600181019050613552565b5085935050505092915050565b6135958161446b565b82525050565b6135a481614477565b82525050565b6135bb6135b682614477565b614640565b82525050565b60006135cc8261421d565b6135d681856142ab565b93506135e68185602086016145aa565b6135ef81614753565b840191505092915050565b60006136058261421d565b61360f81856142bc565b935061361f8185602086016145aa565b80840191505092915050565b61363481614527565b82525050565b61364381614539565b82525050565b6136528161454b565b82525050565b600061366382614228565b61366d81856142c7565b935061367d8185602086016145aa565b61368681614753565b840191505092915050565b600061369c82614228565b6136a681856142d8565b93506136b68185602086016145aa565b6136bf81614753565b840191505092915050565b60006136d76018836142d8565b91506136e282614771565b602082019050919050565b60006136fa6018836142d8565b91506137058261479a565b602082019050919050565b600061371d6043836142d8565b9150613728826147c3565b606082019050919050565b60006137406043836142d8565b915061374b82614838565b606082019050919050565b6000613763601f836142d8565b915061376e826148ad565b602082019050919050565b60006137866002836142e9565b9150613791826148d6565b600282019050919050565b60006137a96021836142d8565b91506137b4826148ff565b604082019050919050565b60006137cc6022836142d8565b91506137d78261494e565b604082019050919050565b60006137ef6027836142d8565b91506137fa8261499d565b604082019050919050565b60006138126026836142d8565b915061381d826149ec565b604082019050919050565b60006138356023836142d8565b915061384082614a3b565b604082019050919050565b60006138586018836142d8565b915061386382614a8a565b602082019050919050565b600061387b6022836142d8565b915061388682614ab3565b604082019050919050565b600061389e6026836142d8565b91506138a982614b02565b604082019050919050565b60006138c16021836142d8565b91506138cc82614b51565b604082019050919050565b60006138e4601d836142d8565b91506138ef82614ba0565b602082019050919050565b60006139076035836142d8565b915061391282614bc9565b604082019050919050565b600061392a6021836142d8565b915061393582614c18565b604082019050919050565b600061394d601d836142d8565b915061395882614c67565b602082019050919050565b61396c816144fc565b82525050565b61397b816144fc565b82525050565b61398a81614589565b82525050565b6139998161451a565b82525050565b60006139ab82846135fa565b915081905092915050565b60006139c182613779565b91506139cd82856135aa565b6020820191506139dd82846135aa565b6020820191508190509392505050565b6000602082019050613a0260008301846133d7565b92915050565b6000604082019050613a1d60008301856133d7565b613a2a60208301846133d7565b9392505050565b6000604082019050613a4660008301856133d7565b613a536020830184613972565b9392505050565b60006080820190508181036000830152613a7481876133e6565b90508181036020830152613a88818661352e565b90508181036040830152613a9c8185613444565b9050613aab606083018461359b565b95945050505050565b600060a0820190508181036000830152613ace81886133e6565b90508181036020830152613ae2818761352e565b90508181036040830152613af68186613444565b9050613b056060830185613649565b613b12608083018461359b565b9695505050505050565b600060c0820190508181036000830152613b3681896133e6565b90508181036020830152613b4a818861352e565b90508181036040830152613b5e8187613444565b9050613b6d6060830186613649565b613b7a608083018561359b565b613b8760a0830184613972565b979650505050505050565b6000602082019050613ba7600083018461358c565b92915050565b6000602082019050613bc2600083018461359b565b92915050565b600060a082019050613bdd600083018861359b565b613bea602083018761359b565b613bf7604083018661359b565b613c046060830185613972565b613c1160808301846133d7565b9695505050505050565b6000606082019050613c30600083018661359b565b613c3d6020830185613972565b613c4a6040830184613990565b949350505050565b6000608082019050613c67600083018761359b565b613c746020830186613990565b613c81604083018561359b565b613c8e606083018461359b565b95945050505050565b6000602082019050613cac600083018461362b565b92915050565b6000602082019050613cc7600083018461363a565b92915050565b60006020820190508181036000830152613ce78184613691565b905092915050565b60006020820190508181036000830152613d08816136ca565b9050919050565b60006020820190508181036000830152613d28816136ed565b9050919050565b60006020820190508181036000830152613d4881613710565b9050919050565b60006020820190508181036000830152613d6881613733565b9050919050565b60006020820190508181036000830152613d8881613756565b9050919050565b60006020820190508181036000830152613da88161379c565b9050919050565b60006020820190508181036000830152613dc8816137bf565b9050919050565b60006020820190508181036000830152613de8816137e2565b9050919050565b60006020820190508181036000830152613e0881613805565b9050919050565b60006020820190508181036000830152613e2881613828565b9050919050565b60006020820190508181036000830152613e488161384b565b9050919050565b60006020820190508181036000830152613e688161386e565b9050919050565b60006020820190508181036000830152613e8881613891565b9050919050565b60006020820190508181036000830152613ea8816138b4565b9050919050565b60006020820190508181036000830152613ec8816138d7565b9050919050565b60006020820190508181036000830152613ee8816138fa565b9050919050565b60006020820190508181036000830152613f088161391d565b9050919050565b60006020820190508181036000830152613f2881613940565b9050919050565b6000602082019050613f446000830184613972565b92915050565b600061012082019050613f60600083018c613972565b613f6d602083018b6133d7565b8181036040830152613f7f818a6133e6565b90508181036060830152613f93818961352e565b90508181036080830152613fa781886134b9565b905081810360a0830152613fbb8187613444565b9050613fca60c0830186613981565b613fd760e0830185613981565b818103610100830152613fea8184613691565b90509a9950505050505050505050565b600060408201905061400f6000830185613972565b61401c6020830184613972565b9392505050565b60006060820190506140386000830186613972565b6140456020830185613972565b6140526040830184613972565b949350505050565b600060808201905061406f6000830187613972565b61407c6020830186613990565b6140896040830185613972565b818103606083015261409b8184613691565b905095945050505050565b60006140b06140c1565b90506140bc828261460f565b919050565b6000604051905090565b600067ffffffffffffffff8211156140e6576140e5614706565b5b602082029050602081019050919050565b600067ffffffffffffffff82111561411257614111614706565b5b602082029050602081019050919050565b600067ffffffffffffffff82111561413e5761413d614706565b5b602082029050602081019050919050565b600067ffffffffffffffff82111561416a57614169614706565b5b61417382614753565b9050602081019050919050565b600067ffffffffffffffff82111561419b5761419a614706565b5b6141a482614753565b9050602081019050919050565b6000819050602082019050919050565b6000819050602082019050919050565b6000819050602082019050919050565b6000819050602082019050919050565b600081519050919050565b600081519050919050565b600081519050919050565b600081519050919050565b600081519050919050565b600081519050919050565b6000602082019050919050565b6000602082019050919050565b6000602082019050919050565b6000602082019050919050565b600082825260208201905092915050565b600082825260208201905092915050565b600082825260208201905092915050565b600082825260208201905092915050565b600082825260208201905092915050565b600081905092915050565b600082825260208201905092915050565b600082825260208201905092915050565b600081905092915050565b60006142ff826144fc565b915061430a836144fc565b9250827fffffffffffffffffffffffffffffffffffffffffffffffffffffffffffffffff0382111561433f5761433e61464a565b5b828201905092915050565b600061435582614506565b915061436083614506565b92508267ffffffffffffffff0382111561437d5761437c61464a565b5b828201905092915050565b6000614393826144fc565b915061439e836144fc565b9250826143ae576143ad614679565b5b828204905092915050565b60006143c4826144fc565b91506143cf836144fc565b9250817fffffffffffffffffffffffffffffffffffffffffffffffffffffffffffffffff04831182151516156144085761440761464a565b5b828202905092915050565b600061441e826144fc565b9150614429836144fc565b92508282101561443c5761443b61464a565b5b828203905092915050565b6000614452826144dc565b9050919050565b6000614464826144dc565b9050919050565b60008115159050919050565b6000819050919050565b60007fffffffff0000000000000000000000000000000000000000000000000000000082169050919050565b60006144b882614459565b9050919050565b60008190506144cd82614c90565b919050565b6000819050919050565b600073ffffffffffffffffffffffffffffffffffffffff82169050919050565b6000819050919050565b600067ffffffffffffffff82169050919050565b600060ff82169050919050565b600061453282614565565b9050919050565b6000614544826144bf565b9050919050565b600061455e614559836144d2565b614764565b9050919050565b600061457082614577565b9050919050565b6000614582826144dc565b9050919050565b600061459482614506565b9050919050565b82818337600083830152505050565b60005b838110156145c85780820151818401526020810190506145ad565b838111156145d7576000848401525b50505050565b600060028204905060018216806145f557607f821691505b60208210811415614609576146086146d7565b5b50919050565b61461882614753565b810181811067ffffffffffffffff8211171561463757614636614706565b5b80604052505050565b6000819050919050565b7f4e487b7100000000000000000000000000000000000000000000000000000000600052601160045260246000fd5b7f4e487b7100000000000000000000000000000000000000000000000000000000600052601260045260246000fd5b7f4e487b7100000000000000000000000000000000000000000000000000000000600052602160045260246000fd5b7f4e487b7100000000000000000000000000000000000000000000000000000000600052602260045260246000fd5b7f4e487b7100000000000000000000000000000000000000000000000000000000600052604160045260246000fd5b600080fd5b600080fd5b600080fd5b600080fd5b600080fd5b600080fd5b6000601f19601f8301169050919050565b60008160001b9050919050565b7f45434453413a20696e76616c6964207369676e61747572650000000000000000600082015250565b7f476f7665726e6f723a206f6e6c79476f7665726e616e63650000000000000000600082015250565b7f476f7665726e6f72566f74657351756f72756d4672616374696f6e3a2071756f60008201527f72756d4e756d657261746f72206f7665722071756f72756d44656e6f6d696e6160208201527f746f720000000000000000000000000000000000000000000000000000000000604082015250565b7f476f7665726e6f72436f6d7061746962696c697479427261766f3a2070726f7060008201527f6f73657220766f7465732062656c6f772070726f706f73616c2074687265736860208201527f6f6c640000000000000000000000000000000000000000000000000000000000604082015250565b7f45434453413a20696e76616c6964207369676e6174757265206c656e67746800600082015250565b7f1901000000000000000000000000000000000000000000000000000000000000600082015250565b7f476f7665726e6f723a20696e76616c69642070726f706f73616c206c656e677460008201527f6800000000000000000000000000000000000000000000000000000000000000602082015250565b7f45434453413a20696e76616c6964207369676e6174757265202773272076616c60008201527f7565000000000000000000000000000000000000000000000000000000000000602082015250565b7f476f7665726e6f72566f74696e6753696d706c653a20766f746520616c72656160008201527f6479206361737400000000000000000000000000000000000000000000000000602082015250565b7f416464726573733a20696e73756666696369656e742062616c616e636520666f60008201527f722063616c6c0000000000000000000000000000000000000000000000000000602082015250565b7f476f7665726e6f723a20766f7465206e6f742063757272656e746c792061637460008201527f6976650000000000000000000000000000000000000000000000000000000000602082015250565b7f476f7665726e6f723a20656d7074792070726f706f73616c0000000000000000600082015250565b7f45434453413a20696e76616c6964207369676e6174757265202776272076616c60008201527f7565000000000000000000000000000000000000000000000000000000000000602082015250565b7f53616665436173743a2076616c756520646f65736e27742066697420696e203660008201527f3420626974730000000000000000000000000000000000000000000000000000602082015250565b7f476f7665726e6f723a2070726f706f73616c206e6f742073756363657373667560008201527f6c00000000000000000000000000000000000000000000000000000000000000602082015250565b7f476f7665726e6f723a20756e6b6e6f776e2070726f706f73616c206964000000600082015250565b7f476f7665726e6f72566f74696e6753696d706c653a20696e76616c696420766160008201527f6c756520666f7220656e756d20566f7465547970650000000000000000000000602082015250565b7f476f7665726e6f723a2070726f706f73616c20616c726561647920657869737460008201527f7300000000000000000000000000000000000000000000000000000000000000602082015250565b7f416464726573733a2063616c6c20746f206e6f6e2d636f6e7472616374000000600082015250565b60088110614ca157614ca06146a8565b5b50565b614cad81614447565b8114614cb857600080fd5b50565b614cc48161446b565b8114614ccf57600080fd5b50565b614cdb81614477565b8114614ce657600080fd5b50565b614cf281614481565b8114614cfd57600080fd5b50565b614d09816144ad565b8114614d1457600080fd5b50565b614d20816144fc565b8114614d2b57600080fd5b50565b614d378161451a565b8114614d4257600080fd5b5056fe416464726573733a206c6f772d6c6576656c2063616c6c20776974682076616c7565206661696c6564a2646970667358221220643c51c4d1d933937f443c710bb7c144eab3ff6542eba63eaebd033f1acb79a664736f6c63430008070033",
  "linkReferences": {},
  "deployedLinkReferences": {}
}