{
  "_format": "hh-sol-artifact-1",
  "contractName": "GovernanceTimeLock",
  "sourceName": "contracts/governance_standard/GovernanceTimeLock.sol",
  "abi": [
    {
      "inputs": [
        {
          "internalType": "uint256",
          "name": "minDelay",
          "type": "uint256"
        },
        {
          "internalType": "address[]",
          "name": "proposers",
          "type": "address[]"
        },
        {
          "internalType": "address[]",
          "name": "executors",
          "type": "address[]"
        }
      ],
      "stateMutability": "nonpayable",
      "type": "constructor"
    },
    {
      "anonymous": false,
      "inputs": [
        {
          "indexed": true,
          "internalType": "bytes32",
          "name": "id",
          "type": "bytes32"
        },
        {
          "indexed": true,
          "internalType": "uint256",
          "name": "index",
          "type": "uint256"
        },
        {
          "indexed": false,
          "internalType": "address",
          "name": "target",
          "type": "address"
        },
        {
          "indexed": false,
          "internalType": "uint256",
          "name": "value",
          "type": "uint256"
        },
        {
          "indexed": false,
          "internalType": "bytes",
          "name": "data",
          "type": "bytes"
        }
      ],
      "name": "CallExecuted",
      "type": "event"
    },
    {
      "anonymous": false,
      "inputs": [
        {
          "indexed": true,
          "internalType": "bytes32",
          "name": "id",
          "type": "bytes32"
        },
        {
          "indexed": true,
          "internalType": "uint256",
          "name": "index",
          "type": "uint256"
        },
        {
          "indexed": false,
          "internalType": "address",
          "name": "target",
          "type": "address"
        },
        {
          "indexed": false,
          "internalType": "uint256",
          "name": "value",
          "type": "uint256"
        },
        {
          "indexed": false,
          "internalType": "bytes",
          "name": "data",
          "type": "bytes"
        },
        {
          "indexed": false,
          "internalType": "bytes32",
          "name": "predecessor",
          "type": "bytes32"
        },
        {
          "indexed": false,
          "internalType": "uint256",
          "name": "delay",
          "type": "uint256"
        }
      ],
      "name": "CallScheduled",
      "type": "event"
    },
    {
      "anonymous": false,
      "inputs": [
        {
          "indexed": true,
          "internalType": "bytes32",
          "name": "id",
          "type": "bytes32"
        }
      ],
      "name": "Cancelled",
      "type": "event"
    },
    {
      "anonymous": false,
      "inputs": [
        {
          "indexed": false,
          "internalType": "uint256",
          "name": "oldDuration",
          "type": "uint256"
        },
        {
          "indexed": false,
          "internalType": "uint256",
          "name": "newDuration",
          "type": "uint256"
        }
      ],
      "name": "MinDelayChange",
      "type": "event"
    },
    {
      "anonymous": false,
      "inputs": [
        {
          "indexed": true,
          "internalType": "bytes32",
          "name": "role",
          "type": "bytes32"
        },
        {
          "indexed": true,
          "internalType": "bytes32",
          "name": "previousAdminRole",
          "type": "bytes32"
        },
        {
          "indexed": true,
          "internalType": "bytes32",
          "name": "newAdminRole",
          "type": "bytes32"
        }
      ],
      "name": "RoleAdminChanged",
      "type": "event"
    },
    {
      "anonymous": false,
      "inputs": [
        {
          "indexed": true,
          "internalType": "bytes32",
          "name": "role",
          "type": "bytes32"
        },
        {
          "indexed": true,
          "internalType": "address",
          "name": "account",
          "type": "address"
        },
        {
          "indexed": true,
          "internalType": "address",
          "name": "sender",
          "type": "address"
        }
      ],
      "name": "RoleGranted",
      "type": "event"
    },
    {
      "anonymous": false,
      "inputs": [
        {
          "indexed": true,
          "internalType": "bytes32",
          "name": "role",
          "type": "bytes32"
        },
        {
          "indexed": true,
          "internalType": "address",
          "name": "account",
          "type": "address"
        },
        {
          "indexed": true,
          "internalType": "address",
          "name": "sender",
          "type": "address"
        }
      ],
      "name": "RoleRevoked",
      "type": "event"
    },
    {
      "inputs": [],
      "name": "DEFAULT_ADMIN_ROLE",
      "outputs": [
        {
          "internalType": "bytes32",
          "name": "",
          "type": "bytes32"
        }
      ],
      "stateMutability": "view",
      "type": "function"
    },
    {
      "inputs": [],
      "name": "EXECUTOR_ROLE",
      "outputs": [
        {
          "internalType": "bytes32",
          "name": "",
          "type": "bytes32"
        }
      ],
      "stateMutability": "view",
      "type": "function"
    },
    {
      "inputs": [],
      "name": "PROPOSER_ROLE",
      "outputs": [
        {
          "internalType": "bytes32",
          "name": "",
          "type": "bytes32"
        }
      ],
      "stateMutability": "view",
      "type": "function"
    },
    {
      "inputs": [],
      "name": "TIMELOCK_ADMIN_ROLE",
      "outputs": [
        {
          "internalType": "bytes32",
          "name": "",
          "type": "bytes32"
        }
      ],
      "stateMutability": "view",
      "type": "function"
    },
    {
      "inputs": [
        {
          "internalType": "bytes32",
          "name": "id",
          "type": "bytes32"
        }
      ],
      "name": "cancel",
      "outputs": [],
      "stateMutability": "nonpayable",
      "type": "function"
    },
    {
      "inputs": [
        {
          "internalType": "address",
          "name": "account",
          "type": "address"
        }
      ],
      "name": "encodeGrantExecutorRole",
      "outputs": [
        {
          "internalType": "bytes",
          "name": "",
          "type": "bytes"
        }
      ],
      "stateMutability": "view",
      "type": "function"
    },
    {
      "inputs": [
        {
          "internalType": "address",
          "name": "account",
          "type": "address"
        }
      ],
      "name": "encodeGrantProposerRole",
      "outputs": [
        {
          "internalType": "bytes",
          "name": "",
          "type": "bytes"
        }
      ],
      "stateMutability": "view",
      "type": "function"
    },
    {
      "inputs": [
        {
          "internalType": "address",
          "name": "account",
          "type": "address"
        }
      ],
      "name": "encodeRevokeTimeLockRole",
      "outputs": [
        {
          "internalType": "bytes",
          "name": "",
          "type": "bytes"
        }
      ],
      "stateMutability": "view",
      "type": "function"
    },
    {
      "inputs": [
        {
          "internalType": "address",
          "name": "target",
          "type": "address"
        },
        {
          "internalType": "uint256",
          "name": "value",
          "type": "uint256"
        },
        {
          "internalType": "bytes",
          "name": "data",
          "type": "bytes"
        },
        {
          "internalType": "bytes32",
          "name": "predecessor",
          "type": "bytes32"
        },
        {
          "internalType": "bytes32",
          "name": "salt",
          "type": "bytes32"
        }
      ],
      "name": "execute",
      "outputs": [],
      "stateMutability": "payable",
      "type": "function"
    },
    {
      "inputs": [
        {
          "internalType": "address[]",
          "name": "targets",
          "type": "address[]"
        },
        {
          "internalType": "uint256[]",
          "name": "values",
          "type": "uint256[]"
        },
        {
          "internalType": "bytes[]",
          "name": "datas",
          "type": "bytes[]"
        },
        {
          "internalType": "bytes32",
          "name": "predecessor",
          "type": "bytes32"
        },
        {
          "internalType": "bytes32",
          "name": "salt",
          "type": "bytes32"
        }
      ],
      "name": "executeBatch",
      "outputs": [],
      "stateMutability": "payable",
      "type": "function"
    },
    {
      "inputs": [],
      "name": "getMinDelay",
      "outputs": [
        {
          "internalType": "uint256",
          "name": "duration",
          "type": "uint256"
        }
      ],
      "stateMutability": "view",
      "type": "function"
    },
    {
      "inputs": [
        {
          "internalType": "bytes32",
          "name": "role",
          "type": "bytes32"
        }
      ],
      "name": "getRoleAdmin",
      "outputs": [
        {
          "internalType": "bytes32",
          "name": "",
          "type": "bytes32"
        }
      ],
      "stateMutability": "view",
      "type": "function"
    },
    {
      "inputs": [
        {
          "internalType": "bytes32",
          "name": "id",
          "type": "bytes32"
        }
      ],
      "name": "getTimestamp",
      "outputs": [
        {
          "internalType": "uint256",
          "name": "timestamp",
          "type": "uint256"
        }
      ],
      "stateMutability": "view",
      "type": "function"
    },
    {
      "inputs": [
        {
          "internalType": "bytes32",
          "name": "role",
          "type": "bytes32"
        },
        {
          "internalType": "address",
          "name": "account",
          "type": "address"
        }
      ],
      "name": "grantRole",
      "outputs": [],
      "stateMutability": "nonpayable",
      "type": "function"
    },
    {
      "inputs": [
        {
          "internalType": "bytes32",
          "name": "role",
          "type": "bytes32"
        },
        {
          "internalType": "address",
          "name": "account",
          "type": "address"
        }
      ],
      "name": "hasRole",
      "outputs": [
        {
          "internalType": "bool",
          "name": "",
          "type": "bool"
        }
      ],
      "stateMutability": "view",
      "type": "function"
    },
    {
      "inputs": [
        {
          "internalType": "address",
          "name": "target",
          "type": "address"
        },
        {
          "internalType": "uint256",
          "name": "value",
          "type": "uint256"
        },
        {
          "internalType": "bytes",
          "name": "data",
          "type": "bytes"
        },
        {
          "internalType": "bytes32",
          "name": "predecessor",
          "type": "bytes32"
        },
        {
          "internalType": "bytes32",
          "name": "salt",
          "type": "bytes32"
        }
      ],
      "name": "hashOperation",
      "outputs": [
        {
          "internalType": "bytes32",
          "name": "hash",
          "type": "bytes32"
        }
      ],
      "stateMutability": "pure",
      "type": "function"
    },
    {
      "inputs": [
        {
          "internalType": "address[]",
          "name": "targets",
          "type": "address[]"
        },
        {
          "internalType": "uint256[]",
          "name": "values",
          "type": "uint256[]"
        },
        {
          "internalType": "bytes[]",
          "name": "datas",
          "type": "bytes[]"
        },
        {
          "internalType": "bytes32",
          "name": "predecessor",
          "type": "bytes32"
        },
        {
          "internalType": "bytes32",
          "name": "salt",
          "type": "bytes32"
        }
      ],
      "name": "hashOperationBatch",
      "outputs": [
        {
          "internalType": "bytes32",
          "name": "hash",
          "type": "bytes32"
        }
      ],
      "stateMutability": "pure",
      "type": "function"
    },
    {
      "inputs": [
        {
          "internalType": "bytes32",
          "name": "id",
          "type": "bytes32"
        }
      ],
      "name": "isOperation",
      "outputs": [
        {
          "internalType": "bool",
          "name": "pending",
          "type": "bool"
        }
      ],
      "stateMutability": "view",
      "type": "function"
    },
    {
      "inputs": [
        {
          "internalType": "bytes32",
          "name": "id",
          "type": "bytes32"
        }
      ],
      "name": "isOperationDone",
      "outputs": [
        {
          "internalType": "bool",
          "name": "done",
          "type": "bool"
        }
      ],
      "stateMutability": "view",
      "type": "function"
    },
    {
      "inputs": [
        {
          "internalType": "bytes32",
          "name": "id",
          "type": "bytes32"
        }
      ],
      "name": "isOperationPending",
      "outputs": [
        {
          "internalType": "bool",
          "name": "pending",
          "type": "bool"
        }
      ],
      "stateMutability": "view",
      "type": "function"
    },
    {
      "inputs": [
        {
          "internalType": "bytes32",
          "name": "id",
          "type": "bytes32"
        }
      ],
      "name": "isOperationReady",
      "outputs": [
        {
          "internalType": "bool",
          "name": "ready",
          "type": "bool"
        }
      ],
      "stateMutability": "view",
      "type": "function"
    },
    {
      "inputs": [
        {
          "internalType": "bytes32",
          "name": "role",
          "type": "bytes32"
        },
        {
          "internalType": "address",
          "name": "account",
          "type": "address"
        }
      ],
      "name": "renounceRole",
      "outputs": [],
      "stateMutability": "nonpayable",
      "type": "function"
    },
    {
      "inputs": [
        {
          "internalType": "bytes32",
          "name": "role",
          "type": "bytes32"
        },
        {
          "internalType": "address",
          "name": "account",
          "type": "address"
        }
      ],
      "name": "revokeRole",
      "outputs": [],
      "stateMutability": "nonpayable",
      "type": "function"
    },
    {
      "inputs": [
        {
          "internalType": "address",
          "name": "target",
          "type": "address"
        },
        {
          "internalType": "uint256",
          "name": "value",
          "type": "uint256"
        },
        {
          "internalType": "bytes",
          "name": "data",
          "type": "bytes"
        },
        {
          "internalType": "bytes32",
          "name": "predecessor",
          "type": "bytes32"
        },
        {
          "internalType": "bytes32",
          "name": "salt",
          "type": "bytes32"
        },
        {
          "internalType": "uint256",
          "name": "delay",
          "type": "uint256"
        }
      ],
      "name": "schedule",
      "outputs": [],
      "stateMutability": "nonpayable",
      "type": "function"
    },
    {
      "inputs": [
        {
          "internalType": "address[]",
          "name": "targets",
          "type": "address[]"
        },
        {
          "internalType": "uint256[]",
          "name": "values",
          "type": "uint256[]"
        },
        {
          "internalType": "bytes[]",
          "name": "datas",
          "type": "bytes[]"
        },
        {
          "internalType": "bytes32",
          "name": "predecessor",
          "type": "bytes32"
        },
        {
          "internalType": "bytes32",
          "name": "salt",
          "type": "bytes32"
        },
        {
          "internalType": "uint256",
          "name": "delay",
          "type": "uint256"
        }
      ],
      "name": "scheduleBatch",
      "outputs": [],
      "stateMutability": "nonpayable",
      "type": "function"
    },
    {
      "inputs": [
        {
          "internalType": "bytes4",
          "name": "interfaceId",
          "type": "bytes4"
        }
      ],
      "name": "supportsInterface",
      "outputs": [
        {
          "internalType": "bool",
          "name": "",
          "type": "bool"
        }
      ],
      "stateMutability": "view",
      "type": "function"
    },
    {
      "inputs": [
        {
          "internalType": "uint256",
          "name": "newDelay",
          "type": "uint256"
        }
      ],
      "name": "updateDelay",
      "outputs": [],
      "stateMutability": "nonpayable",
      "type": "function"
    },
    {
      "stateMutability": "payable",
      "type": "receive"
    }
  ],
  "bytecode": "0x60806040523480156200001157600080fd5b50604051620039ee380380620039ee83398181016040528101906200003791906200058b565b8282826200006c7f5f58e3a2316349923ce3780f8d587db2d72378aed66a8261c916544fa6846ca580620002b460201b60201c565b620000be7fb09aa5aeb3702cfd50b6b62bc4532604938f21248a27a1d5ca736082b6819cc17f5f58e3a2316349923ce3780f8d587db2d72378aed66a8261c916544fa6846ca5620002b460201b60201c565b620001107fd8aa0f3194971a2a116679f7c2090f6939c8d4e01a2a8d7e41d55e5351469e637f5f58e3a2316349923ce3780f8d587db2d72378aed66a8261c916544fa6846ca5620002b460201b60201c565b620001517f5f58e3a2316349923ce3780f8d587db2d72378aed66a8261c916544fa6846ca5620001456200031760201b60201c565b6200031f60201b60201c565b620001837f5f58e3a2316349923ce3780f8d587db2d72378aed66a8261c916544fa6846ca5306200031f60201b60201c565b60005b8251811015620001f357620001df7fb09aa5aeb3702cfd50b6b62bc4532604938f21248a27a1d5ca736082b6819cc1848381518110620001cb57620001ca620007d1565b5b60200260200101516200031f60201b60201c565b80620001eb9062000754565b905062000186565b5060005b81518110156200026457620002507fd8aa0f3194971a2a116679f7c2090f6939c8d4e01a2a8d7e41d55e5351469e638383815181106200023c576200023b620007d1565b5b60200260200101516200031f60201b60201c565b806200025c9062000754565b9050620001f7565b50826002819055507f11c24f4ead16507c69ac467fbd5e4eed5fb5c699626d2cc6d66421df253886d5600084604051620002a092919062000647565b60405180910390a150505050505062000888565b6000620002c7836200033560201b60201c565b905081600080858152602001908152602001600020600101819055508181847fbd79b86ffe0ab8e8776151514217cd7cacd52c909f66475c3af44e129f0b00ff60405160405180910390a4505050565b600033905090565b6200033182826200035460201b60201c565b5050565b6000806000838152602001908152602001600020600101549050919050565b6200036682826200044560201b60201c565b6200044157600160008084815260200190815260200160002060000160008373ffffffffffffffffffffffffffffffffffffffff1673ffffffffffffffffffffffffffffffffffffffff16815260200190815260200160002060006101000a81548160ff021916908315150217905550620003e66200031760201b60201c565b73ffffffffffffffffffffffffffffffffffffffff168173ffffffffffffffffffffffffffffffffffffffff16837f2f8788117e7eff1d82e926ec794901d17c78024a50270940304540a733656f0d60405160405180910390a45b5050565b600080600084815260200190815260200160002060000160008373ffffffffffffffffffffffffffffffffffffffff1673ffffffffffffffffffffffffffffffffffffffff16815260200190815260200160002060009054906101000a900460ff16905092915050565b6000620004c6620004c0846200069d565b62000674565b90508083825260208201905082856020860282011115620004ec57620004eb62000834565b5b60005b858110156200052057816200050588826200052a565b845260208401935060208301925050600181019050620004ef565b5050509392505050565b6000815190506200053b8162000854565b92915050565b600082601f8301126200055957620005586200082f565b5b81516200056b848260208601620004af565b91505092915050565b60008151905062000585816200086e565b92915050565b600080600060608486031215620005a757620005a66200083e565b5b6000620005b78682870162000574565b935050602084015167ffffffffffffffff811115620005db57620005da62000839565b5b620005e98682870162000541565b925050604084015167ffffffffffffffff8111156200060d576200060c62000839565b5b6200061b8682870162000541565b9150509250925092565b62000630816200070a565b82525050565b620006418162000700565b82525050565b60006040820190506200065e600083018562000625565b6200066d602083018462000636565b9392505050565b60006200068062000693565b90506200068e82826200071e565b919050565b6000604051905090565b600067ffffffffffffffff821115620006bb57620006ba62000800565b5b602082029050602081019050919050565b6000620006d982620006e0565b9050919050565b600073ffffffffffffffffffffffffffffffffffffffff82169050919050565b6000819050919050565b6000620007178262000700565b9050919050565b620007298262000843565b810181811067ffffffffffffffff821117156200074b576200074a62000800565b5b80604052505050565b6000620007618262000700565b91507fffffffffffffffffffffffffffffffffffffffffffffffffffffffffffffffff821415620007975762000796620007a2565b5b600182019050919050565b7f4e487b7100000000000000000000000000000000000000000000000000000000600052601160045260246000fd5b7f4e487b7100000000000000000000000000000000000000000000000000000000600052603260045260246000fd5b7f4e487b7100000000000000000000000000000000000000000000000000000000600052604160045260246000fd5b600080fd5b600080fd5b600080fd5b600080fd5b6000601f19601f8301169050919050565b6200085f81620006cc565b81146200086b57600080fd5b50565b620008798162000700565b81146200088557600080fd5b50565b61315680620008986000396000f3fe6080604052600436106101a05760003560e01c80638065657f116100ec578063b1c5f4271161008a578063d45c443511610064578063d45c443514610646578063d547741f14610683578063e38335e5146106ac578063f27a0c92146106c8576101a7565b8063b1c5f427146105a3578063c2713d0c146105e0578063c4d252f51461061d576101a7565b80638f61f4f5116100c65780638f61f4f5146104d357806391d14854146104fe578063a217fddf1461053b578063ae2400f514610566576101a7565b80638065657f1461043057806381a9979e1461046d5780638f2a0bb0146104aa576101a7565b8063248a9ca31161015957806331d507501161013357806331d507501461036457806336568abe146103a1578063584b153e146103ca57806364d6235314610407576101a7565b8063248a9ca3146102c15780632ab0f529146102fe5780632f2ff15d1461033b576101a7565b806301d5062a146101ac57806301ffc9a7146101d557806307bd0265146102125780630d3cf6fc1461023d578063134008d31461026857806313bc9f2014610284576101a7565b366101a757005b600080fd5b3480156101b857600080fd5b506101d360048036038101906101ce9190611d6c565b6106f3565b005b3480156101e157600080fd5b506101fc60048036038101906101f79190612080565b610790565b6040516102099190612701565b60405180910390f35b34801561021e57600080fd5b5061022761080a565b604051610234919061271c565b60405180910390f35b34801561024957600080fd5b5061025261082e565b60405161025f919061271c565b60405180910390f35b610282600480360381019061027d9190611cd2565b610852565b005b34801561029057600080fd5b506102ab60048036038101906102a69190611fe6565b6108d2565b6040516102b89190612701565b60405180910390f35b3480156102cd57600080fd5b506102e860048036038101906102e39190611fe6565b6108f8565b6040516102f5919061271c565b60405180910390f35b34801561030a57600080fd5b5061032560048036038101906103209190611fe6565b610917565b6040516103329190612701565b60405180910390f35b34801561034757600080fd5b50610362600480360381019061035d9190612040565b61092c565b005b34801561037057600080fd5b5061038b60048036038101906103869190611fe6565b610955565b6040516103989190612701565b60405180910390f35b3480156103ad57600080fd5b506103c860048036038101906103c39190612040565b610969565b005b3480156103d657600080fd5b506103f160048036038101906103ec9190611fe6565b6109ec565b6040516103fe9190612701565b60405180910390f35b34801561041357600080fd5b5061042e600480360381019061042991906120ad565b610a01565b005b34801561043c57600080fd5b5061045760048036038101906104529190611cd2565b610ab4565b604051610464919061271c565b60405180910390f35b34801561047957600080fd5b50610494600480360381019061048f9190611ca5565b610af3565b6040516104a19190612760565b60405180910390f35b3480156104b657600080fd5b506104d160048036038101906104cc9190611ef7565b610bf1565b005b3480156104df57600080fd5b506104e8610da4565b6040516104f5919061271c565b60405180910390f35b34801561050a57600080fd5b5061052560048036038101906105209190612040565b610dc8565b6040516105329190612701565b60405180910390f35b34801561054757600080fd5b50610550610e32565b60405161055d919061271c565b60405180910390f35b34801561057257600080fd5b5061058d60048036038101906105889190611ca5565b610e39565b60405161059a9190612760565b60405180910390f35b3480156105af57600080fd5b506105ca60048036038101906105c59190611e1b565b610f37565b6040516105d7919061271c565b60405180910390f35b3480156105ec57600080fd5b5061060760048036038101906106029190611ca5565b610f7c565b6040516106149190612760565b60405180910390f35b34801561062957600080fd5b50610644600480360381019061063f9190611fe6565b61107a565b005b34801561065257600080fd5b5061066d60048036038101906106689190611fe6565b61113c565b60405161067a91906128e4565b60405180910390f35b34801561068f57600080fd5b506106aa60048036038101906106a59190612040565b611159565b005b6106c660048036038101906106c19190611e1b565b611182565b005b3480156106d457600080fd5b506106dd611318565b6040516106ea91906128e4565b60405180910390f35b7fb09aa5aeb3702cfd50b6b62bc4532604938f21248a27a1d5ca736082b6819cc161072581610720611322565b61132a565b6000610735898989898989610ab4565b905061074181846113c7565b6000817f4cf4410cc57040e44862ef0f45f3dd5a5e02db8eb8add648d4b0e236f1d07dca8b8b8b8b8b8a60405161077d96959493929190612637565b60405180910390a3505050505050505050565b60007f7965db0b000000000000000000000000000000000000000000000000000000007bffffffffffffffffffffffffffffffffffffffffffffffffffffffff1916827bffffffffffffffffffffffffffffffffffffffffffffffffffffffff19161480610803575061080282611481565b5b9050919050565b7fd8aa0f3194971a2a116679f7c2090f6939c8d4e01a2a8d7e41d55e5351469e6381565b7f5f58e3a2316349923ce3780f8d587db2d72378aed66a8261c916544fa6846ca581565b7fd8aa0f3194971a2a116679f7c2090f6939c8d4e01a2a8d7e41d55e5351469e6361087e816000610dc8565b610894576108938161088e611322565b61132a565b5b60006108a4888888888888610ab4565b90506108b081856114eb565b6108bf8160008a8a8a8a61158c565b6108c881611684565b5050505050505050565b6000806108de8361113c565b90506001811180156108f05750428111155b915050919050565b6000806000838152602001908152602001600020600101549050919050565b600060016109248361113c565b149050919050565b610935826108f8565b61094681610941611322565b61132a565b61095083836116e7565b505050565b6000806109618361113c565b119050919050565b610971611322565b73ffffffffffffffffffffffffffffffffffffffff168173ffffffffffffffffffffffffffffffffffffffff16146109de576040517f08c379a00000000000000000000000000000000000000000000000000000000081526004016109d5906128a4565b60405180910390fd5b6109e882826117c7565b5050565b600060016109f98361113c565b119050919050565b3073ffffffffffffffffffffffffffffffffffffffff163373ffffffffffffffffffffffffffffffffffffffff1614610a6f576040517f08c379a0000000000000000000000000000000000000000000000000000000008152600401610a6690612884565b60405180910390fd5b7f11c24f4ead16507c69ac467fbd5e4eed5fb5c699626d2cc6d66421df253886d560025482604051610aa29291906128ff565b60405180910390a18060028190555050565b6000868686868686604051602001610ad1969594939291906125db565b6040516020818303038152906040528051906020012090509695505050505050565b606063d547741f60e01b3073ffffffffffffffffffffffffffffffffffffffff16630d3cf6fc6040518163ffffffff1660e01b815260040160206040518083038186803b158015610b4357600080fd5b505afa158015610b57573d6000803e3d6000fd5b505050506040513d601f19601f82011682018060405250810190610b7b9190612013565b83604051602401610b8d929190612737565b604051602081830303815290604052907bffffffffffffffffffffffffffffffffffffffffffffffffffffffff19166020820180517bffffffffffffffffffffffffffffffffffffffffffffffffffffffff83818316178352505050509050919050565b7fb09aa5aeb3702cfd50b6b62bc4532604938f21248a27a1d5ca736082b6819cc1610c2381610c1e611322565b61132a565b878790508a8a905014610c6b576040517f08c379a0000000000000000000000000000000000000000000000000000000008152600401610c62906127e4565b60405180910390fd5b858590508a8a905014610cb3576040517f08c379a0000000000000000000000000000000000000000000000000000000008152600401610caa906127e4565b60405180910390fd5b6000610cc58b8b8b8b8b8b8b8b610f37565b9050610cd181846113c7565b60005b8b8b9050811015610d965780827f4cf4410cc57040e44862ef0f45f3dd5a5e02db8eb8add648d4b0e236f1d07dca8e8e85818110610d1557610d14612cd7565b5b9050602002016020810190610d2a9190611ca5565b8d8d86818110610d3d57610d3c612cd7565b5b905060200201358c8c87818110610d5757610d56612cd7565b5b9050602002810190610d699190612928565b8c8b604051610d7d96959493929190612637565b60405180910390a380610d8f90612c5f565b9050610cd4565b505050505050505050505050565b7fb09aa5aeb3702cfd50b6b62bc4532604938f21248a27a1d5ca736082b6819cc181565b600080600084815260200190815260200160002060000160008373ffffffffffffffffffffffffffffffffffffffff1673ffffffffffffffffffffffffffffffffffffffff16815260200190815260200160002060009054906101000a900460ff16905092915050565b6000801b81565b6060632f2ff15d60e01b3073ffffffffffffffffffffffffffffffffffffffff166307bd02656040518163ffffffff1660e01b815260040160206040518083038186803b158015610e8957600080fd5b505afa158015610e9d573d6000803e3d6000fd5b505050506040513d601f19601f82011682018060405250810190610ec19190612013565b83604051602401610ed3929190612737565b604051602081830303815290604052907bffffffffffffffffffffffffffffffffffffffffffffffffffffffff19166020820180517bffffffffffffffffffffffffffffffffffffffffffffffffffffffff83818316178352505050509050919050565b60008888888888888888604051602001610f58989796959493929190612693565b60405160208183030381529060405280519060200120905098975050505050505050565b6060632f2ff15d60e01b3073ffffffffffffffffffffffffffffffffffffffff16638f61f4f56040518163ffffffff1660e01b815260040160206040518083038186803b158015610fcc57600080fd5b505afa158015610fe0573d6000803e3d6000fd5b505050506040513d601f19601f820116820180604052508101906110049190612013565b83604051602401611016929190612737565b604051602081830303815290604052907bffffffffffffffffffffffffffffffffffffffffffffffffffffffff19166020820180517bffffffffffffffffffffffffffffffffffffffffffffffffffffffff83818316178352505050509050919050565b7fb09aa5aeb3702cfd50b6b62bc4532604938f21248a27a1d5ca736082b6819cc16110ac816110a7611322565b61132a565b6110b5826109ec565b6110f4576040517f08c379a00000000000000000000000000000000000000000000000000000000081526004016110eb90612864565b60405180910390fd5b6001600083815260200190815260200160002060009055817fbaa1eb22f2a492ba1a5fea61b8df4d27c6c8b5f3971e63bb58fa14ff72eedb7060405160405180910390a25050565b600060016000838152602001908152602001600020549050919050565b611162826108f8565b6111738161116e611322565b61132a565b61117d83836117c7565b505050565b7fd8aa0f3194971a2a116679f7c2090f6939c8d4e01a2a8d7e41d55e5351469e636111ae816000610dc8565b6111c4576111c3816111be611322565b61132a565b5b86869050898990501461120c576040517f08c379a0000000000000000000000000000000000000000000000000000000008152600401611203906127e4565b60405180910390fd5b848490508989905014611254576040517f08c379a000000000000000000000000000000000000000000000000000000000815260040161124b906127e4565b60405180910390fd5b60006112668a8a8a8a8a8a8a8a610f37565b905061127281856114eb565b60005b8a8a9050811015611302576112f182828d8d8581811061129857611297612cd7565b5b90506020020160208101906112ad9190611ca5565b8c8c868181106112c0576112bf612cd7565b5b905060200201358b8b878181106112da576112d9612cd7565b5b90506020028101906112ec9190612928565b61158c565b806112fb90612c5f565b9050611275565b5061130c81611684565b50505050505050505050565b6000600254905090565b600033905090565b6113348282610dc8565b6113c3576113598173ffffffffffffffffffffffffffffffffffffffff1660146118a8565b6113678360001c60206118a8565b604051602001611378929190612561565b6040516020818303038152906040526040517f08c379a00000000000000000000000000000000000000000000000000000000081526004016113ba9190612782565b60405180910390fd5b5050565b6113d082610955565b15611410576040517f08c379a000000000000000000000000000000000000000000000000000000000815260040161140790612824565b60405180910390fd5b611418611318565b81101561145a576040517f08c379a000000000000000000000000000000000000000000000000000000000815260040161145190612804565b60405180910390fd5b80426114669190612ac5565b60016000848152602001908152602001600020819055505050565b60007f01ffc9a7000000000000000000000000000000000000000000000000000000007bffffffffffffffffffffffffffffffffffffffffffffffffffffffff1916827bffffffffffffffffffffffffffffffffffffffffffffffffffffffff1916149050919050565b6114f4826108d2565b611533576040517f08c379a000000000000000000000000000000000000000000000000000000000815260040161152a90612844565b60405180910390fd5b6000801b811480611549575061154881610917565b5b611588576040517f08c379a000000000000000000000000000000000000000000000000000000000815260040161157f906127c4565b60405180910390fd5b5050565b60008473ffffffffffffffffffffffffffffffffffffffff168484846040516115b6929190612548565b60006040518083038185875af1925050503d80600081146115f3576040519150601f19603f3d011682016040523d82523d6000602084013e6115f8565b606091505b505090508061163c576040517f08c379a0000000000000000000000000000000000000000000000000000000008152600401611633906128c4565b60405180910390fd5b85877fc2617efa69bab66782fa219543714338489c4e9e178271560a91b82c3f612b5887878787604051611673949392919061259b565b60405180910390a350505050505050565b61168d816108d2565b6116cc576040517f08c379a00000000000000000000000000000000000000000000000000000000081526004016116c390612844565b60405180910390fd5b60018060008381526020019081526020016000208190555050565b6116f18282610dc8565b6117c357600160008084815260200190815260200160002060000160008373ffffffffffffffffffffffffffffffffffffffff1673ffffffffffffffffffffffffffffffffffffffff16815260200190815260200160002060006101000a81548160ff021916908315150217905550611768611322565b73ffffffffffffffffffffffffffffffffffffffff168173ffffffffffffffffffffffffffffffffffffffff16837f2f8788117e7eff1d82e926ec794901d17c78024a50270940304540a733656f0d60405160405180910390a45b5050565b6117d18282610dc8565b156118a457600080600084815260200190815260200160002060000160008373ffffffffffffffffffffffffffffffffffffffff1673ffffffffffffffffffffffffffffffffffffffff16815260200190815260200160002060006101000a81548160ff021916908315150217905550611849611322565b73ffffffffffffffffffffffffffffffffffffffff168173ffffffffffffffffffffffffffffffffffffffff16837ff6391f5c32d9c69d2a47ea670b442974b53935d1edc7fd64eb21e047a839171b60405160405180910390a45b5050565b6060600060028360026118bb9190612b1b565b6118c59190612ac5565b67ffffffffffffffff8111156118de576118dd612d06565b5b6040519080825280601f01601f1916602001820160405280156119105781602001600182028036833780820191505090505b5090507f30000000000000000000000000000000000000000000000000000000000000008160008151811061194857611947612cd7565b5b60200101907effffffffffffffffffffffffffffffffffffffffffffffffffffffffffffff1916908160001a9053507f7800000000000000000000000000000000000000000000000000000000000000816001815181106119ac576119ab612cd7565b5b60200101907effffffffffffffffffffffffffffffffffffffffffffffffffffffffffffff1916908160001a905350600060018460026119ec9190612b1b565b6119f69190612ac5565b90505b6001811115611a96577f3031323334353637383961626364656600000000000000000000000000000000600f861660108110611a3857611a37612cd7565b5b1a60f81b828281518110611a4f57611a4e612cd7565b5b60200101907effffffffffffffffffffffffffffffffffffffffffffffffffffffffffffff1916908160001a905350600485901c945080611a8f90612c35565b90506119f9565b5060008414611ada576040517f08c379a0000000000000000000000000000000000000000000000000000000008152600401611ad1906127a4565b60405180910390fd5b8091505092915050565b600081359050611af3816130c4565b92915050565b60008083601f840112611b0f57611b0e612d3f565b5b8235905067ffffffffffffffff811115611b2c57611b2b612d3a565b5b602083019150836020820283011115611b4857611b47612d53565b5b9250929050565b60008083601f840112611b6557611b64612d3f565b5b8235905067ffffffffffffffff811115611b8257611b81612d3a565b5b602083019150836020820283011115611b9e57611b9d612d53565b5b9250929050565b60008083601f840112611bbb57611bba612d3f565b5b8235905067ffffffffffffffff811115611bd857611bd7612d3a565b5b602083019150836020820283011115611bf457611bf3612d53565b5b9250929050565b600081359050611c0a816130db565b92915050565b600081519050611c1f816130db565b92915050565b600081359050611c34816130f2565b92915050565b60008083601f840112611c5057611c4f612d3f565b5b8235905067ffffffffffffffff811115611c6d57611c6c612d3a565b5b602083019150836001820283011115611c8957611c88612d53565b5b9250929050565b600081359050611c9f81613109565b92915050565b600060208284031215611cbb57611cba612d6c565b5b6000611cc984828501611ae4565b91505092915050565b60008060008060008060a08789031215611cef57611cee612d6c565b5b6000611cfd89828a01611ae4565b9650506020611d0e89828a01611c90565b955050604087013567ffffffffffffffff811115611d2f57611d2e612d5d565b5b611d3b89828a01611c3a565b94509450506060611d4e89828a01611bfb565b9250506080611d5f89828a01611bfb565b9150509295509295509295565b600080600080600080600060c0888a031215611d8b57611d8a612d6c565b5b6000611d998a828b01611ae4565b9750506020611daa8a828b01611c90565b965050604088013567ffffffffffffffff811115611dcb57611dca612d5d565b5b611dd78a828b01611c3a565b95509550506060611dea8a828b01611bfb565b9350506080611dfb8a828b01611bfb565b92505060a0611e0c8a828b01611c90565b91505092959891949750929550565b60008060008060008060008060a0898b031215611e3b57611e3a612d6c565b5b600089013567ffffffffffffffff811115611e5957611e58612d5d565b5b611e658b828c01611af9565b9850985050602089013567ffffffffffffffff811115611e8857611e87612d5d565b5b611e948b828c01611ba5565b9650965050604089013567ffffffffffffffff811115611eb757611eb6612d5d565b5b611ec38b828c01611b4f565b94509450506060611ed68b828c01611bfb565b9250506080611ee78b828c01611bfb565b9150509295985092959890939650565b600080600080600080600080600060c08a8c031215611f1957611f18612d6c565b5b60008a013567ffffffffffffffff811115611f3757611f36612d5d565b5b611f438c828d01611af9565b995099505060208a013567ffffffffffffffff811115611f6657611f65612d5d565b5b611f728c828d01611ba5565b975097505060408a013567ffffffffffffffff811115611f9557611f94612d5d565b5b611fa18c828d01611b4f565b95509550506060611fb48c828d01611bfb565b9350506080611fc58c828d01611bfb565b92505060a0611fd68c828d01611c90565b9150509295985092959850929598565b600060208284031215611ffc57611ffb612d6c565b5b600061200a84828501611bfb565b91505092915050565b60006020828403121561202957612028612d6c565b5b600061203784828501611c10565b91505092915050565b6000806040838503121561205757612056612d6c565b5b600061206585828601611bfb565b925050602061207685828601611ae4565b9150509250929050565b60006020828403121561209657612095612d6c565b5b60006120a484828501611c25565b91505092915050565b6000602082840312156120c3576120c2612d6c565b5b60006120d184828501611c90565b91505092915050565b60006120e68383612108565b60208301905092915050565b60006120ff848484612273565b90509392505050565b61211181612b75565b82525050565b61212081612b75565b82525050565b600061213283856129cf565b935061213d8261298b565b8060005b85811015612176576121538284612a4b565b61215d88826120da565b9750612168836129b5565b925050600181019050612141565b5085925050509392505050565b600061218f83856129e0565b9350836020840285016121a184612995565b8060005b878110156121e75784840389526121bc8284612a62565b6121c78682846120f2565b95506121d2846129c2565b935060208b019a5050506001810190506121a5565b50829750879450505050509392505050565b600061220583856129f1565b93507f07ffffffffffffffffffffffffffffffffffffffffffffffffffffffffffffff83111561223857612237612d62565b5b602083029250612249838584612bf3565b82840190509392505050565b61225e81612b87565b82525050565b61226d81612b93565b82525050565b600061227f8385612a02565b935061228c838584612bf3565b61229583612d71565b840190509392505050565b60006122ac8385612a13565b93506122b9838584612bf3565b6122c283612d71565b840190509392505050565b60006122d98385612a24565b93506122e6838584612bf3565b82840190509392505050565b60006122fd8261299f565b6123078185612a13565b9350612317818560208601612c02565b61232081612d71565b840191505092915050565b6000612336826129aa565b6123408185612a2f565b9350612350818560208601612c02565b61235981612d71565b840191505092915050565b600061236f826129aa565b6123798185612a40565b9350612389818560208601612c02565b80840191505092915050565b60006123a2602083612a2f565b91506123ad82612d82565b602082019050919050565b60006123c5602683612a2f565b91506123d082612dab565b604082019050919050565b60006123e8602383612a2f565b91506123f382612dfa565b604082019050919050565b600061240b602683612a2f565b915061241682612e49565b604082019050919050565b600061242e602f83612a2f565b915061243982612e98565b604082019050919050565b6000612451602a83612a2f565b915061245c82612ee7565b604082019050919050565b6000612474601783612a40565b915061247f82612f36565b601782019050919050565b6000612497603183612a2f565b91506124a282612f5f565b604082019050919050565b60006124ba601183612a40565b91506124c582612fae565b601182019050919050565b60006124dd602b83612a2f565b91506124e882612fd7565b604082019050919050565b6000612500602f83612a2f565b915061250b82613026565b604082019050919050565b6000612523603383612a2f565b915061252e82613075565b604082019050919050565b61254281612be9565b82525050565b60006125558284866122cd565b91508190509392505050565b600061256c82612467565b91506125788285612364565b9150612583826124ad565b915061258f8284612364565b91508190509392505050565b60006060820190506125b06000830187612117565b6125bd6020830186612539565b81810360408301526125d08184866122a0565b905095945050505050565b600060a0820190506125f06000830189612117565b6125fd6020830188612539565b81810360408301526126108186886122a0565b905061261f6060830185612264565b61262c6080830184612264565b979650505050505050565b600060a08201905061264c6000830189612117565b6126596020830188612539565b818103604083015261266c8186886122a0565b905061267b6060830185612264565b6126886080830184612539565b979650505050505050565b600060a08201905081810360008301526126ae818a8c612126565b905081810360208301526126c381888a6121f9565b905081810360408301526126d8818688612183565b90506126e76060830185612264565b6126f46080830184612264565b9998505050505050505050565b60006020820190506127166000830184612255565b92915050565b60006020820190506127316000830184612264565b92915050565b600060408201905061274c6000830185612264565b6127596020830184612117565b9392505050565b6000602082019050818103600083015261277a81846122f2565b905092915050565b6000602082019050818103600083015261279c818461232b565b905092915050565b600060208201905081810360008301526127bd81612395565b9050919050565b600060208201905081810360008301526127dd816123b8565b9050919050565b600060208201905081810360008301526127fd816123db565b9050919050565b6000602082019050818103600083015261281d816123fe565b9050919050565b6000602082019050818103600083015261283d81612421565b9050919050565b6000602082019050818103600083015261285d81612444565b9050919050565b6000602082019050818103600083015261287d8161248a565b9050919050565b6000602082019050818103600083015261289d816124d0565b9050919050565b600060208201905081810360008301526128bd816124f3565b9050919050565b600060208201905081810360008301526128dd81612516565b9050919050565b60006020820190506128f96000830184612539565b92915050565b60006040820190506129146000830185612539565b6129216020830184612539565b9392505050565b6000808335600160200384360303811261294557612944612d49565b5b80840192508235915067ffffffffffffffff82111561296757612966612d44565b5b60208301925060018202360383131561298357612982612d58565b5b509250929050565b6000819050919050565b6000819050919050565b600081519050919050565b600081519050919050565b6000602082019050919050565b6000602082019050919050565b600082825260208201905092915050565b600082825260208201905092915050565b600082825260208201905092915050565b600082825260208201905092915050565b600082825260208201905092915050565b600081905092915050565b600082825260208201905092915050565b600081905092915050565b6000612a5a6020840184611ae4565b905092915050565b60008083356001602003843603038112612a7f57612a7e612d67565b5b83810192508235915060208301925067ffffffffffffffff821115612aa757612aa6612d35565b5b600182023603841315612abd57612abc612d4e565b5b509250929050565b6000612ad082612be9565b9150612adb83612be9565b9250827fffffffffffffffffffffffffffffffffffffffffffffffffffffffffffffffff03821115612b1057612b0f612ca8565b5b828201905092915050565b6000612b2682612be9565b9150612b3183612be9565b9250817fffffffffffffffffffffffffffffffffffffffffffffffffffffffffffffffff0483118215151615612b6a57612b69612ca8565b5b828202905092915050565b6000612b8082612bc9565b9050919050565b60008115159050919050565b6000819050919050565b60007fffffffff0000000000000000000000000000000000000000000000000000000082169050919050565b600073ffffffffffffffffffffffffffffffffffffffff82169050919050565b6000819050919050565b82818337600083830152505050565b60005b83811015612c20578082015181840152602081019050612c05565b83811115612c2f576000848401525b50505050565b6000612c4082612be9565b91506000821415612c5457612c53612ca8565b5b600182039050919050565b6000612c6a82612be9565b91507fffffffffffffffffffffffffffffffffffffffffffffffffffffffffffffffff821415612c9d57612c9c612ca8565b5b600182019050919050565b7f4e487b7100000000000000000000000000000000000000000000000000000000600052601160045260246000fd5b7f4e487b7100000000000000000000000000000000000000000000000000000000600052603260045260246000fd5b7f4e487b7100000000000000000000000000000000000000000000000000000000600052604160045260246000fd5b600080fd5b600080fd5b600080fd5b600080fd5b600080fd5b600080fd5b600080fd5b600080fd5b600080fd5b600080fd5b600080fd5b600080fd5b6000601f19601f8301169050919050565b7f537472696e67733a20686578206c656e67746820696e73756666696369656e74600082015250565b7f54696d656c6f636b436f6e74726f6c6c65723a206d697373696e67206465706560008201527f6e64656e63790000000000000000000000000000000000000000000000000000602082015250565b7f54696d656c6f636b436f6e74726f6c6c65723a206c656e677468206d69736d6160008201527f7463680000000000000000000000000000000000000000000000000000000000602082015250565b7f54696d656c6f636b436f6e74726f6c6c65723a20696e73756666696369656e7460008201527f2064656c61790000000000000000000000000000000000000000000000000000602082015250565b7f54696d656c6f636b436f6e74726f6c6c65723a206f7065726174696f6e20616c60008201527f7265616479207363686564756c65640000000000000000000000000000000000602082015250565b7f54696d656c6f636b436f6e74726f6c6c65723a206f7065726174696f6e20697360008201527f206e6f7420726561647900000000000000000000000000000000000000000000602082015250565b7f416363657373436f6e74726f6c3a206163636f756e7420000000000000000000600082015250565b7f54696d656c6f636b436f6e74726f6c6c65723a206f7065726174696f6e20636160008201527f6e6e6f742062652063616e63656c6c6564000000000000000000000000000000602082015250565b7f206973206d697373696e6720726f6c6520000000000000000000000000000000600082015250565b7f54696d656c6f636b436f6e74726f6c6c65723a2063616c6c6572206d7573742060008201527f62652074696d656c6f636b000000000000000000000000000000000000000000602082015250565b7f416363657373436f6e74726f6c3a2063616e206f6e6c792072656e6f756e636560008201527f20726f6c657320666f722073656c660000000000000000000000000000000000602082015250565b7f54696d656c6f636b436f6e74726f6c6c65723a20756e6465726c79696e67207460008201527f72616e73616374696f6e20726576657274656400000000000000000000000000602082015250565b6130cd81612b75565b81146130d857600080fd5b50565b6130e481612b93565b81146130ef57600080fd5b50565b6130fb81612b9d565b811461310657600080fd5b50565b61311281612be9565b811461311d57600080fd5b5056fea26469706673582212202d458186b0f4e8b707d12869e11f3f5ed71aa4845413afdfd2a0bd1d949e693a64736f6c63430008070033",
  "linkReferences": {},
  "deployedLinkReferences": {}
}