{
  "_format": "hh-sol-artifact-1",
  "contractName": "GovernanceTimeLock",
  "sourceName": "contracts/governance_standard/GovernanceTimeLock.sol",
  "abi": [
    {
      "inputs": [
        {
          "internalType": "uint256",
          "name": "minDelay",
          "type": "uint256"
        },
        {
          "internalType": "address[]",
          "name": "proposers",
          "type": "address[]"
        },
        {
          "internalType": "address[]",
          "name": "executors",
          "type": "address[]"
        }
      ],
      "stateMutability": "nonpayable",
      "type": "constructor"
    },
    {
      "anonymous": false,
      "inputs": [
        {
          "indexed": true,
          "internalType": "bytes32",
          "name": "id",
          "type": "bytes32"
        },
        {
          "indexed": true,
          "internalType": "uint256",
          "name": "index",
          "type": "uint256"
        },
        {
          "indexed": false,
          "internalType": "address",
          "name": "target",
          "type": "address"
        },
        {
          "indexed": false,
          "internalType": "uint256",
          "name": "value",
          "type": "uint256"
        },
        {
          "indexed": false,
          "internalType": "bytes",
          "name": "data",
          "type": "bytes"
        }
      ],
      "name": "CallExecuted",
      "type": "event"
    },
    {
      "anonymous": false,
      "inputs": [
        {
          "indexed": true,
          "internalType": "bytes32",
          "name": "id",
          "type": "bytes32"
        },
        {
          "indexed": true,
          "internalType": "uint256",
          "name": "index",
          "type": "uint256"
        },
        {
          "indexed": false,
          "internalType": "address",
          "name": "target",
          "type": "address"
        },
        {
          "indexed": false,
          "internalType": "uint256",
          "name": "value",
          "type": "uint256"
        },
        {
          "indexed": false,
          "internalType": "bytes",
          "name": "data",
          "type": "bytes"
        },
        {
          "indexed": false,
          "internalType": "bytes32",
          "name": "predecessor",
          "type": "bytes32"
        },
        {
          "indexed": false,
          "internalType": "uint256",
          "name": "delay",
          "type": "uint256"
        }
      ],
      "name": "CallScheduled",
      "type": "event"
    },
    {
      "anonymous": false,
      "inputs": [
        {
          "indexed": true,
          "internalType": "bytes32",
          "name": "id",
          "type": "bytes32"
        }
      ],
      "name": "Cancelled",
      "type": "event"
    },
    {
      "anonymous": false,
      "inputs": [
        {
          "indexed": false,
          "internalType": "uint256",
          "name": "oldDuration",
          "type": "uint256"
        },
        {
          "indexed": false,
          "internalType": "uint256",
          "name": "newDuration",
          "type": "uint256"
        }
      ],
      "name": "MinDelayChange",
      "type": "event"
    },
    {
      "anonymous": false,
      "inputs": [
        {
          "indexed": true,
          "internalType": "bytes32",
          "name": "role",
          "type": "bytes32"
        },
        {
          "indexed": true,
          "internalType": "bytes32",
          "name": "previousAdminRole",
          "type": "bytes32"
        },
        {
          "indexed": true,
          "internalType": "bytes32",
          "name": "newAdminRole",
          "type": "bytes32"
        }
      ],
      "name": "RoleAdminChanged",
      "type": "event"
    },
    {
      "anonymous": false,
      "inputs": [
        {
          "indexed": true,
          "internalType": "bytes32",
          "name": "role",
          "type": "bytes32"
        },
        {
          "indexed": true,
          "internalType": "address",
          "name": "account",
          "type": "address"
        },
        {
          "indexed": true,
          "internalType": "address",
          "name": "sender",
          "type": "address"
        }
      ],
      "name": "RoleGranted",
      "type": "event"
    },
    {
      "anonymous": false,
      "inputs": [
        {
          "indexed": true,
          "internalType": "bytes32",
          "name": "role",
          "type": "bytes32"
        },
        {
          "indexed": true,
          "internalType": "address",
          "name": "account",
          "type": "address"
        },
        {
          "indexed": true,
          "internalType": "address",
          "name": "sender",
          "type": "address"
        }
      ],
      "name": "RoleRevoked",
      "type": "event"
    },
    {
      "inputs": [],
      "name": "DEFAULT_ADMIN_ROLE",
      "outputs": [
        {
          "internalType": "bytes32",
          "name": "",
          "type": "bytes32"
        }
      ],
      "stateMutability": "view",
      "type": "function"
    },
    {
      "inputs": [],
      "name": "EXECUTOR_ROLE",
      "outputs": [
        {
          "internalType": "bytes32",
          "name": "",
          "type": "bytes32"
        }
      ],
      "stateMutability": "view",
      "type": "function"
    },
    {
      "inputs": [],
      "name": "PROPOSER_ROLE",
      "outputs": [
        {
          "internalType": "bytes32",
          "name": "",
          "type": "bytes32"
        }
      ],
      "stateMutability": "view",
      "type": "function"
    },
    {
      "inputs": [],
      "name": "TIMELOCK_ADMIN_ROLE",
      "outputs": [
        {
          "internalType": "bytes32",
          "name": "",
          "type": "bytes32"
        }
      ],
      "stateMutability": "view",
      "type": "function"
    },
    {
      "inputs": [
        {
          "internalType": "bytes32",
          "name": "id",
          "type": "bytes32"
        }
      ],
      "name": "cancel",
      "outputs": [],
      "stateMutability": "nonpayable",
      "type": "function"
    },
    {
      "inputs": [
        {
          "internalType": "address",
          "name": "target",
          "type": "address"
        },
        {
          "internalType": "uint256",
          "name": "value",
          "type": "uint256"
        },
        {
          "internalType": "bytes",
          "name": "data",
          "type": "bytes"
        },
        {
          "internalType": "bytes32",
          "name": "predecessor",
          "type": "bytes32"
        },
        {
          "internalType": "bytes32",
          "name": "salt",
          "type": "bytes32"
        }
      ],
      "name": "execute",
      "outputs": [],
      "stateMutability": "payable",
      "type": "function"
    },
    {
      "inputs": [
        {
          "internalType": "address[]",
          "name": "targets",
          "type": "address[]"
        },
        {
          "internalType": "uint256[]",
          "name": "values",
          "type": "uint256[]"
        },
        {
          "internalType": "bytes[]",
          "name": "datas",
          "type": "bytes[]"
        },
        {
          "internalType": "bytes32",
          "name": "predecessor",
          "type": "bytes32"
        },
        {
          "internalType": "bytes32",
          "name": "salt",
          "type": "bytes32"
        }
      ],
      "name": "executeBatch",
      "outputs": [],
      "stateMutability": "payable",
      "type": "function"
    },
    {
      "inputs": [
        {
          "internalType": "address",
          "name": "account",
          "type": "address"
        }
      ],
      "name": "getDataGrantExecutorRole",
      "outputs": [
        {
          "internalType": "bytes",
          "name": "",
          "type": "bytes"
        }
      ],
      "stateMutability": "view",
      "type": "function"
    },
    {
      "inputs": [
        {
          "internalType": "address",
          "name": "account",
          "type": "address"
        }
      ],
      "name": "getDataGrantProposerRole",
      "outputs": [
        {
          "internalType": "bytes",
          "name": "",
          "type": "bytes"
        }
      ],
      "stateMutability": "view",
      "type": "function"
    },
    {
      "inputs": [
        {
          "internalType": "address",
          "name": "account",
          "type": "address"
        }
      ],
      "name": "getDataRevokeTimeLockRole",
      "outputs": [
        {
          "internalType": "bytes",
          "name": "",
          "type": "bytes"
        }
      ],
      "stateMutability": "view",
      "type": "function"
    },
    {
      "inputs": [],
      "name": "getMinDelay",
      "outputs": [
        {
          "internalType": "uint256",
          "name": "duration",
          "type": "uint256"
        }
      ],
      "stateMutability": "view",
      "type": "function"
    },
    {
      "inputs": [
        {
          "internalType": "bytes32",
          "name": "role",
          "type": "bytes32"
        }
      ],
      "name": "getRoleAdmin",
      "outputs": [
        {
          "internalType": "bytes32",
          "name": "",
          "type": "bytes32"
        }
      ],
      "stateMutability": "view",
      "type": "function"
    },
    {
      "inputs": [
        {
          "internalType": "bytes32",
          "name": "id",
          "type": "bytes32"
        }
      ],
      "name": "getTimestamp",
      "outputs": [
        {
          "internalType": "uint256",
          "name": "timestamp",
          "type": "uint256"
        }
      ],
      "stateMutability": "view",
      "type": "function"
    },
    {
      "inputs": [
        {
          "internalType": "bytes32",
          "name": "role",
          "type": "bytes32"
        },
        {
          "internalType": "address",
          "name": "account",
          "type": "address"
        }
      ],
      "name": "grantRole",
      "outputs": [],
      "stateMutability": "nonpayable",
      "type": "function"
    },
    {
      "inputs": [
        {
          "internalType": "bytes32",
          "name": "role",
          "type": "bytes32"
        },
        {
          "internalType": "address",
          "name": "account",
          "type": "address"
        }
      ],
      "name": "hasRole",
      "outputs": [
        {
          "internalType": "bool",
          "name": "",
          "type": "bool"
        }
      ],
      "stateMutability": "view",
      "type": "function"
    },
    {
      "inputs": [
        {
          "internalType": "address",
          "name": "target",
          "type": "address"
        },
        {
          "internalType": "uint256",
          "name": "value",
          "type": "uint256"
        },
        {
          "internalType": "bytes",
          "name": "data",
          "type": "bytes"
        },
        {
          "internalType": "bytes32",
          "name": "predecessor",
          "type": "bytes32"
        },
        {
          "internalType": "bytes32",
          "name": "salt",
          "type": "bytes32"
        }
      ],
      "name": "hashOperation",
      "outputs": [
        {
          "internalType": "bytes32",
          "name": "hash",
          "type": "bytes32"
        }
      ],
      "stateMutability": "pure",
      "type": "function"
    },
    {
      "inputs": [
        {
          "internalType": "address[]",
          "name": "targets",
          "type": "address[]"
        },
        {
          "internalType": "uint256[]",
          "name": "values",
          "type": "uint256[]"
        },
        {
          "internalType": "bytes[]",
          "name": "datas",
          "type": "bytes[]"
        },
        {
          "internalType": "bytes32",
          "name": "predecessor",
          "type": "bytes32"
        },
        {
          "internalType": "bytes32",
          "name": "salt",
          "type": "bytes32"
        }
      ],
      "name": "hashOperationBatch",
      "outputs": [
        {
          "internalType": "bytes32",
          "name": "hash",
          "type": "bytes32"
        }
      ],
      "stateMutability": "pure",
      "type": "function"
    },
    {
      "inputs": [
        {
          "internalType": "bytes32",
          "name": "id",
          "type": "bytes32"
        }
      ],
      "name": "isOperation",
      "outputs": [
        {
          "internalType": "bool",
          "name": "pending",
          "type": "bool"
        }
      ],
      "stateMutability": "view",
      "type": "function"
    },
    {
      "inputs": [
        {
          "internalType": "bytes32",
          "name": "id",
          "type": "bytes32"
        }
      ],
      "name": "isOperationDone",
      "outputs": [
        {
          "internalType": "bool",
          "name": "done",
          "type": "bool"
        }
      ],
      "stateMutability": "view",
      "type": "function"
    },
    {
      "inputs": [
        {
          "internalType": "bytes32",
          "name": "id",
          "type": "bytes32"
        }
      ],
      "name": "isOperationPending",
      "outputs": [
        {
          "internalType": "bool",
          "name": "pending",
          "type": "bool"
        }
      ],
      "stateMutability": "view",
      "type": "function"
    },
    {
      "inputs": [
        {
          "internalType": "bytes32",
          "name": "id",
          "type": "bytes32"
        }
      ],
      "name": "isOperationReady",
      "outputs": [
        {
          "internalType": "bool",
          "name": "ready",
          "type": "bool"
        }
      ],
      "stateMutability": "view",
      "type": "function"
    },
    {
      "inputs": [
        {
          "internalType": "bytes32",
          "name": "role",
          "type": "bytes32"
        },
        {
          "internalType": "address",
          "name": "account",
          "type": "address"
        }
      ],
      "name": "renounceRole",
      "outputs": [],
      "stateMutability": "nonpayable",
      "type": "function"
    },
    {
      "inputs": [
        {
          "internalType": "bytes32",
          "name": "role",
          "type": "bytes32"
        },
        {
          "internalType": "address",
          "name": "account",
          "type": "address"
        }
      ],
      "name": "revokeRole",
      "outputs": [],
      "stateMutability": "nonpayable",
      "type": "function"
    },
    {
      "inputs": [
        {
          "internalType": "address",
          "name": "target",
          "type": "address"
        },
        {
          "internalType": "uint256",
          "name": "value",
          "type": "uint256"
        },
        {
          "internalType": "bytes",
          "name": "data",
          "type": "bytes"
        },
        {
          "internalType": "bytes32",
          "name": "predecessor",
          "type": "bytes32"
        },
        {
          "internalType": "bytes32",
          "name": "salt",
          "type": "bytes32"
        },
        {
          "internalType": "uint256",
          "name": "delay",
          "type": "uint256"
        }
      ],
      "name": "schedule",
      "outputs": [],
      "stateMutability": "nonpayable",
      "type": "function"
    },
    {
      "inputs": [
        {
          "internalType": "address[]",
          "name": "targets",
          "type": "address[]"
        },
        {
          "internalType": "uint256[]",
          "name": "values",
          "type": "uint256[]"
        },
        {
          "internalType": "bytes[]",
          "name": "datas",
          "type": "bytes[]"
        },
        {
          "internalType": "bytes32",
          "name": "predecessor",
          "type": "bytes32"
        },
        {
          "internalType": "bytes32",
          "name": "salt",
          "type": "bytes32"
        },
        {
          "internalType": "uint256",
          "name": "delay",
          "type": "uint256"
        }
      ],
      "name": "scheduleBatch",
      "outputs": [],
      "stateMutability": "nonpayable",
      "type": "function"
    },
    {
      "inputs": [
        {
          "internalType": "bytes4",
          "name": "interfaceId",
          "type": "bytes4"
        }
      ],
      "name": "supportsInterface",
      "outputs": [
        {
          "internalType": "bool",
          "name": "",
          "type": "bool"
        }
      ],
      "stateMutability": "view",
      "type": "function"
    },
    {
      "inputs": [
        {
          "internalType": "uint256",
          "name": "newDelay",
          "type": "uint256"
        }
      ],
      "name": "updateDelay",
      "outputs": [],
      "stateMutability": "nonpayable",
      "type": "function"
    },
    {
      "stateMutability": "payable",
      "type": "receive"
    }
  ],
  "bytecode": "0x60806040523480156200001157600080fd5b5060405162003a0638038062003a0683398181016040528101906200003791906200058b565b8282826200006c7f5f58e3a2316349923ce3780f8d587db2d72378aed66a8261c916544fa6846ca580620002b460201b60201c565b620000be7fb09aa5aeb3702cfd50b6b62bc4532604938f21248a27a1d5ca736082b6819cc17f5f58e3a2316349923ce3780f8d587db2d72378aed66a8261c916544fa6846ca5620002b460201b60201c565b620001107fd8aa0f3194971a2a116679f7c2090f6939c8d4e01a2a8d7e41d55e5351469e637f5f58e3a2316349923ce3780f8d587db2d72378aed66a8261c916544fa6846ca5620002b460201b60201c565b620001517f5f58e3a2316349923ce3780f8d587db2d72378aed66a8261c916544fa6846ca5620001456200031760201b60201c565b6200031f60201b60201c565b620001837f5f58e3a2316349923ce3780f8d587db2d72378aed66a8261c916544fa6846ca5306200031f60201b60201c565b60005b8251811015620001f357620001df7fb09aa5aeb3702cfd50b6b62bc4532604938f21248a27a1d5ca736082b6819cc1848381518110620001cb57620001ca620007d1565b5b60200260200101516200031f60201b60201c565b80620001eb9062000754565b905062000186565b5060005b81518110156200026457620002507fd8aa0f3194971a2a116679f7c2090f6939c8d4e01a2a8d7e41d55e5351469e638383815181106200023c576200023b620007d1565b5b60200260200101516200031f60201b60201c565b806200025c9062000754565b9050620001f7565b50826002819055507f11c24f4ead16507c69ac467fbd5e4eed5fb5c699626d2cc6d66421df253886d5600084604051620002a092919062000647565b60405180910390a150505050505062000888565b6000620002c7836200033560201b60201c565b905081600080858152602001908152602001600020600101819055508181847fbd79b86ffe0ab8e8776151514217cd7cacd52c909f66475c3af44e129f0b00ff60405160405180910390a4505050565b600033905090565b6200033182826200035460201b60201c565b5050565b6000806000838152602001908152602001600020600101549050919050565b6200036682826200044560201b60201c565b6200044157600160008084815260200190815260200160002060000160008373ffffffffffffffffffffffffffffffffffffffff1673ffffffffffffffffffffffffffffffffffffffff16815260200190815260200160002060006101000a81548160ff021916908315150217905550620003e66200031760201b60201c565b73ffffffffffffffffffffffffffffffffffffffff168173ffffffffffffffffffffffffffffffffffffffff16837f2f8788117e7eff1d82e926ec794901d17c78024a50270940304540a733656f0d60405160405180910390a45b5050565b600080600084815260200190815260200160002060000160008373ffffffffffffffffffffffffffffffffffffffff1673ffffffffffffffffffffffffffffffffffffffff16815260200190815260200160002060009054906101000a900460ff16905092915050565b6000620004c6620004c0846200069d565b62000674565b90508083825260208201905082856020860282011115620004ec57620004eb62000834565b5b60005b858110156200052057816200050588826200052a565b845260208401935060208301925050600181019050620004ef565b5050509392505050565b6000815190506200053b8162000854565b92915050565b600082601f8301126200055957620005586200082f565b5b81516200056b848260208601620004af565b91505092915050565b60008151905062000585816200086e565b92915050565b600080600060608486031215620005a757620005a66200083e565b5b6000620005b78682870162000574565b935050602084015167ffffffffffffffff811115620005db57620005da62000839565b5b620005e98682870162000541565b925050604084015167ffffffffffffffff8111156200060d576200060c62000839565b5b6200061b8682870162000541565b9150509250925092565b62000630816200070a565b82525050565b620006418162000700565b82525050565b60006040820190506200065e600083018562000625565b6200066d602083018462000636565b9392505050565b60006200068062000693565b90506200068e82826200071e565b919050565b6000604051905090565b600067ffffffffffffffff821115620006bb57620006ba62000800565b5b602082029050602081019050919050565b6000620006d982620006e0565b9050919050565b600073ffffffffffffffffffffffffffffffffffffffff82169050919050565b6000819050919050565b6000620007178262000700565b9050919050565b620007298262000843565b810181811067ffffffffffffffff821117156200074b576200074a62000800565b5b80604052505050565b6000620007618262000700565b91507fffffffffffffffffffffffffffffffffffffffffffffffffffffffffffffffff821415620007975762000796620007a2565b5b600182019050919050565b7f4e487b7100000000000000000000000000000000000000000000000000000000600052601160045260246000fd5b7f4e487b7100000000000000000000000000000000000000000000000000000000600052603260045260246000fd5b7f4e487b7100000000000000000000000000000000000000000000000000000000600052604160045260246000fd5b600080fd5b600080fd5b600080fd5b600080fd5b6000601f19601f8301169050919050565b6200085f81620006cc565b81146200086b57600080fd5b50565b620008798162000700565b81146200088557600080fd5b50565b61316e80620008986000396000f3fe6080604052600436106101a05760003560e01c8063584b153e116100ec578063b1c5f4271161008a578063d45c443511610064578063d45c443514610646578063d547741f14610683578063e38335e5146106ac578063f27a0c92146106c8576101a7565b8063b1c5f427146105a3578063b7cb30df146105e0578063c4d252f51461061d576101a7565b80638f2a0bb0116100c65780638f2a0bb0146104e75780638f61f4f51461051057806391d148541461053b578063a217fddf14610578576101a7565b8063584b153e1461044457806364d62353146104815780638065657f146104aa576101a7565b806316c11aba116101595780632f2ff15d116101335780632f2ff15d1461037857806331d50750146103a157806336568abe146103de5780634bec037014610407576101a7565b806316c11aba146102c1578063248a9ca3146102fe5780632ab0f5291461033b576101a7565b806301d5062a146101ac57806301ffc9a7146101d557806307bd0265146102125780630d3cf6fc1461023d578063134008d31461026857806313bc9f2014610284576101a7565b366101a757005b600080fd5b3480156101b857600080fd5b506101d360048036038101906101ce9190611d84565b6106f3565b005b3480156101e157600080fd5b506101fc60048036038101906101f79190612098565b610790565b6040516102099190612719565b60405180910390f35b34801561021e57600080fd5b5061022761080a565b6040516102349190612734565b60405180910390f35b34801561024957600080fd5b5061025261082e565b60405161025f9190612734565b60405180910390f35b610282600480360381019061027d9190611cea565b610852565b005b34801561029057600080fd5b506102ab60048036038101906102a69190611ffe565b6108d2565b6040516102b89190612719565b60405180910390f35b3480156102cd57600080fd5b506102e860048036038101906102e39190611cbd565b6108f8565b6040516102f59190612778565b60405180910390f35b34801561030a57600080fd5b5061032560048036038101906103209190611ffe565b610a0e565b6040516103329190612734565b60405180910390f35b34801561034757600080fd5b50610362600480360381019061035d9190611ffe565b610a2d565b60405161036f9190612719565b60405180910390f35b34801561038457600080fd5b5061039f600480360381019061039a9190612058565b610a42565b005b3480156103ad57600080fd5b506103c860048036038101906103c39190611ffe565b610a6b565b6040516103d59190612719565b60405180910390f35b3480156103ea57600080fd5b5061040560048036038101906104009190612058565b610a7f565b005b34801561041357600080fd5b5061042e60048036038101906104299190611cbd565b610b02565b60405161043b9190612778565b60405180910390f35b34801561045057600080fd5b5061046b60048036038101906104669190611ffe565b610c00565b6040516104789190612719565b60405180910390f35b34801561048d57600080fd5b506104a860048036038101906104a391906120c5565b610c15565b005b3480156104b657600080fd5b506104d160048036038101906104cc9190611cea565b610cc8565b6040516104de9190612734565b60405180910390f35b3480156104f357600080fd5b5061050e60048036038101906105099190611f0f565b610d07565b005b34801561051c57600080fd5b50610525610eba565b6040516105329190612734565b60405180910390f35b34801561054757600080fd5b50610562600480360381019061055d9190612058565b610ede565b60405161056f9190612719565b60405180910390f35b34801561058457600080fd5b5061058d610f48565b60405161059a9190612734565b60405180910390f35b3480156105af57600080fd5b506105ca60048036038101906105c59190611e33565b610f4f565b6040516105d79190612734565b60405180910390f35b3480156105ec57600080fd5b5061060760048036038101906106029190611cbd565b610f94565b6040516106149190612778565b60405180910390f35b34801561062957600080fd5b50610644600480360381019061063f9190611ffe565b611092565b005b34801561065257600080fd5b5061066d60048036038101906106689190611ffe565b611154565b60405161067a91906128fc565b60405180910390f35b34801561068f57600080fd5b506106aa60048036038101906106a59190612058565b611171565b005b6106c660048036038101906106c19190611e33565b61119a565b005b3480156106d457600080fd5b506106dd611330565b6040516106ea91906128fc565b60405180910390f35b7fb09aa5aeb3702cfd50b6b62bc4532604938f21248a27a1d5ca736082b6819cc16107258161072061133a565b611342565b6000610735898989898989610cc8565b905061074181846113df565b6000817f4cf4410cc57040e44862ef0f45f3dd5a5e02db8eb8add648d4b0e236f1d07dca8b8b8b8b8b8a60405161077d9695949392919061264f565b60405180910390a3505050505050505050565b60007f7965db0b000000000000000000000000000000000000000000000000000000007bffffffffffffffffffffffffffffffffffffffffffffffffffffffff1916827bffffffffffffffffffffffffffffffffffffffffffffffffffffffff19161480610803575061080282611499565b5b9050919050565b7fd8aa0f3194971a2a116679f7c2090f6939c8d4e01a2a8d7e41d55e5351469e6381565b7f5f58e3a2316349923ce3780f8d587db2d72378aed66a8261c916544fa6846ca581565b7fd8aa0f3194971a2a116679f7c2090f6939c8d4e01a2a8d7e41d55e5351469e6361087e816000610ede565b610894576108938161088e61133a565b611342565b5b60006108a4888888888888610cc8565b90506108b08185611503565b6108bf8160008a8a8a8a6115a4565b6108c88161169c565b5050505050505050565b6000806108de83611154565b90506001811180156108f05750428111155b915050919050565b60603073ffffffffffffffffffffffffffffffffffffffff16638f61f4f56040518163ffffffff1660e01b815260040160206040518083038186803b15801561094057600080fd5b505afa158015610954573d6000803e3d6000fd5b505050506040513d601f19601f82011682018060405250810190610978919061202b565b8260405160240161098a92919061274f565b6040516020818303038152906040527f2f2ff15d000000000000000000000000000000000000000000000000000000007bffffffffffffffffffffffffffffffffffffffffffffffffffffffff19166020820180517bffffffffffffffffffffffffffffffffffffffffffffffffffffffff83818316178352505050509050919050565b6000806000838152602001908152602001600020600101549050919050565b60006001610a3a83611154565b149050919050565b610a4b82610a0e565b610a5c81610a5761133a565b611342565b610a6683836116ff565b505050565b600080610a7783611154565b119050919050565b610a8761133a565b73ffffffffffffffffffffffffffffffffffffffff168173ffffffffffffffffffffffffffffffffffffffff1614610af4576040517f08c379a0000000000000000000000000000000000000000000000000000000008152600401610aeb906128bc565b60405180910390fd5b610afe82826117df565b5050565b6060632f2ff15d60e01b3073ffffffffffffffffffffffffffffffffffffffff166307bd02656040518163ffffffff1660e01b815260040160206040518083038186803b158015610b5257600080fd5b505afa158015610b66573d6000803e3d6000fd5b505050506040513d601f19601f82011682018060405250810190610b8a919061202b565b83604051602401610b9c92919061274f565b604051602081830303815290604052907bffffffffffffffffffffffffffffffffffffffffffffffffffffffff19166020820180517bffffffffffffffffffffffffffffffffffffffffffffffffffffffff83818316178352505050509050919050565b60006001610c0d83611154565b119050919050565b3073ffffffffffffffffffffffffffffffffffffffff163373ffffffffffffffffffffffffffffffffffffffff1614610c83576040517f08c379a0000000000000000000000000000000000000000000000000000000008152600401610c7a9061289c565b60405180910390fd5b7f11c24f4ead16507c69ac467fbd5e4eed5fb5c699626d2cc6d66421df253886d560025482604051610cb6929190612917565b60405180910390a18060028190555050565b6000868686868686604051602001610ce5969594939291906125f3565b6040516020818303038152906040528051906020012090509695505050505050565b7fb09aa5aeb3702cfd50b6b62bc4532604938f21248a27a1d5ca736082b6819cc1610d3981610d3461133a565b611342565b878790508a8a905014610d81576040517f08c379a0000000000000000000000000000000000000000000000000000000008152600401610d78906127fc565b60405180910390fd5b858590508a8a905014610dc9576040517f08c379a0000000000000000000000000000000000000000000000000000000008152600401610dc0906127fc565b60405180910390fd5b6000610ddb8b8b8b8b8b8b8b8b610f4f565b9050610de781846113df565b60005b8b8b9050811015610eac5780827f4cf4410cc57040e44862ef0f45f3dd5a5e02db8eb8add648d4b0e236f1d07dca8e8e85818110610e2b57610e2a612cef565b5b9050602002016020810190610e409190611cbd565b8d8d86818110610e5357610e52612cef565b5b905060200201358c8c87818110610e6d57610e6c612cef565b5b9050602002810190610e7f9190612940565b8c8b604051610e939695949392919061264f565b60405180910390a380610ea590612c77565b9050610dea565b505050505050505050505050565b7fb09aa5aeb3702cfd50b6b62bc4532604938f21248a27a1d5ca736082b6819cc181565b600080600084815260200190815260200160002060000160008373ffffffffffffffffffffffffffffffffffffffff1673ffffffffffffffffffffffffffffffffffffffff16815260200190815260200160002060009054906101000a900460ff16905092915050565b6000801b81565b60008888888888888888604051602001610f709897969594939291906126ab565b60405160208183030381529060405280519060200120905098975050505050505050565b606063d547741f60e01b3073ffffffffffffffffffffffffffffffffffffffff16630d3cf6fc6040518163ffffffff1660e01b815260040160206040518083038186803b158015610fe457600080fd5b505afa158015610ff8573d6000803e3d6000fd5b505050506040513d601f19601f8201168201806040525081019061101c919061202b565b8360405160240161102e92919061274f565b604051602081830303815290604052907bffffffffffffffffffffffffffffffffffffffffffffffffffffffff19166020820180517bffffffffffffffffffffffffffffffffffffffffffffffffffffffff83818316178352505050509050919050565b7fb09aa5aeb3702cfd50b6b62bc4532604938f21248a27a1d5ca736082b6819cc16110c4816110bf61133a565b611342565b6110cd82610c00565b61110c576040517f08c379a00000000000000000000000000000000000000000000000000000000081526004016111039061287c565b60405180910390fd5b6001600083815260200190815260200160002060009055817fbaa1eb22f2a492ba1a5fea61b8df4d27c6c8b5f3971e63bb58fa14ff72eedb7060405160405180910390a25050565b600060016000838152602001908152602001600020549050919050565b61117a82610a0e565b61118b8161118661133a565b611342565b61119583836117df565b505050565b7fd8aa0f3194971a2a116679f7c2090f6939c8d4e01a2a8d7e41d55e5351469e636111c6816000610ede565b6111dc576111db816111d661133a565b611342565b5b868690508989905014611224576040517f08c379a000000000000000000000000000000000000000000000000000000000815260040161121b906127fc565b60405180910390fd5b84849050898990501461126c576040517f08c379a0000000000000000000000000000000000000000000000000000000008152600401611263906127fc565b60405180910390fd5b600061127e8a8a8a8a8a8a8a8a610f4f565b905061128a8185611503565b60005b8a8a905081101561131a5761130982828d8d858181106112b0576112af612cef565b5b90506020020160208101906112c59190611cbd565b8c8c868181106112d8576112d7612cef565b5b905060200201358b8b878181106112f2576112f1612cef565b5b90506020028101906113049190612940565b6115a4565b8061131390612c77565b905061128d565b506113248161169c565b50505050505050505050565b6000600254905090565b600033905090565b61134c8282610ede565b6113db576113718173ffffffffffffffffffffffffffffffffffffffff1660146118c0565b61137f8360001c60206118c0565b604051602001611390929190612579565b6040516020818303038152906040526040517f08c379a00000000000000000000000000000000000000000000000000000000081526004016113d2919061279a565b60405180910390fd5b5050565b6113e882610a6b565b15611428576040517f08c379a000000000000000000000000000000000000000000000000000000000815260040161141f9061283c565b60405180910390fd5b611430611330565b811015611472576040517f08c379a00000000000000000000000000000000000000000000000000000000081526004016114699061281c565b60405180910390fd5b804261147e9190612add565b60016000848152602001908152602001600020819055505050565b60007f01ffc9a7000000000000000000000000000000000000000000000000000000007bffffffffffffffffffffffffffffffffffffffffffffffffffffffff1916827bffffffffffffffffffffffffffffffffffffffffffffffffffffffff1916149050919050565b61150c826108d2565b61154b576040517f08c379a00000000000000000000000000000000000000000000000000000000081526004016115429061285c565b60405180910390fd5b6000801b811480611561575061156081610a2d565b5b6115a0576040517f08c379a0000000000000000000000000000000000000000000000000000000008152600401611597906127dc565b60405180910390fd5b5050565b60008473ffffffffffffffffffffffffffffffffffffffff168484846040516115ce929190612560565b60006040518083038185875af1925050503d806000811461160b576040519150601f19603f3d011682016040523d82523d6000602084013e611610565b606091505b5050905080611654576040517f08c379a000000000000000000000000000000000000000000000000000000000815260040161164b906128dc565b60405180910390fd5b85877fc2617efa69bab66782fa219543714338489c4e9e178271560a91b82c3f612b588787878760405161168b94939291906125b3565b60405180910390a350505050505050565b6116a5816108d2565b6116e4576040517f08c379a00000000000000000000000000000000000000000000000000000000081526004016116db9061285c565b60405180910390fd5b60018060008381526020019081526020016000208190555050565b6117098282610ede565b6117db57600160008084815260200190815260200160002060000160008373ffffffffffffffffffffffffffffffffffffffff1673ffffffffffffffffffffffffffffffffffffffff16815260200190815260200160002060006101000a81548160ff02191690831515021790555061178061133a565b73ffffffffffffffffffffffffffffffffffffffff168173ffffffffffffffffffffffffffffffffffffffff16837f2f8788117e7eff1d82e926ec794901d17c78024a50270940304540a733656f0d60405160405180910390a45b5050565b6117e98282610ede565b156118bc57600080600084815260200190815260200160002060000160008373ffffffffffffffffffffffffffffffffffffffff1673ffffffffffffffffffffffffffffffffffffffff16815260200190815260200160002060006101000a81548160ff02191690831515021790555061186161133a565b73ffffffffffffffffffffffffffffffffffffffff168173ffffffffffffffffffffffffffffffffffffffff16837ff6391f5c32d9c69d2a47ea670b442974b53935d1edc7fd64eb21e047a839171b60405160405180910390a45b5050565b6060600060028360026118d39190612b33565b6118dd9190612add565b67ffffffffffffffff8111156118f6576118f5612d1e565b5b6040519080825280601f01601f1916602001820160405280156119285781602001600182028036833780820191505090505b5090507f3000000000000000000000000000000000000000000000000000000000000000816000815181106119605761195f612cef565b5b60200101907effffffffffffffffffffffffffffffffffffffffffffffffffffffffffffff1916908160001a9053507f7800000000000000000000000000000000000000000000000000000000000000816001815181106119c4576119c3612cef565b5b60200101907effffffffffffffffffffffffffffffffffffffffffffffffffffffffffffff1916908160001a90535060006001846002611a049190612b33565b611a0e9190612add565b90505b6001811115611aae577f3031323334353637383961626364656600000000000000000000000000000000600f861660108110611a5057611a4f612cef565b5b1a60f81b828281518110611a6757611a66612cef565b5b60200101907effffffffffffffffffffffffffffffffffffffffffffffffffffffffffffff1916908160001a905350600485901c945080611aa790612c4d565b9050611a11565b5060008414611af2576040517f08c379a0000000000000000000000000000000000000000000000000000000008152600401611ae9906127bc565b60405180910390fd5b8091505092915050565b600081359050611b0b816130dc565b92915050565b60008083601f840112611b2757611b26612d57565b5b8235905067ffffffffffffffff811115611b4457611b43612d52565b5b602083019150836020820283011115611b6057611b5f612d6b565b5b9250929050565b60008083601f840112611b7d57611b7c612d57565b5b8235905067ffffffffffffffff811115611b9a57611b99612d52565b5b602083019150836020820283011115611bb657611bb5612d6b565b5b9250929050565b60008083601f840112611bd357611bd2612d57565b5b8235905067ffffffffffffffff811115611bf057611bef612d52565b5b602083019150836020820283011115611c0c57611c0b612d6b565b5b9250929050565b600081359050611c22816130f3565b92915050565b600081519050611c37816130f3565b92915050565b600081359050611c4c8161310a565b92915050565b60008083601f840112611c6857611c67612d57565b5b8235905067ffffffffffffffff811115611c8557611c84612d52565b5b602083019150836001820283011115611ca157611ca0612d6b565b5b9250929050565b600081359050611cb781613121565b92915050565b600060208284031215611cd357611cd2612d84565b5b6000611ce184828501611afc565b91505092915050565b60008060008060008060a08789031215611d0757611d06612d84565b5b6000611d1589828a01611afc565b9650506020611d2689828a01611ca8565b955050604087013567ffffffffffffffff811115611d4757611d46612d75565b5b611d5389828a01611c52565b94509450506060611d6689828a01611c13565b9250506080611d7789828a01611c13565b9150509295509295509295565b600080600080600080600060c0888a031215611da357611da2612d84565b5b6000611db18a828b01611afc565b9750506020611dc28a828b01611ca8565b965050604088013567ffffffffffffffff811115611de357611de2612d75565b5b611def8a828b01611c52565b95509550506060611e028a828b01611c13565b9350506080611e138a828b01611c13565b92505060a0611e248a828b01611ca8565b91505092959891949750929550565b60008060008060008060008060a0898b031215611e5357611e52612d84565b5b600089013567ffffffffffffffff811115611e7157611e70612d75565b5b611e7d8b828c01611b11565b9850985050602089013567ffffffffffffffff811115611ea057611e9f612d75565b5b611eac8b828c01611bbd565b9650965050604089013567ffffffffffffffff811115611ecf57611ece612d75565b5b611edb8b828c01611b67565b94509450506060611eee8b828c01611c13565b9250506080611eff8b828c01611c13565b9150509295985092959890939650565b600080600080600080600080600060c08a8c031215611f3157611f30612d84565b5b60008a013567ffffffffffffffff811115611f4f57611f4e612d75565b5b611f5b8c828d01611b11565b995099505060208a013567ffffffffffffffff811115611f7e57611f7d612d75565b5b611f8a8c828d01611bbd565b975097505060408a013567ffffffffffffffff811115611fad57611fac612d75565b5b611fb98c828d01611b67565b95509550506060611fcc8c828d01611c13565b9350506080611fdd8c828d01611c13565b92505060a0611fee8c828d01611ca8565b9150509295985092959850929598565b60006020828403121561201457612013612d84565b5b600061202284828501611c13565b91505092915050565b60006020828403121561204157612040612d84565b5b600061204f84828501611c28565b91505092915050565b6000806040838503121561206f5761206e612d84565b5b600061207d85828601611c13565b925050602061208e85828601611afc565b9150509250929050565b6000602082840312156120ae576120ad612d84565b5b60006120bc84828501611c3d565b91505092915050565b6000602082840312156120db576120da612d84565b5b60006120e984828501611ca8565b91505092915050565b60006120fe8383612120565b60208301905092915050565b600061211784848461228b565b90509392505050565b61212981612b8d565b82525050565b61213881612b8d565b82525050565b600061214a83856129e7565b9350612155826129a3565b8060005b8581101561218e5761216b8284612a63565b61217588826120f2565b9750612180836129cd565b925050600181019050612159565b5085925050509392505050565b60006121a783856129f8565b9350836020840285016121b9846129ad565b8060005b878110156121ff5784840389526121d48284612a7a565b6121df86828461210a565b95506121ea846129da565b935060208b019a5050506001810190506121bd565b50829750879450505050509392505050565b600061221d8385612a09565b93507f07ffffffffffffffffffffffffffffffffffffffffffffffffffffffffffffff8311156122505761224f612d7a565b5b602083029250612261838584612c0b565b82840190509392505050565b61227681612b9f565b82525050565b61228581612bab565b82525050565b60006122978385612a1a565b93506122a4838584612c0b565b6122ad83612d89565b840190509392505050565b60006122c48385612a2b565b93506122d1838584612c0b565b6122da83612d89565b840190509392505050565b60006122f18385612a3c565b93506122fe838584612c0b565b82840190509392505050565b6000612315826129b7565b61231f8185612a2b565b935061232f818560208601612c1a565b61233881612d89565b840191505092915050565b600061234e826129c2565b6123588185612a47565b9350612368818560208601612c1a565b61237181612d89565b840191505092915050565b6000612387826129c2565b6123918185612a58565b93506123a1818560208601612c1a565b80840191505092915050565b60006123ba602083612a47565b91506123c582612d9a565b602082019050919050565b60006123dd602683612a47565b91506123e882612dc3565b604082019050919050565b6000612400602383612a47565b915061240b82612e12565b604082019050919050565b6000612423602683612a47565b915061242e82612e61565b604082019050919050565b6000612446602f83612a47565b915061245182612eb0565b604082019050919050565b6000612469602a83612a47565b915061247482612eff565b604082019050919050565b600061248c601783612a58565b915061249782612f4e565b601782019050919050565b60006124af603183612a47565b91506124ba82612f77565b604082019050919050565b60006124d2601183612a58565b91506124dd82612fc6565b601182019050919050565b60006124f5602b83612a47565b915061250082612fef565b604082019050919050565b6000612518602f83612a47565b91506125238261303e565b604082019050919050565b600061253b603383612a47565b91506125468261308d565b604082019050919050565b61255a81612c01565b82525050565b600061256d8284866122e5565b91508190509392505050565b60006125848261247f565b9150612590828561237c565b915061259b826124c5565b91506125a7828461237c565b91508190509392505050565b60006060820190506125c8600083018761212f565b6125d56020830186612551565b81810360408301526125e88184866122b8565b905095945050505050565b600060a082019050612608600083018961212f565b6126156020830188612551565b81810360408301526126288186886122b8565b9050612637606083018561227c565b612644608083018461227c565b979650505050505050565b600060a082019050612664600083018961212f565b6126716020830188612551565b81810360408301526126848186886122b8565b9050612693606083018561227c565b6126a06080830184612551565b979650505050505050565b600060a08201905081810360008301526126c6818a8c61213e565b905081810360208301526126db81888a612211565b905081810360408301526126f081868861219b565b90506126ff606083018561227c565b61270c608083018461227c565b9998505050505050505050565b600060208201905061272e600083018461226d565b92915050565b6000602082019050612749600083018461227c565b92915050565b6000604082019050612764600083018561227c565b612771602083018461212f565b9392505050565b60006020820190508181036000830152612792818461230a565b905092915050565b600060208201905081810360008301526127b48184612343565b905092915050565b600060208201905081810360008301526127d5816123ad565b9050919050565b600060208201905081810360008301526127f5816123d0565b9050919050565b60006020820190508181036000830152612815816123f3565b9050919050565b6000602082019050818103600083015261283581612416565b9050919050565b6000602082019050818103600083015261285581612439565b9050919050565b600060208201905081810360008301526128758161245c565b9050919050565b60006020820190508181036000830152612895816124a2565b9050919050565b600060208201905081810360008301526128b5816124e8565b9050919050565b600060208201905081810360008301526128d58161250b565b9050919050565b600060208201905081810360008301526128f58161252e565b9050919050565b60006020820190506129116000830184612551565b92915050565b600060408201905061292c6000830185612551565b6129396020830184612551565b9392505050565b6000808335600160200384360303811261295d5761295c612d61565b5b80840192508235915067ffffffffffffffff82111561297f5761297e612d5c565b5b60208301925060018202360383131561299b5761299a612d70565b5b509250929050565b6000819050919050565b6000819050919050565b600081519050919050565b600081519050919050565b6000602082019050919050565b6000602082019050919050565b600082825260208201905092915050565b600082825260208201905092915050565b600082825260208201905092915050565b600082825260208201905092915050565b600082825260208201905092915050565b600081905092915050565b600082825260208201905092915050565b600081905092915050565b6000612a726020840184611afc565b905092915050565b60008083356001602003843603038112612a9757612a96612d7f565b5b83810192508235915060208301925067ffffffffffffffff821115612abf57612abe612d4d565b5b600182023603841315612ad557612ad4612d66565b5b509250929050565b6000612ae882612c01565b9150612af383612c01565b9250827fffffffffffffffffffffffffffffffffffffffffffffffffffffffffffffffff03821115612b2857612b27612cc0565b5b828201905092915050565b6000612b3e82612c01565b9150612b4983612c01565b9250817fffffffffffffffffffffffffffffffffffffffffffffffffffffffffffffffff0483118215151615612b8257612b81612cc0565b5b828202905092915050565b6000612b9882612be1565b9050919050565b60008115159050919050565b6000819050919050565b60007fffffffff0000000000000000000000000000000000000000000000000000000082169050919050565b600073ffffffffffffffffffffffffffffffffffffffff82169050919050565b6000819050919050565b82818337600083830152505050565b60005b83811015612c38578082015181840152602081019050612c1d565b83811115612c47576000848401525b50505050565b6000612c5882612c01565b91506000821415612c6c57612c6b612cc0565b5b600182039050919050565b6000612c8282612c01565b91507fffffffffffffffffffffffffffffffffffffffffffffffffffffffffffffffff821415612cb557612cb4612cc0565b5b600182019050919050565b7f4e487b7100000000000000000000000000000000000000000000000000000000600052601160045260246000fd5b7f4e487b7100000000000000000000000000000000000000000000000000000000600052603260045260246000fd5b7f4e487b7100000000000000000000000000000000000000000000000000000000600052604160045260246000fd5b600080fd5b600080fd5b600080fd5b600080fd5b600080fd5b600080fd5b600080fd5b600080fd5b600080fd5b600080fd5b600080fd5b600080fd5b6000601f19601f8301169050919050565b7f537472696e67733a20686578206c656e67746820696e73756666696369656e74600082015250565b7f54696d656c6f636b436f6e74726f6c6c65723a206d697373696e67206465706560008201527f6e64656e63790000000000000000000000000000000000000000000000000000602082015250565b7f54696d656c6f636b436f6e74726f6c6c65723a206c656e677468206d69736d6160008201527f7463680000000000000000000000000000000000000000000000000000000000602082015250565b7f54696d656c6f636b436f6e74726f6c6c65723a20696e73756666696369656e7460008201527f2064656c61790000000000000000000000000000000000000000000000000000602082015250565b7f54696d656c6f636b436f6e74726f6c6c65723a206f7065726174696f6e20616c60008201527f7265616479207363686564756c65640000000000000000000000000000000000602082015250565b7f54696d656c6f636b436f6e74726f6c6c65723a206f7065726174696f6e20697360008201527f206e6f7420726561647900000000000000000000000000000000000000000000602082015250565b7f416363657373436f6e74726f6c3a206163636f756e7420000000000000000000600082015250565b7f54696d656c6f636b436f6e74726f6c6c65723a206f7065726174696f6e20636160008201527f6e6e6f742062652063616e63656c6c6564000000000000000000000000000000602082015250565b7f206973206d697373696e6720726f6c6520000000000000000000000000000000600082015250565b7f54696d656c6f636b436f6e74726f6c6c65723a2063616c6c6572206d7573742060008201527f62652074696d656c6f636b000000000000000000000000000000000000000000602082015250565b7f416363657373436f6e74726f6c3a2063616e206f6e6c792072656e6f756e636560008201527f20726f6c657320666f722073656c660000000000000000000000000000000000602082015250565b7f54696d656c6f636b436f6e74726f6c6c65723a20756e6465726c79696e67207460008201527f72616e73616374696f6e20726576657274656400000000000000000000000000602082015250565b6130e581612b8d565b81146130f057600080fd5b50565b6130fc81612bab565b811461310757600080fd5b50565b61311381612bb5565b811461311e57600080fd5b50565b61312a81612c01565b811461313557600080fd5b5056fea2646970667358221220f860d1fbdd20e1b301a37d182b9cd90c28042beef97a35622535daec39e8990d64736f6c63430008070033",
  "linkReferences": {},
  "deployedLinkReferences": {}
}